
LED_RGB.elf:     file format elf32-littlearm

Sections:
Idx Name          Size      VMA       LMA       File off  Algn
  0 .isr_vector   0000010c  08000000  08000000  00010000  2**0
                  CONTENTS, ALLOC, LOAD, READONLY, DATA
  1 .text         00001bd0  0800010c  0800010c  0001010c  2**2
                  CONTENTS, ALLOC, LOAD, READONLY, CODE
  2 .rodata       00000020  08001cdc  08001cdc  00011cdc  2**2
                  CONTENTS, ALLOC, LOAD, READONLY, DATA
  3 .ARM.extab    00000000  08001cfc  08001cfc  0002000c  2**0
                  CONTENTS
  4 .ARM          00000000  08001cfc  08001cfc  0002000c  2**0
                  CONTENTS
  5 .preinit_array 00000000  08001cfc  08001cfc  0002000c  2**0
                  CONTENTS, ALLOC, LOAD, DATA
  6 .init_array   00000004  08001cfc  08001cfc  00011cfc  2**2
                  CONTENTS, ALLOC, LOAD, DATA
  7 .fini_array   00000004  08001d00  08001d00  00011d00  2**2
                  CONTENTS, ALLOC, LOAD, DATA
  8 .data         0000000c  20000000  08001d04  00020000  2**2
                  CONTENTS, ALLOC, LOAD, DATA
  9 .bss          0000006c  2000000c  08001d10  0002000c  2**2
                  ALLOC
 10 ._user_heap_stack 00000600  20000078  08001d10  00020078  2**0
                  ALLOC
 11 .ARM.attributes 00000029  00000000  00000000  0002000c  2**0
                  CONTENTS, READONLY
 12 .debug_info   000078d3  00000000  00000000  00020035  2**0
                  CONTENTS, READONLY, DEBUGGING, OCTETS
 13 .debug_abbrev 000014ab  00000000  00000000  00027908  2**0
                  CONTENTS, READONLY, DEBUGGING, OCTETS
 14 .debug_aranges 00000940  00000000  00000000  00028db8  2**3
                  CONTENTS, READONLY, DEBUGGING, OCTETS
 15 .debug_ranges 00000898  00000000  00000000  000296f8  2**3
                  CONTENTS, READONLY, DEBUGGING, OCTETS
 16 .debug_macro  000161d7  00000000  00000000  00029f90  2**0
                  CONTENTS, READONLY, DEBUGGING, OCTETS
 17 .debug_line   000093a1  00000000  00000000  00040167  2**0
                  CONTENTS, READONLY, DEBUGGING, OCTETS
 18 .debug_str    00081ab5  00000000  00000000  00049508  2**0
                  CONTENTS, READONLY, DEBUGGING, OCTETS
 19 .comment      00000050  00000000  00000000  000cafbd  2**0
                  CONTENTS, READONLY
 20 .debug_frame  0000261c  00000000  00000000  000cb010  2**2
                  CONTENTS, READONLY, DEBUGGING, OCTETS

Disassembly of section .text:

0800010c <__do_global_dtors_aux>:
 800010c:	b510      	push	{r4, lr}
 800010e:	4c05      	ldr	r4, [pc, #20]	; (8000124 <__do_global_dtors_aux+0x18>)
 8000110:	7823      	ldrb	r3, [r4, #0]
 8000112:	b933      	cbnz	r3, 8000122 <__do_global_dtors_aux+0x16>
 8000114:	4b04      	ldr	r3, [pc, #16]	; (8000128 <__do_global_dtors_aux+0x1c>)
 8000116:	b113      	cbz	r3, 800011e <__do_global_dtors_aux+0x12>
 8000118:	4804      	ldr	r0, [pc, #16]	; (800012c <__do_global_dtors_aux+0x20>)
 800011a:	f3af 8000 	nop.w
 800011e:	2301      	movs	r3, #1
 8000120:	7023      	strb	r3, [r4, #0]
 8000122:	bd10      	pop	{r4, pc}
 8000124:	2000000c 	.word	0x2000000c
 8000128:	00000000 	.word	0x00000000
 800012c:	08001cc4 	.word	0x08001cc4

08000130 <frame_dummy>:
 8000130:	b508      	push	{r3, lr}
 8000132:	4b03      	ldr	r3, [pc, #12]	; (8000140 <frame_dummy+0x10>)
 8000134:	b11b      	cbz	r3, 800013e <frame_dummy+0xe>
 8000136:	4903      	ldr	r1, [pc, #12]	; (8000144 <frame_dummy+0x14>)
 8000138:	4803      	ldr	r0, [pc, #12]	; (8000148 <frame_dummy+0x18>)
 800013a:	f3af 8000 	nop.w
 800013e:	bd08      	pop	{r3, pc}
 8000140:	00000000 	.word	0x00000000
 8000144:	20000010 	.word	0x20000010
 8000148:	08001cc4 	.word	0x08001cc4

0800014c <smooth>:

/* Private user code ---------------------------------------------------------*/
/* USER CODE BEGIN 0 */

void smooth (int i)
{
 800014c:	b480      	push	{r7}
 800014e:	b083      	sub	sp, #12
 8000150:	af00      	add	r7, sp, #0
 8000152:	6078      	str	r0, [r7, #4]
	  // green ++, red MAX, blue LOW
	  if (i <= 255)
 8000154:	687b      	ldr	r3, [r7, #4]
 8000156:	2bff      	cmp	r3, #255	; 0xff
 8000158:	dc0e      	bgt.n	8000178 <smooth+0x2c>
	  {
	    TIM2->CCR1 = MAX;
 800015a:	f04f 4380 	mov.w	r3, #1073741824	; 0x40000000
 800015e:	22ff      	movs	r2, #255	; 0xff
 8000160:	635a      	str	r2, [r3, #52]	; 0x34
	    TIM2->CCR2  = i;
 8000162:	f04f 4280 	mov.w	r2, #1073741824	; 0x40000000
 8000166:	687b      	ldr	r3, [r7, #4]
 8000168:	6393      	str	r3, [r2, #56]	; 0x38
	    TIM2->CCR3  = MIN;
 800016a:	f04f 4380 	mov.w	r3, #1073741824	; 0x40000000
 800016e:	2200      	movs	r2, #0
 8000170:	63da      	str	r2, [r3, #60]	; 0x3c
	    i+=10;
 8000172:	687b      	ldr	r3, [r7, #4]
 8000174:	330a      	adds	r3, #10
 8000176:	607b      	str	r3, [r7, #4]
	  }
	  // green MAX , red -- , blue MIN
	  if (i > 255 && i <= 510)
 8000178:	687b      	ldr	r3, [r7, #4]
 800017a:	2bff      	cmp	r3, #255	; 0xff
 800017c:	dd14      	ble.n	80001a8 <smooth+0x5c>
 800017e:	687b      	ldr	r3, [r7, #4]
 8000180:	f5b3 7fff 	cmp.w	r3, #510	; 0x1fe
 8000184:	dc10      	bgt.n	80001a8 <smooth+0x5c>
	  {
		TIM2->CCR1  = 510 - i;
 8000186:	687b      	ldr	r3, [r7, #4]
 8000188:	f5c3 72ff 	rsb	r2, r3, #510	; 0x1fe
 800018c:	f04f 4380 	mov.w	r3, #1073741824	; 0x40000000
 8000190:	635a      	str	r2, [r3, #52]	; 0x34
		TIM2->CCR2  = MAX;
 8000192:	f04f 4380 	mov.w	r3, #1073741824	; 0x40000000
 8000196:	22ff      	movs	r2, #255	; 0xff
 8000198:	639a      	str	r2, [r3, #56]	; 0x38
		TIM2->CCR3  = MIN;
 800019a:	f04f 4380 	mov.w	r3, #1073741824	; 0x40000000
 800019e:	2200      	movs	r2, #0
 80001a0:	63da      	str	r2, [r3, #60]	; 0x3c
		i+=10;
 80001a2:	687b      	ldr	r3, [r7, #4]
 80001a4:	330a      	adds	r3, #10
 80001a6:	607b      	str	r3, [r7, #4]
	  }
	  // green MAX, blue ++, red MIN
	  if (i > 510 && i <= 765)
 80001a8:	687b      	ldr	r3, [r7, #4]
 80001aa:	f5b3 7fff 	cmp.w	r3, #510	; 0x1fe
 80001ae:	dd15      	ble.n	80001dc <smooth+0x90>
 80001b0:	687b      	ldr	r3, [r7, #4]
 80001b2:	f240 22fd 	movw	r2, #765	; 0x2fd
 80001b6:	4293      	cmp	r3, r2
 80001b8:	dc10      	bgt.n	80001dc <smooth+0x90>
	  {
		TIM2->CCR1  = MIN;
 80001ba:	f04f 4380 	mov.w	r3, #1073741824	; 0x40000000
 80001be:	2200      	movs	r2, #0
 80001c0:	635a      	str	r2, [r3, #52]	; 0x34
		TIM2->CCR2  = MAX;
 80001c2:	f04f 4380 	mov.w	r3, #1073741824	; 0x40000000
 80001c6:	22ff      	movs	r2, #255	; 0xff
 80001c8:	639a      	str	r2, [r3, #56]	; 0x38
		TIM2->CCR3  = i - 510;
 80001ca:	687b      	ldr	r3, [r7, #4]
 80001cc:	f5a3 72ff 	sub.w	r2, r3, #510	; 0x1fe
 80001d0:	f04f 4380 	mov.w	r3, #1073741824	; 0x40000000
 80001d4:	63da      	str	r2, [r3, #60]	; 0x3c
		i+=10;
 80001d6:	687b      	ldr	r3, [r7, #4]
 80001d8:	330a      	adds	r3, #10
 80001da:	607b      	str	r3, [r7, #4]
	  }
	  //blue MAX, green -- , red MIN
	  if (i > 765 && i <= 1020)
 80001dc:	687b      	ldr	r3, [r7, #4]
 80001de:	f240 22fd 	movw	r2, #765	; 0x2fd
 80001e2:	4293      	cmp	r3, r2
 80001e4:	dd14      	ble.n	8000210 <smooth+0xc4>
 80001e6:	687b      	ldr	r3, [r7, #4]
 80001e8:	f5b3 7f7f 	cmp.w	r3, #1020	; 0x3fc
 80001ec:	dc10      	bgt.n	8000210 <smooth+0xc4>
	  {
		TIM2->CCR1  = MIN;
 80001ee:	f04f 4380 	mov.w	r3, #1073741824	; 0x40000000
 80001f2:	2200      	movs	r2, #0
 80001f4:	635a      	str	r2, [r3, #52]	; 0x34
		TIM2->CCR2  = 1020 - i;
 80001f6:	687b      	ldr	r3, [r7, #4]
 80001f8:	f5c3 727f 	rsb	r2, r3, #1020	; 0x3fc
 80001fc:	f04f 4380 	mov.w	r3, #1073741824	; 0x40000000
 8000200:	639a      	str	r2, [r3, #56]	; 0x38
		TIM2->CCR3  = MAX;
 8000202:	f04f 4380 	mov.w	r3, #1073741824	; 0x40000000
 8000206:	22ff      	movs	r2, #255	; 0xff
 8000208:	63da      	str	r2, [r3, #60]	; 0x3c
		i+=10;
 800020a:	687b      	ldr	r3, [r7, #4]
 800020c:	330a      	adds	r3, #10
 800020e:	607b      	str	r3, [r7, #4]
	  }
	  // blue MAX, red ++ , green MIN
	  if (i > 1020 && i <= 1275)
 8000210:	687b      	ldr	r3, [r7, #4]
 8000212:	f5b3 7f7f 	cmp.w	r3, #1020	; 0x3fc
 8000216:	dd15      	ble.n	8000244 <smooth+0xf8>
 8000218:	687b      	ldr	r3, [r7, #4]
 800021a:	f240 42fb 	movw	r2, #1275	; 0x4fb
 800021e:	4293      	cmp	r3, r2
 8000220:	dc10      	bgt.n	8000244 <smooth+0xf8>
	  {
		TIM2->CCR1  = i - 1020;
 8000222:	687b      	ldr	r3, [r7, #4]
 8000224:	f5a3 727f 	sub.w	r2, r3, #1020	; 0x3fc
 8000228:	f04f 4380 	mov.w	r3, #1073741824	; 0x40000000
 800022c:	635a      	str	r2, [r3, #52]	; 0x34
		TIM2->CCR2  = MIN;
 800022e:	f04f 4380 	mov.w	r3, #1073741824	; 0x40000000
 8000232:	2200      	movs	r2, #0
 8000234:	639a      	str	r2, [r3, #56]	; 0x38
		TIM2->CCR3  = MAX;
 8000236:	f04f 4380 	mov.w	r3, #1073741824	; 0x40000000
 800023a:	22ff      	movs	r2, #255	; 0xff
 800023c:	63da      	str	r2, [r3, #60]	; 0x3c
		i+=10;
 800023e:	687b      	ldr	r3, [r7, #4]
 8000240:	330a      	adds	r3, #10
 8000242:	607b      	str	r3, [r7, #4]
	  }
	  // red MAX, blue -- , green MIN
	  if (i > 1275 && i <= 1530)
 8000244:	687b      	ldr	r3, [r7, #4]
 8000246:	f240 42fb 	movw	r2, #1275	; 0x4fb
 800024a:	4293      	cmp	r3, r2
 800024c:	dd16      	ble.n	800027c <smooth+0x130>
 800024e:	687b      	ldr	r3, [r7, #4]
 8000250:	f240 52fa 	movw	r2, #1530	; 0x5fa
 8000254:	4293      	cmp	r3, r2
 8000256:	dc11      	bgt.n	800027c <smooth+0x130>
	  {
		TIM2->CCR1  = MAX;
 8000258:	f04f 4380 	mov.w	r3, #1073741824	; 0x40000000
 800025c:	22ff      	movs	r2, #255	; 0xff
 800025e:	635a      	str	r2, [r3, #52]	; 0x34
		TIM2->CCR2  = MIN;
 8000260:	f04f 4380 	mov.w	r3, #1073741824	; 0x40000000
 8000264:	2200      	movs	r2, #0
 8000266:	639a      	str	r2, [r3, #56]	; 0x38
		TIM2->CCR3  = 1530 - i;
 8000268:	687b      	ldr	r3, [r7, #4]
 800026a:	f5c3 63bf 	rsb	r3, r3, #1528	; 0x5f8
 800026e:	3302      	adds	r3, #2
 8000270:	f04f 4280 	mov.w	r2, #1073741824	; 0x40000000
 8000274:	63d3      	str	r3, [r2, #60]	; 0x3c
		i+=10;
 8000276:	687b      	ldr	r3, [r7, #4]
 8000278:	330a      	adds	r3, #10
 800027a:	607b      	str	r3, [r7, #4]
	  }

}
 800027c:	bf00      	nop
 800027e:	370c      	adds	r7, #12
 8000280:	46bd      	mov	sp, r7
 8000282:	bc80      	pop	{r7}
 8000284:	4770      	bx	lr
	...

08000288 <main>:
/**
  * @brief  The application entry point.
  * @retval int
  */
int main(void)
{
 8000288:	b580      	push	{r7, lr}
 800028a:	af00      	add	r7, sp, #0
  /* USER CODE END 1 */

  /* MCU Configuration--------------------------------------------------------*/

  /* Reset of all peripherals, Initializes the Flash interface and the Systick. */
  HAL_Init();
 800028c:	f000 fa02 	bl	8000694 <HAL_Init>

  /* USER CODE BEGIN Init */
  /* USER CODE END Init */

  /* Configure the system clock */
  SystemClock_Config();
 8000290:	f000 f82c 	bl	80002ec <SystemClock_Config>

  /* USER CODE BEGIN SysInit */
  /* USER CODE END SysInit */

  /* Initialize all configured peripherals */
  MX_GPIO_Init();
 8000294:	f000 f8de 	bl	8000454 <MX_GPIO_Init>
  MX_TIM2_Init();
 8000298:	f000 f86e 	bl	8000378 <MX_TIM2_Init>
  /* USER CODE BEGIN 2 */
  HAL_TIM_PWM_Start(&htim2,TIM_CHANNEL_1);
 800029c:	2100      	movs	r1, #0
 800029e:	4811      	ldr	r0, [pc, #68]	; (80002e4 <main+0x5c>)
 80002a0:	f001 f92e 	bl	8001500 <HAL_TIM_PWM_Start>
  HAL_TIM_PWM_Start(&htim2,TIM_CHANNEL_2);
 80002a4:	2104      	movs	r1, #4
 80002a6:	480f      	ldr	r0, [pc, #60]	; (80002e4 <main+0x5c>)
 80002a8:	f001 f92a 	bl	8001500 <HAL_TIM_PWM_Start>
  HAL_TIM_PWM_Start(&htim2,TIM_CHANNEL_3);
 80002ac:	2108      	movs	r1, #8
 80002ae:	480d      	ldr	r0, [pc, #52]	; (80002e4 <main+0x5c>)
 80002b0:	f001 f926 	bl	8001500 <HAL_TIM_PWM_Start>

    /* USER CODE END WHILE */

    /* USER CODE BEGIN 3 */
	static int count = 0;
		if(count<1540)
 80002b4:	4b0c      	ldr	r3, [pc, #48]	; (80002e8 <main+0x60>)
 80002b6:	681b      	ldr	r3, [r3, #0]
 80002b8:	f240 6203 	movw	r2, #1539	; 0x603
 80002bc:	4293      	cmp	r3, r2
 80002be:	dc0d      	bgt.n	80002dc <main+0x54>
		{
			count+=10;
 80002c0:	4b09      	ldr	r3, [pc, #36]	; (80002e8 <main+0x60>)
 80002c2:	681b      	ldr	r3, [r3, #0]
 80002c4:	330a      	adds	r3, #10
 80002c6:	4a08      	ldr	r2, [pc, #32]	; (80002e8 <main+0x60>)
 80002c8:	6013      	str	r3, [r2, #0]
			smooth(count);
 80002ca:	4b07      	ldr	r3, [pc, #28]	; (80002e8 <main+0x60>)
 80002cc:	681b      	ldr	r3, [r3, #0]
 80002ce:	4618      	mov	r0, r3
 80002d0:	f7ff ff3c 	bl	800014c <smooth>
			HAL_Delay(100);
 80002d4:	2064      	movs	r0, #100	; 0x64
 80002d6:	f000 fa3f 	bl	8000758 <HAL_Delay>
 80002da:	e7eb      	b.n	80002b4 <main+0x2c>
		}
		else count = 0;
 80002dc:	4b02      	ldr	r3, [pc, #8]	; (80002e8 <main+0x60>)
 80002de:	2200      	movs	r2, #0
 80002e0:	601a      	str	r2, [r3, #0]
  {
 80002e2:	e7e7      	b.n	80002b4 <main+0x2c>
 80002e4:	20000028 	.word	0x20000028
 80002e8:	20000070 	.word	0x20000070

080002ec <SystemClock_Config>:
/**
  * @brief System Clock Configuration
  * @retval None
  */
void SystemClock_Config(void)
{
 80002ec:	b580      	push	{r7, lr}
 80002ee:	b090      	sub	sp, #64	; 0x40
 80002f0:	af00      	add	r7, sp, #0
  RCC_OscInitTypeDef RCC_OscInitStruct = {0};
 80002f2:	f107 0318 	add.w	r3, r7, #24
 80002f6:	2228      	movs	r2, #40	; 0x28
 80002f8:	2100      	movs	r1, #0
 80002fa:	4618      	mov	r0, r3
 80002fc:	f001 fcda 	bl	8001cb4 <memset>
  RCC_ClkInitTypeDef RCC_ClkInitStruct = {0};
 8000300:	1d3b      	adds	r3, r7, #4
 8000302:	2200      	movs	r2, #0
 8000304:	601a      	str	r2, [r3, #0]
 8000306:	605a      	str	r2, [r3, #4]
 8000308:	609a      	str	r2, [r3, #8]
 800030a:	60da      	str	r2, [r3, #12]
 800030c:	611a      	str	r2, [r3, #16]

  /** Initializes the RCC Oscillators according to the specified parameters
  * in the RCC_OscInitTypeDef structure.
  */
  RCC_OscInitStruct.OscillatorType = RCC_OSCILLATORTYPE_HSE;
 800030e:	2301      	movs	r3, #1
 8000310:	61bb      	str	r3, [r7, #24]
  RCC_OscInitStruct.HSEState = RCC_HSE_ON;
 8000312:	f44f 3380 	mov.w	r3, #65536	; 0x10000
 8000316:	61fb      	str	r3, [r7, #28]
  RCC_OscInitStruct.HSEPredivValue = RCC_HSE_PREDIV_DIV1;
 8000318:	2300      	movs	r3, #0
 800031a:	623b      	str	r3, [r7, #32]
  RCC_OscInitStruct.HSIState = RCC_HSI_ON;
 800031c:	2301      	movs	r3, #1
 800031e:	62bb      	str	r3, [r7, #40]	; 0x28
  RCC_OscInitStruct.PLL.PLLState = RCC_PLL_ON;
 8000320:	2302      	movs	r3, #2
 8000322:	637b      	str	r3, [r7, #52]	; 0x34
  RCC_OscInitStruct.PLL.PLLSource = RCC_PLLSOURCE_HSE;
 8000324:	f44f 3380 	mov.w	r3, #65536	; 0x10000
 8000328:	63bb      	str	r3, [r7, #56]	; 0x38
  RCC_OscInitStruct.PLL.PLLMUL = RCC_PLL_MUL9;
 800032a:	f44f 13e0 	mov.w	r3, #1835008	; 0x1c0000
 800032e:	63fb      	str	r3, [r7, #60]	; 0x3c
  if (HAL_RCC_OscConfig(&RCC_OscInitStruct) != HAL_OK)
 8000330:	f107 0318 	add.w	r3, r7, #24
 8000334:	4618      	mov	r0, r3
 8000336:	f000 fcab 	bl	8000c90 <HAL_RCC_OscConfig>
 800033a:	4603      	mov	r3, r0
 800033c:	2b00      	cmp	r3, #0
 800033e:	d001      	beq.n	8000344 <SystemClock_Config+0x58>
  {
    Error_Handler();
 8000340:	f000 f8e0 	bl	8000504 <Error_Handler>
  }

  /** Initializes the CPU, AHB and APB buses clocks
  */
  RCC_ClkInitStruct.ClockType = RCC_CLOCKTYPE_HCLK|RCC_CLOCKTYPE_SYSCLK
 8000344:	230f      	movs	r3, #15
 8000346:	607b      	str	r3, [r7, #4]
                              |RCC_CLOCKTYPE_PCLK1|RCC_CLOCKTYPE_PCLK2;
  RCC_ClkInitStruct.SYSCLKSource = RCC_SYSCLKSOURCE_PLLCLK;
 8000348:	2302      	movs	r3, #2
 800034a:	60bb      	str	r3, [r7, #8]
  RCC_ClkInitStruct.AHBCLKDivider = RCC_SYSCLK_DIV1;
 800034c:	2300      	movs	r3, #0
 800034e:	60fb      	str	r3, [r7, #12]
  RCC_ClkInitStruct.APB1CLKDivider = RCC_HCLK_DIV2;
 8000350:	f44f 6380 	mov.w	r3, #1024	; 0x400
 8000354:	613b      	str	r3, [r7, #16]
  RCC_ClkInitStruct.APB2CLKDivider = RCC_HCLK_DIV1;
 8000356:	2300      	movs	r3, #0
 8000358:	617b      	str	r3, [r7, #20]

  if (HAL_RCC_ClockConfig(&RCC_ClkInitStruct, FLASH_LATENCY_2) != HAL_OK)
 800035a:	1d3b      	adds	r3, r7, #4
 800035c:	2102      	movs	r1, #2
 800035e:	4618      	mov	r0, r3
 8000360:	f000 ff18 	bl	8001194 <HAL_RCC_ClockConfig>
 8000364:	4603      	mov	r3, r0
 8000366:	2b00      	cmp	r3, #0
 8000368:	d001      	beq.n	800036e <SystemClock_Config+0x82>
  {
    Error_Handler();
 800036a:	f000 f8cb 	bl	8000504 <Error_Handler>
  }
}
 800036e:	bf00      	nop
 8000370:	3740      	adds	r7, #64	; 0x40
 8000372:	46bd      	mov	sp, r7
 8000374:	bd80      	pop	{r7, pc}
	...

08000378 <MX_TIM2_Init>:
  * @brief TIM2 Initialization Function
  * @param None
  * @retval None
  */
static void MX_TIM2_Init(void)
{
 8000378:	b580      	push	{r7, lr}
 800037a:	b08a      	sub	sp, #40	; 0x28
 800037c:	af00      	add	r7, sp, #0

  /* USER CODE BEGIN TIM2_Init 0 */

  /* USER CODE END TIM2_Init 0 */

  TIM_MasterConfigTypeDef sMasterConfig = {0};
 800037e:	f107 0320 	add.w	r3, r7, #32
 8000382:	2200      	movs	r2, #0
 8000384:	601a      	str	r2, [r3, #0]
 8000386:	605a      	str	r2, [r3, #4]
  TIM_OC_InitTypeDef sConfigOC = {0};
 8000388:	1d3b      	adds	r3, r7, #4
 800038a:	2200      	movs	r2, #0
 800038c:	601a      	str	r2, [r3, #0]
 800038e:	605a      	str	r2, [r3, #4]
 8000390:	609a      	str	r2, [r3, #8]
 8000392:	60da      	str	r2, [r3, #12]
 8000394:	611a      	str	r2, [r3, #16]
 8000396:	615a      	str	r2, [r3, #20]
 8000398:	619a      	str	r2, [r3, #24]

  /* USER CODE BEGIN TIM2_Init 1 */

  /* USER CODE END TIM2_Init 1 */
  htim2.Instance = TIM2;
 800039a:	4b2d      	ldr	r3, [pc, #180]	; (8000450 <MX_TIM2_Init+0xd8>)
 800039c:	f04f 4280 	mov.w	r2, #1073741824	; 0x40000000
 80003a0:	601a      	str	r2, [r3, #0]
  htim2.Init.Prescaler = 8;
 80003a2:	4b2b      	ldr	r3, [pc, #172]	; (8000450 <MX_TIM2_Init+0xd8>)
 80003a4:	2208      	movs	r2, #8
 80003a6:	605a      	str	r2, [r3, #4]
  htim2.Init.CounterMode = TIM_COUNTERMODE_UP;
 80003a8:	4b29      	ldr	r3, [pc, #164]	; (8000450 <MX_TIM2_Init+0xd8>)
 80003aa:	2200      	movs	r2, #0
 80003ac:	609a      	str	r2, [r3, #8]
  htim2.Init.Period = 255;
 80003ae:	4b28      	ldr	r3, [pc, #160]	; (8000450 <MX_TIM2_Init+0xd8>)
 80003b0:	22ff      	movs	r2, #255	; 0xff
 80003b2:	60da      	str	r2, [r3, #12]
  htim2.Init.ClockDivision = TIM_CLOCKDIVISION_DIV1;
 80003b4:	4b26      	ldr	r3, [pc, #152]	; (8000450 <MX_TIM2_Init+0xd8>)
 80003b6:	2200      	movs	r2, #0
 80003b8:	611a      	str	r2, [r3, #16]
  htim2.Init.AutoReloadPreload = TIM_AUTORELOAD_PRELOAD_DISABLE;
 80003ba:	4b25      	ldr	r3, [pc, #148]	; (8000450 <MX_TIM2_Init+0xd8>)
 80003bc:	2200      	movs	r2, #0
 80003be:	619a      	str	r2, [r3, #24]
  if (HAL_TIM_PWM_Init(&htim2) != HAL_OK)
 80003c0:	4823      	ldr	r0, [pc, #140]	; (8000450 <MX_TIM2_Init+0xd8>)
 80003c2:	f001 f84d 	bl	8001460 <HAL_TIM_PWM_Init>
 80003c6:	4603      	mov	r3, r0
 80003c8:	2b00      	cmp	r3, #0
 80003ca:	d001      	beq.n	80003d0 <MX_TIM2_Init+0x58>
  {
    Error_Handler();
 80003cc:	f000 f89a 	bl	8000504 <Error_Handler>
  }
  sMasterConfig.MasterOutputTrigger = TIM_TRGO_RESET;
 80003d0:	2300      	movs	r3, #0
 80003d2:	623b      	str	r3, [r7, #32]
  sMasterConfig.MasterSlaveMode = TIM_MASTERSLAVEMODE_DISABLE;
 80003d4:	2300      	movs	r3, #0
 80003d6:	627b      	str	r3, [r7, #36]	; 0x24
  if (HAL_TIMEx_MasterConfigSynchronization(&htim2, &sMasterConfig) != HAL_OK)
 80003d8:	f107 0320 	add.w	r3, r7, #32
 80003dc:	4619      	mov	r1, r3
 80003de:	481c      	ldr	r0, [pc, #112]	; (8000450 <MX_TIM2_Init+0xd8>)
 80003e0:	f001 fbec 	bl	8001bbc <HAL_TIMEx_MasterConfigSynchronization>
 80003e4:	4603      	mov	r3, r0
 80003e6:	2b00      	cmp	r3, #0
 80003e8:	d001      	beq.n	80003ee <MX_TIM2_Init+0x76>
  {
    Error_Handler();
 80003ea:	f000 f88b 	bl	8000504 <Error_Handler>
  }
  sConfigOC.OCMode = TIM_OCMODE_PWM1;
 80003ee:	2360      	movs	r3, #96	; 0x60
 80003f0:	607b      	str	r3, [r7, #4]
  sConfigOC.Pulse = 0;
 80003f2:	2300      	movs	r3, #0
 80003f4:	60bb      	str	r3, [r7, #8]
  sConfigOC.OCPolarity = TIM_OCPOLARITY_HIGH;
 80003f6:	2300      	movs	r3, #0
 80003f8:	60fb      	str	r3, [r7, #12]
  sConfigOC.OCFastMode = TIM_OCFAST_DISABLE;
 80003fa:	2300      	movs	r3, #0
 80003fc:	617b      	str	r3, [r7, #20]
  if (HAL_TIM_PWM_ConfigChannel(&htim2, &sConfigOC, TIM_CHANNEL_1) != HAL_OK)
 80003fe:	1d3b      	adds	r3, r7, #4
 8000400:	2200      	movs	r2, #0
 8000402:	4619      	mov	r1, r3
 8000404:	4812      	ldr	r0, [pc, #72]	; (8000450 <MX_TIM2_Init+0xd8>)
 8000406:	f001 f917 	bl	8001638 <HAL_TIM_PWM_ConfigChannel>
 800040a:	4603      	mov	r3, r0
 800040c:	2b00      	cmp	r3, #0
 800040e:	d001      	beq.n	8000414 <MX_TIM2_Init+0x9c>
  {
    Error_Handler();
 8000410:	f000 f878 	bl	8000504 <Error_Handler>
  }
  if (HAL_TIM_PWM_ConfigChannel(&htim2, &sConfigOC, TIM_CHANNEL_2) != HAL_OK)
 8000414:	1d3b      	adds	r3, r7, #4
 8000416:	2204      	movs	r2, #4
 8000418:	4619      	mov	r1, r3
 800041a:	480d      	ldr	r0, [pc, #52]	; (8000450 <MX_TIM2_Init+0xd8>)
 800041c:	f001 f90c 	bl	8001638 <HAL_TIM_PWM_ConfigChannel>
 8000420:	4603      	mov	r3, r0
 8000422:	2b00      	cmp	r3, #0
 8000424:	d001      	beq.n	800042a <MX_TIM2_Init+0xb2>
  {
    Error_Handler();
 8000426:	f000 f86d 	bl	8000504 <Error_Handler>
  }
  if (HAL_TIM_PWM_ConfigChannel(&htim2, &sConfigOC, TIM_CHANNEL_3) != HAL_OK)
 800042a:	1d3b      	adds	r3, r7, #4
 800042c:	2208      	movs	r2, #8
 800042e:	4619      	mov	r1, r3
 8000430:	4807      	ldr	r0, [pc, #28]	; (8000450 <MX_TIM2_Init+0xd8>)
 8000432:	f001 f901 	bl	8001638 <HAL_TIM_PWM_ConfigChannel>
 8000436:	4603      	mov	r3, r0
 8000438:	2b00      	cmp	r3, #0
 800043a:	d001      	beq.n	8000440 <MX_TIM2_Init+0xc8>
  {
    Error_Handler();
 800043c:	f000 f862 	bl	8000504 <Error_Handler>
  }
  /* USER CODE BEGIN TIM2_Init 2 */

  /* USER CODE END TIM2_Init 2 */
  HAL_TIM_MspPostInit(&htim2);
 8000440:	4803      	ldr	r0, [pc, #12]	; (8000450 <MX_TIM2_Init+0xd8>)
 8000442:	f000 f8a3 	bl	800058c <HAL_TIM_MspPostInit>

}
 8000446:	bf00      	nop
 8000448:	3728      	adds	r7, #40	; 0x28
 800044a:	46bd      	mov	sp, r7
 800044c:	bd80      	pop	{r7, pc}
 800044e:	bf00      	nop
 8000450:	20000028 	.word	0x20000028

08000454 <MX_GPIO_Init>:
  * @brief GPIO Initialization Function
  * @param None
  * @retval None
  */
static void MX_GPIO_Init(void)
{
 8000454:	b580      	push	{r7, lr}
 8000456:	b088      	sub	sp, #32
 8000458:	af00      	add	r7, sp, #0
  GPIO_InitTypeDef GPIO_InitStruct = {0};
 800045a:	f107 0310 	add.w	r3, r7, #16
 800045e:	2200      	movs	r2, #0
 8000460:	601a      	str	r2, [r3, #0]
 8000462:	605a      	str	r2, [r3, #4]
 8000464:	609a      	str	r2, [r3, #8]
 8000466:	60da      	str	r2, [r3, #12]

  /* GPIO Ports Clock Enable */
  __HAL_RCC_GPIOC_CLK_ENABLE();
 8000468:	4b24      	ldr	r3, [pc, #144]	; (80004fc <MX_GPIO_Init+0xa8>)
 800046a:	699b      	ldr	r3, [r3, #24]
 800046c:	4a23      	ldr	r2, [pc, #140]	; (80004fc <MX_GPIO_Init+0xa8>)
 800046e:	f043 0310 	orr.w	r3, r3, #16
 8000472:	6193      	str	r3, [r2, #24]
 8000474:	4b21      	ldr	r3, [pc, #132]	; (80004fc <MX_GPIO_Init+0xa8>)
 8000476:	699b      	ldr	r3, [r3, #24]
 8000478:	f003 0310 	and.w	r3, r3, #16
 800047c:	60fb      	str	r3, [r7, #12]
 800047e:	68fb      	ldr	r3, [r7, #12]
  __HAL_RCC_GPIOD_CLK_ENABLE();
 8000480:	4b1e      	ldr	r3, [pc, #120]	; (80004fc <MX_GPIO_Init+0xa8>)
 8000482:	699b      	ldr	r3, [r3, #24]
 8000484:	4a1d      	ldr	r2, [pc, #116]	; (80004fc <MX_GPIO_Init+0xa8>)
 8000486:	f043 0320 	orr.w	r3, r3, #32
 800048a:	6193      	str	r3, [r2, #24]
 800048c:	4b1b      	ldr	r3, [pc, #108]	; (80004fc <MX_GPIO_Init+0xa8>)
 800048e:	699b      	ldr	r3, [r3, #24]
 8000490:	f003 0320 	and.w	r3, r3, #32
 8000494:	60bb      	str	r3, [r7, #8]
 8000496:	68bb      	ldr	r3, [r7, #8]
  __HAL_RCC_GPIOA_CLK_ENABLE();
 8000498:	4b18      	ldr	r3, [pc, #96]	; (80004fc <MX_GPIO_Init+0xa8>)
 800049a:	699b      	ldr	r3, [r3, #24]
 800049c:	4a17      	ldr	r2, [pc, #92]	; (80004fc <MX_GPIO_Init+0xa8>)
 800049e:	f043 0304 	orr.w	r3, r3, #4
 80004a2:	6193      	str	r3, [r2, #24]
 80004a4:	4b15      	ldr	r3, [pc, #84]	; (80004fc <MX_GPIO_Init+0xa8>)
 80004a6:	699b      	ldr	r3, [r3, #24]
 80004a8:	f003 0304 	and.w	r3, r3, #4
 80004ac:	607b      	str	r3, [r7, #4]
 80004ae:	687b      	ldr	r3, [r7, #4]

  /*Configure GPIO pin Output Level */
  HAL_GPIO_WritePin(LED_GPIO_Port, LED_Pin, GPIO_PIN_RESET);
 80004b0:	2200      	movs	r2, #0
 80004b2:	f44f 5100 	mov.w	r1, #8192	; 0x2000
 80004b6:	4812      	ldr	r0, [pc, #72]	; (8000500 <MX_GPIO_Init+0xac>)
 80004b8:	f000 fbd2 	bl	8000c60 <HAL_GPIO_WritePin>

  /*Configure GPIO pin : LED_Pin */
  GPIO_InitStruct.Pin = LED_Pin;
 80004bc:	f44f 5300 	mov.w	r3, #8192	; 0x2000
 80004c0:	613b      	str	r3, [r7, #16]
  GPIO_InitStruct.Mode = GPIO_MODE_OUTPUT_PP;
 80004c2:	2301      	movs	r3, #1
 80004c4:	617b      	str	r3, [r7, #20]
  GPIO_InitStruct.Pull = GPIO_NOPULL;
 80004c6:	2300      	movs	r3, #0
 80004c8:	61bb      	str	r3, [r7, #24]
  GPIO_InitStruct.Speed = GPIO_SPEED_FREQ_LOW;
 80004ca:	2302      	movs	r3, #2
 80004cc:	61fb      	str	r3, [r7, #28]
  HAL_GPIO_Init(LED_GPIO_Port, &GPIO_InitStruct);
 80004ce:	f107 0310 	add.w	r3, r7, #16
 80004d2:	4619      	mov	r1, r3
 80004d4:	480a      	ldr	r0, [pc, #40]	; (8000500 <MX_GPIO_Init+0xac>)
 80004d6:	f000 fa47 	bl	8000968 <HAL_GPIO_Init>

  /*Configure GPIO pin : SENSOR_Pin */
  GPIO_InitStruct.Pin = SENSOR_Pin;
 80004da:	f44f 4300 	mov.w	r3, #32768	; 0x8000
 80004de:	613b      	str	r3, [r7, #16]
  GPIO_InitStruct.Mode = GPIO_MODE_INPUT;
 80004e0:	2300      	movs	r3, #0
 80004e2:	617b      	str	r3, [r7, #20]
  GPIO_InitStruct.Pull = GPIO_NOPULL;
 80004e4:	2300      	movs	r3, #0
 80004e6:	61bb      	str	r3, [r7, #24]
  HAL_GPIO_Init(SENSOR_GPIO_Port, &GPIO_InitStruct);
 80004e8:	f107 0310 	add.w	r3, r7, #16
 80004ec:	4619      	mov	r1, r3
 80004ee:	4804      	ldr	r0, [pc, #16]	; (8000500 <MX_GPIO_Init+0xac>)
 80004f0:	f000 fa3a 	bl	8000968 <HAL_GPIO_Init>

}
 80004f4:	bf00      	nop
 80004f6:	3720      	adds	r7, #32
 80004f8:	46bd      	mov	sp, r7
 80004fa:	bd80      	pop	{r7, pc}
 80004fc:	40021000 	.word	0x40021000
 8000500:	40011000 	.word	0x40011000

08000504 <Error_Handler>:
/**
  * @brief  This function is executed in case of error occurrence.
  * @retval None
  */
void Error_Handler(void)
{
 8000504:	b480      	push	{r7}
 8000506:	af00      	add	r7, sp, #0
  \details Disables IRQ interrupts by setting the I-bit in the CPSR.
           Can only be executed in Privileged modes.
 */
__STATIC_FORCEINLINE void __disable_irq(void)
{
  __ASM volatile ("cpsid i" : : : "memory");
 8000508:	b672      	cpsid	i
}
 800050a:	bf00      	nop
  /* USER CODE BEGIN Error_Handler_Debug */
  /* User can add his own implementation to report the HAL error return state */
  __disable_irq();
  while (1)
 800050c:	e7fe      	b.n	800050c <Error_Handler+0x8>
	...

08000510 <HAL_MspInit>:
void HAL_TIM_MspPostInit(TIM_HandleTypeDef *htim);
                    /**
  * Initializes the Global MSP.
  */
void HAL_MspInit(void)
{
 8000510:	b480      	push	{r7}
 8000512:	b083      	sub	sp, #12
 8000514:	af00      	add	r7, sp, #0
  /* USER CODE BEGIN MspInit 0 */

  /* USER CODE END MspInit 0 */

  __HAL_RCC_AFIO_CLK_ENABLE();
 8000516:	4b0e      	ldr	r3, [pc, #56]	; (8000550 <HAL_MspInit+0x40>)
 8000518:	699b      	ldr	r3, [r3, #24]
 800051a:	4a0d      	ldr	r2, [pc, #52]	; (8000550 <HAL_MspInit+0x40>)
 800051c:	f043 0301 	orr.w	r3, r3, #1
 8000520:	6193      	str	r3, [r2, #24]
 8000522:	4b0b      	ldr	r3, [pc, #44]	; (8000550 <HAL_MspInit+0x40>)
 8000524:	699b      	ldr	r3, [r3, #24]
 8000526:	f003 0301 	and.w	r3, r3, #1
 800052a:	607b      	str	r3, [r7, #4]
 800052c:	687b      	ldr	r3, [r7, #4]
  __HAL_RCC_PWR_CLK_ENABLE();
 800052e:	4b08      	ldr	r3, [pc, #32]	; (8000550 <HAL_MspInit+0x40>)
 8000530:	69db      	ldr	r3, [r3, #28]
 8000532:	4a07      	ldr	r2, [pc, #28]	; (8000550 <HAL_MspInit+0x40>)
 8000534:	f043 5380 	orr.w	r3, r3, #268435456	; 0x10000000
 8000538:	61d3      	str	r3, [r2, #28]
 800053a:	4b05      	ldr	r3, [pc, #20]	; (8000550 <HAL_MspInit+0x40>)
 800053c:	69db      	ldr	r3, [r3, #28]
 800053e:	f003 5380 	and.w	r3, r3, #268435456	; 0x10000000
 8000542:	603b      	str	r3, [r7, #0]
 8000544:	683b      	ldr	r3, [r7, #0]
  /* System interrupt init*/

  /* USER CODE BEGIN MspInit 1 */

  /* USER CODE END MspInit 1 */
}
 8000546:	bf00      	nop
 8000548:	370c      	adds	r7, #12
 800054a:	46bd      	mov	sp, r7
 800054c:	bc80      	pop	{r7}
 800054e:	4770      	bx	lr
 8000550:	40021000 	.word	0x40021000

08000554 <HAL_TIM_PWM_MspInit>:
* This function configures the hardware resources used in this example
* @param htim_pwm: TIM_PWM handle pointer
* @retval None
*/
void HAL_TIM_PWM_MspInit(TIM_HandleTypeDef* htim_pwm)
{
 8000554:	b480      	push	{r7}
 8000556:	b085      	sub	sp, #20
 8000558:	af00      	add	r7, sp, #0
 800055a:	6078      	str	r0, [r7, #4]
  if(htim_pwm->Instance==TIM2)
 800055c:	687b      	ldr	r3, [r7, #4]
 800055e:	681b      	ldr	r3, [r3, #0]
 8000560:	f1b3 4f80 	cmp.w	r3, #1073741824	; 0x40000000
 8000564:	d10b      	bne.n	800057e <HAL_TIM_PWM_MspInit+0x2a>
  {
  /* USER CODE BEGIN TIM2_MspInit 0 */

  /* USER CODE END TIM2_MspInit 0 */
    /* Peripheral clock enable */
    __HAL_RCC_TIM2_CLK_ENABLE();
 8000566:	4b08      	ldr	r3, [pc, #32]	; (8000588 <HAL_TIM_PWM_MspInit+0x34>)
 8000568:	69db      	ldr	r3, [r3, #28]
 800056a:	4a07      	ldr	r2, [pc, #28]	; (8000588 <HAL_TIM_PWM_MspInit+0x34>)
 800056c:	f043 0301 	orr.w	r3, r3, #1
 8000570:	61d3      	str	r3, [r2, #28]
 8000572:	4b05      	ldr	r3, [pc, #20]	; (8000588 <HAL_TIM_PWM_MspInit+0x34>)
 8000574:	69db      	ldr	r3, [r3, #28]
 8000576:	f003 0301 	and.w	r3, r3, #1
 800057a:	60fb      	str	r3, [r7, #12]
 800057c:	68fb      	ldr	r3, [r7, #12]
  /* USER CODE BEGIN TIM2_MspInit 1 */

  /* USER CODE END TIM2_MspInit 1 */
  }

}
 800057e:	bf00      	nop
 8000580:	3714      	adds	r7, #20
 8000582:	46bd      	mov	sp, r7
 8000584:	bc80      	pop	{r7}
 8000586:	4770      	bx	lr
 8000588:	40021000 	.word	0x40021000

0800058c <HAL_TIM_MspPostInit>:

void HAL_TIM_MspPostInit(TIM_HandleTypeDef* htim)
{
 800058c:	b580      	push	{r7, lr}
 800058e:	b088      	sub	sp, #32
 8000590:	af00      	add	r7, sp, #0
 8000592:	6078      	str	r0, [r7, #4]
  GPIO_InitTypeDef GPIO_InitStruct = {0};
 8000594:	f107 0310 	add.w	r3, r7, #16
 8000598:	2200      	movs	r2, #0
 800059a:	601a      	str	r2, [r3, #0]
 800059c:	605a      	str	r2, [r3, #4]
 800059e:	609a      	str	r2, [r3, #8]
 80005a0:	60da      	str	r2, [r3, #12]
  if(htim->Instance==TIM2)
 80005a2:	687b      	ldr	r3, [r7, #4]
 80005a4:	681b      	ldr	r3, [r3, #0]
 80005a6:	f1b3 4f80 	cmp.w	r3, #1073741824	; 0x40000000
 80005aa:	d117      	bne.n	80005dc <HAL_TIM_MspPostInit+0x50>
  {
  /* USER CODE BEGIN TIM2_MspPostInit 0 */

  /* USER CODE END TIM2_MspPostInit 0 */

    __HAL_RCC_GPIOA_CLK_ENABLE();
 80005ac:	4b0d      	ldr	r3, [pc, #52]	; (80005e4 <HAL_TIM_MspPostInit+0x58>)
 80005ae:	699b      	ldr	r3, [r3, #24]
 80005b0:	4a0c      	ldr	r2, [pc, #48]	; (80005e4 <HAL_TIM_MspPostInit+0x58>)
 80005b2:	f043 0304 	orr.w	r3, r3, #4
 80005b6:	6193      	str	r3, [r2, #24]
 80005b8:	4b0a      	ldr	r3, [pc, #40]	; (80005e4 <HAL_TIM_MspPostInit+0x58>)
 80005ba:	699b      	ldr	r3, [r3, #24]
 80005bc:	f003 0304 	and.w	r3, r3, #4
 80005c0:	60fb      	str	r3, [r7, #12]
 80005c2:	68fb      	ldr	r3, [r7, #12]
    /**TIM2 GPIO Configuration
    PA0-WKUP     ------> TIM2_CH1
    PA1     ------> TIM2_CH2
    PA2     ------> TIM2_CH3
    */
    GPIO_InitStruct.Pin = GPIO_PIN_0|GPIO_PIN_1|GPIO_PIN_2;
 80005c4:	2307      	movs	r3, #7
 80005c6:	613b      	str	r3, [r7, #16]
    GPIO_InitStruct.Mode = GPIO_MODE_AF_PP;
 80005c8:	2302      	movs	r3, #2
 80005ca:	617b      	str	r3, [r7, #20]
    GPIO_InitStruct.Speed = GPIO_SPEED_FREQ_LOW;
 80005cc:	2302      	movs	r3, #2
 80005ce:	61fb      	str	r3, [r7, #28]
    HAL_GPIO_Init(GPIOA, &GPIO_InitStruct);
 80005d0:	f107 0310 	add.w	r3, r7, #16
 80005d4:	4619      	mov	r1, r3
 80005d6:	4804      	ldr	r0, [pc, #16]	; (80005e8 <HAL_TIM_MspPostInit+0x5c>)
 80005d8:	f000 f9c6 	bl	8000968 <HAL_GPIO_Init>
  /* USER CODE BEGIN TIM2_MspPostInit 1 */

  /* USER CODE END TIM2_MspPostInit 1 */
  }

}
 80005dc:	bf00      	nop
 80005de:	3720      	adds	r7, #32
 80005e0:	46bd      	mov	sp, r7
 80005e2:	bd80      	pop	{r7, pc}
 80005e4:	40021000 	.word	0x40021000
 80005e8:	40010800 	.word	0x40010800

080005ec <NMI_Handler>:
/******************************************************************************/
/**
  * @brief This function handles Non maskable interrupt.
  */
void NMI_Handler(void)
{
 80005ec:	b480      	push	{r7}
 80005ee:	af00      	add	r7, sp, #0
  /* USER CODE BEGIN NonMaskableInt_IRQn 0 */

  /* USER CODE END NonMaskableInt_IRQn 0 */
  /* USER CODE BEGIN NonMaskableInt_IRQn 1 */
  while (1)
 80005f0:	e7fe      	b.n	80005f0 <NMI_Handler+0x4>

080005f2 <HardFault_Handler>:

/**
  * @brief This function handles Hard fault interrupt.
  */
void HardFault_Handler(void)
{
 80005f2:	b480      	push	{r7}
 80005f4:	af00      	add	r7, sp, #0
  /* USER CODE BEGIN HardFault_IRQn 0 */

  /* USER CODE END HardFault_IRQn 0 */
  while (1)
 80005f6:	e7fe      	b.n	80005f6 <HardFault_Handler+0x4>

080005f8 <MemManage_Handler>:

/**
  * @brief This function handles Memory management fault.
  */
void MemManage_Handler(void)
{
 80005f8:	b480      	push	{r7}
 80005fa:	af00      	add	r7, sp, #0
  /* USER CODE BEGIN MemoryManagement_IRQn 0 */

  /* USER CODE END MemoryManagement_IRQn 0 */
  while (1)
 80005fc:	e7fe      	b.n	80005fc <MemManage_Handler+0x4>

080005fe <BusFault_Handler>:

/**
  * @brief This function handles Prefetch fault, memory access fault.
  */
void BusFault_Handler(void)
{
 80005fe:	b480      	push	{r7}
 8000600:	af00      	add	r7, sp, #0
  /* USER CODE BEGIN BusFault_IRQn 0 */

  /* USER CODE END BusFault_IRQn 0 */
  while (1)
 8000602:	e7fe      	b.n	8000602 <BusFault_Handler+0x4>

08000604 <UsageFault_Handler>:

/**
  * @brief This function handles Undefined instruction or illegal state.
  */
void UsageFault_Handler(void)
{
 8000604:	b480      	push	{r7}
 8000606:	af00      	add	r7, sp, #0
  /* USER CODE BEGIN UsageFault_IRQn 0 */

  /* USER CODE END UsageFault_IRQn 0 */
  while (1)
 8000608:	e7fe      	b.n	8000608 <UsageFault_Handler+0x4>

0800060a <SVC_Handler>:

/**
  * @brief This function handles System service call via SWI instruction.
  */
void SVC_Handler(void)
{
 800060a:	b480      	push	{r7}
 800060c:	af00      	add	r7, sp, #0

  /* USER CODE END SVCall_IRQn 0 */
  /* USER CODE BEGIN SVCall_IRQn 1 */

  /* USER CODE END SVCall_IRQn 1 */
}
 800060e:	bf00      	nop
 8000610:	46bd      	mov	sp, r7
 8000612:	bc80      	pop	{r7}
 8000614:	4770      	bx	lr

08000616 <DebugMon_Handler>:

/**
  * @brief This function handles Debug monitor.
  */
void DebugMon_Handler(void)
{
 8000616:	b480      	push	{r7}
 8000618:	af00      	add	r7, sp, #0

  /* USER CODE END DebugMonitor_IRQn 0 */
  /* USER CODE BEGIN DebugMonitor_IRQn 1 */

  /* USER CODE END DebugMonitor_IRQn 1 */
}
 800061a:	bf00      	nop
 800061c:	46bd      	mov	sp, r7
 800061e:	bc80      	pop	{r7}
 8000620:	4770      	bx	lr

08000622 <PendSV_Handler>:

/**
  * @brief This function handles Pendable request for system service.
  */
void PendSV_Handler(void)
{
 8000622:	b480      	push	{r7}
 8000624:	af00      	add	r7, sp, #0

  /* USER CODE END PendSV_IRQn 0 */
  /* USER CODE BEGIN PendSV_IRQn 1 */

  /* USER CODE END PendSV_IRQn 1 */
}
 8000626:	bf00      	nop
 8000628:	46bd      	mov	sp, r7
 800062a:	bc80      	pop	{r7}
 800062c:	4770      	bx	lr

0800062e <SysTick_Handler>:

/**
  * @brief This function handles System tick timer.
  */
void SysTick_Handler(void)
{
 800062e:	b580      	push	{r7, lr}
 8000630:	af00      	add	r7, sp, #0
  /* USER CODE BEGIN SysTick_IRQn 0 */

  /* USER CODE END SysTick_IRQn 0 */
  HAL_IncTick();
 8000632:	f000 f875 	bl	8000720 <HAL_IncTick>
  /* USER CODE BEGIN SysTick_IRQn 1 */

  /* USER CODE END SysTick_IRQn 1 */
}
 8000636:	bf00      	nop
 8000638:	bd80      	pop	{r7, pc}

0800063a <SystemInit>:
  * @note   This function should be used only after reset.
  * @param  None
  * @retval None
  */
void SystemInit (void)
{
 800063a:	b480      	push	{r7}
 800063c:	af00      	add	r7, sp, #0

  /* Configure the Vector Table location -------------------------------------*/
#if defined(USER_VECT_TAB_ADDRESS)
  SCB->VTOR = VECT_TAB_BASE_ADDRESS | VECT_TAB_OFFSET; /* Vector Table Relocation in Internal SRAM. */
#endif /* USER_VECT_TAB_ADDRESS */
}
 800063e:	bf00      	nop
 8000640:	46bd      	mov	sp, r7
 8000642:	bc80      	pop	{r7}
 8000644:	4770      	bx	lr
	...

08000648 <Reset_Handler>:
  .weak Reset_Handler
  .type Reset_Handler, %function
Reset_Handler:

/* Copy the data segment initializers from flash to SRAM */
  ldr r0, =_sdata
 8000648:	480c      	ldr	r0, [pc, #48]	; (800067c <LoopFillZerobss+0x12>)
  ldr r1, =_edata
 800064a:	490d      	ldr	r1, [pc, #52]	; (8000680 <LoopFillZerobss+0x16>)
  ldr r2, =_sidata
 800064c:	4a0d      	ldr	r2, [pc, #52]	; (8000684 <LoopFillZerobss+0x1a>)
  movs r3, #0
 800064e:	2300      	movs	r3, #0
  b LoopCopyDataInit
 8000650:	e002      	b.n	8000658 <LoopCopyDataInit>

08000652 <CopyDataInit>:

CopyDataInit:
  ldr r4, [r2, r3]
 8000652:	58d4      	ldr	r4, [r2, r3]
  str r4, [r0, r3]
 8000654:	50c4      	str	r4, [r0, r3]
  adds r3, r3, #4
 8000656:	3304      	adds	r3, #4

08000658 <LoopCopyDataInit>:

LoopCopyDataInit:
  adds r4, r0, r3
 8000658:	18c4      	adds	r4, r0, r3
  cmp r4, r1
 800065a:	428c      	cmp	r4, r1
  bcc CopyDataInit
 800065c:	d3f9      	bcc.n	8000652 <CopyDataInit>
  
/* Zero fill the bss segment. */
  ldr r2, =_sbss
 800065e:	4a0a      	ldr	r2, [pc, #40]	; (8000688 <LoopFillZerobss+0x1e>)
  ldr r4, =_ebss
 8000660:	4c0a      	ldr	r4, [pc, #40]	; (800068c <LoopFillZerobss+0x22>)
  movs r3, #0
 8000662:	2300      	movs	r3, #0
  b LoopFillZerobss
 8000664:	e001      	b.n	800066a <LoopFillZerobss>

08000666 <FillZerobss>:

FillZerobss:
  str  r3, [r2]
 8000666:	6013      	str	r3, [r2, #0]
  adds r2, r2, #4
 8000668:	3204      	adds	r2, #4

0800066a <LoopFillZerobss>:

LoopFillZerobss:
  cmp r2, r4
 800066a:	42a2      	cmp	r2, r4
  bcc FillZerobss
 800066c:	d3fb      	bcc.n	8000666 <FillZerobss>

/* Call the clock system intitialization function.*/
    bl  SystemInit
 800066e:	f7ff ffe4 	bl	800063a <SystemInit>
/* Call static constructors */
    bl __libc_init_array
 8000672:	f001 fafb 	bl	8001c6c <__libc_init_array>
/* Call the application's entry point.*/
  bl main
 8000676:	f7ff fe07 	bl	8000288 <main>
  bx lr
 800067a:	4770      	bx	lr
  ldr r0, =_sdata
 800067c:	20000000 	.word	0x20000000
  ldr r1, =_edata
 8000680:	2000000c 	.word	0x2000000c
  ldr r2, =_sidata
 8000684:	08001d04 	.word	0x08001d04
  ldr r2, =_sbss
 8000688:	2000000c 	.word	0x2000000c
  ldr r4, =_ebss
 800068c:	20000078 	.word	0x20000078

08000690 <ADC1_2_IRQHandler>:
 * @retval : None
*/
    .section .text.Default_Handler,"ax",%progbits
Default_Handler:
Infinite_Loop:
  b Infinite_Loop
 8000690:	e7fe      	b.n	8000690 <ADC1_2_IRQHandler>
	...

08000694 <HAL_Init>:
  *         need to ensure that the SysTick time base is always set to 1 millisecond
  *         to have correct HAL operation.
  * @retval HAL status
  */
HAL_StatusTypeDef HAL_Init(void)
{
 8000694:	b580      	push	{r7, lr}
 8000696:	af00      	add	r7, sp, #0
    defined(STM32F102x6) || defined(STM32F102xB) || \
    defined(STM32F103x6) || defined(STM32F103xB) || defined(STM32F103xE) || defined(STM32F103xG) || \
    defined(STM32F105xC) || defined(STM32F107xC)

  /* Prefetch buffer is not available on value line devices */
  __HAL_FLASH_PREFETCH_BUFFER_ENABLE();
 8000698:	4b08      	ldr	r3, [pc, #32]	; (80006bc <HAL_Init+0x28>)
 800069a:	681b      	ldr	r3, [r3, #0]
 800069c:	4a07      	ldr	r2, [pc, #28]	; (80006bc <HAL_Init+0x28>)
 800069e:	f043 0310 	orr.w	r3, r3, #16
 80006a2:	6013      	str	r3, [r2, #0]
#endif
#endif /* PREFETCH_ENABLE */

  /* Set Interrupt Group Priority */
  HAL_NVIC_SetPriorityGrouping(NVIC_PRIORITYGROUP_4);
 80006a4:	2003      	movs	r0, #3
 80006a6:	f000 f92b 	bl	8000900 <HAL_NVIC_SetPriorityGrouping>

  /* Use systick as time base source and configure 1ms tick (default clock after Reset is HSI) */
  HAL_InitTick(TICK_INT_PRIORITY);
 80006aa:	200f      	movs	r0, #15
 80006ac:	f000 f808 	bl	80006c0 <HAL_InitTick>

  /* Init the low level hardware */
  HAL_MspInit();
 80006b0:	f7ff ff2e 	bl	8000510 <HAL_MspInit>

  /* Return function status */
  return HAL_OK;
 80006b4:	2300      	movs	r3, #0
}
 80006b6:	4618      	mov	r0, r3
 80006b8:	bd80      	pop	{r7, pc}
 80006ba:	bf00      	nop
 80006bc:	40022000 	.word	0x40022000

080006c0 <HAL_InitTick>:
  *       implementation  in user file.
  * @param TickPriority Tick interrupt priority.
  * @retval HAL status
  */
__weak HAL_StatusTypeDef HAL_InitTick(uint32_t TickPriority)
{
 80006c0:	b580      	push	{r7, lr}
 80006c2:	b082      	sub	sp, #8
 80006c4:	af00      	add	r7, sp, #0
 80006c6:	6078      	str	r0, [r7, #4]
  /* Configure the SysTick to have interrupt in 1ms time basis*/
  if (HAL_SYSTICK_Config(SystemCoreClock / (1000U / uwTickFreq)) > 0U)
 80006c8:	4b12      	ldr	r3, [pc, #72]	; (8000714 <HAL_InitTick+0x54>)
 80006ca:	681a      	ldr	r2, [r3, #0]
 80006cc:	4b12      	ldr	r3, [pc, #72]	; (8000718 <HAL_InitTick+0x58>)
 80006ce:	781b      	ldrb	r3, [r3, #0]
 80006d0:	4619      	mov	r1, r3
 80006d2:	f44f 737a 	mov.w	r3, #1000	; 0x3e8
 80006d6:	fbb3 f3f1 	udiv	r3, r3, r1
 80006da:	fbb2 f3f3 	udiv	r3, r2, r3
 80006de:	4618      	mov	r0, r3
 80006e0:	f000 f935 	bl	800094e <HAL_SYSTICK_Config>
 80006e4:	4603      	mov	r3, r0
 80006e6:	2b00      	cmp	r3, #0
 80006e8:	d001      	beq.n	80006ee <HAL_InitTick+0x2e>
  {
    return HAL_ERROR;
 80006ea:	2301      	movs	r3, #1
 80006ec:	e00e      	b.n	800070c <HAL_InitTick+0x4c>
  }

  /* Configure the SysTick IRQ priority */
  if (TickPriority < (1UL << __NVIC_PRIO_BITS))
 80006ee:	687b      	ldr	r3, [r7, #4]
 80006f0:	2b0f      	cmp	r3, #15
 80006f2:	d80a      	bhi.n	800070a <HAL_InitTick+0x4a>
  {
    HAL_NVIC_SetPriority(SysTick_IRQn, TickPriority, 0U);
 80006f4:	2200      	movs	r2, #0
 80006f6:	6879      	ldr	r1, [r7, #4]
 80006f8:	f04f 30ff 	mov.w	r0, #4294967295
 80006fc:	f000 f90b 	bl	8000916 <HAL_NVIC_SetPriority>
    uwTickPrio = TickPriority;
 8000700:	4a06      	ldr	r2, [pc, #24]	; (800071c <HAL_InitTick+0x5c>)
 8000702:	687b      	ldr	r3, [r7, #4]
 8000704:	6013      	str	r3, [r2, #0]
  {
    return HAL_ERROR;
  }

  /* Return function status */
  return HAL_OK;
 8000706:	2300      	movs	r3, #0
 8000708:	e000      	b.n	800070c <HAL_InitTick+0x4c>
    return HAL_ERROR;
 800070a:	2301      	movs	r3, #1
}
 800070c:	4618      	mov	r0, r3
 800070e:	3708      	adds	r7, #8
 8000710:	46bd      	mov	sp, r7
 8000712:	bd80      	pop	{r7, pc}
 8000714:	20000000 	.word	0x20000000
 8000718:	20000008 	.word	0x20000008
 800071c:	20000004 	.word	0x20000004

08000720 <HAL_IncTick>:
  * @note This function is declared as __weak to be overwritten in case of other
  *      implementations in user file.
  * @retval None
  */
__weak void HAL_IncTick(void)
{
 8000720:	b480      	push	{r7}
 8000722:	af00      	add	r7, sp, #0
  uwTick += uwTickFreq;
 8000724:	4b05      	ldr	r3, [pc, #20]	; (800073c <HAL_IncTick+0x1c>)
 8000726:	781b      	ldrb	r3, [r3, #0]
 8000728:	461a      	mov	r2, r3
 800072a:	4b05      	ldr	r3, [pc, #20]	; (8000740 <HAL_IncTick+0x20>)
 800072c:	681b      	ldr	r3, [r3, #0]
 800072e:	4413      	add	r3, r2
 8000730:	4a03      	ldr	r2, [pc, #12]	; (8000740 <HAL_IncTick+0x20>)
 8000732:	6013      	str	r3, [r2, #0]
}
 8000734:	bf00      	nop
 8000736:	46bd      	mov	sp, r7
 8000738:	bc80      	pop	{r7}
 800073a:	4770      	bx	lr
 800073c:	20000008 	.word	0x20000008
 8000740:	20000074 	.word	0x20000074

08000744 <HAL_GetTick>:
  * @note  This function is declared as __weak to be overwritten in case of other
  *       implementations in user file.
  * @retval tick value
  */
__weak uint32_t HAL_GetTick(void)
{
 8000744:	b480      	push	{r7}
 8000746:	af00      	add	r7, sp, #0
  return uwTick;
 8000748:	4b02      	ldr	r3, [pc, #8]	; (8000754 <HAL_GetTick+0x10>)
 800074a:	681b      	ldr	r3, [r3, #0]
}
 800074c:	4618      	mov	r0, r3
 800074e:	46bd      	mov	sp, r7
 8000750:	bc80      	pop	{r7}
 8000752:	4770      	bx	lr
 8000754:	20000074 	.word	0x20000074

08000758 <HAL_Delay>:
  *       implementations in user file.
  * @param Delay specifies the delay time length, in milliseconds.
  * @retval None
  */
__weak void HAL_Delay(uint32_t Delay)
{
 8000758:	b580      	push	{r7, lr}
 800075a:	b084      	sub	sp, #16
 800075c:	af00      	add	r7, sp, #0
 800075e:	6078      	str	r0, [r7, #4]
  uint32_t tickstart = HAL_GetTick();
 8000760:	f7ff fff0 	bl	8000744 <HAL_GetTick>
 8000764:	60b8      	str	r0, [r7, #8]
  uint32_t wait = Delay;
 8000766:	687b      	ldr	r3, [r7, #4]
 8000768:	60fb      	str	r3, [r7, #12]

  /* Add a freq to guarantee minimum wait */
  if (wait < HAL_MAX_DELAY)
 800076a:	68fb      	ldr	r3, [r7, #12]
 800076c:	f1b3 3fff 	cmp.w	r3, #4294967295
 8000770:	d005      	beq.n	800077e <HAL_Delay+0x26>
  {
    wait += (uint32_t)(uwTickFreq);
 8000772:	4b0a      	ldr	r3, [pc, #40]	; (800079c <HAL_Delay+0x44>)
 8000774:	781b      	ldrb	r3, [r3, #0]
 8000776:	461a      	mov	r2, r3
 8000778:	68fb      	ldr	r3, [r7, #12]
 800077a:	4413      	add	r3, r2
 800077c:	60fb      	str	r3, [r7, #12]
  }

  while ((HAL_GetTick() - tickstart) < wait)
 800077e:	bf00      	nop
 8000780:	f7ff ffe0 	bl	8000744 <HAL_GetTick>
 8000784:	4602      	mov	r2, r0
 8000786:	68bb      	ldr	r3, [r7, #8]
 8000788:	1ad3      	subs	r3, r2, r3
 800078a:	68fa      	ldr	r2, [r7, #12]
 800078c:	429a      	cmp	r2, r3
 800078e:	d8f7      	bhi.n	8000780 <HAL_Delay+0x28>
  {
  }
}
 8000790:	bf00      	nop
 8000792:	bf00      	nop
 8000794:	3710      	adds	r7, #16
 8000796:	46bd      	mov	sp, r7
 8000798:	bd80      	pop	{r7, pc}
 800079a:	bf00      	nop
 800079c:	20000008 	.word	0x20000008

080007a0 <__NVIC_SetPriorityGrouping>:
           In case of a conflict between priority grouping and available
           priority bits (__NVIC_PRIO_BITS), the smallest possible priority group is set.
  \param [in]      PriorityGroup  Priority grouping field.
 */
__STATIC_INLINE void __NVIC_SetPriorityGrouping(uint32_t PriorityGroup)
{
 80007a0:	b480      	push	{r7}
 80007a2:	b085      	sub	sp, #20
 80007a4:	af00      	add	r7, sp, #0
 80007a6:	6078      	str	r0, [r7, #4]
  uint32_t reg_value;
  uint32_t PriorityGroupTmp = (PriorityGroup & (uint32_t)0x07UL);             /* only values 0..7 are used          */
 80007a8:	687b      	ldr	r3, [r7, #4]
 80007aa:	f003 0307 	and.w	r3, r3, #7
 80007ae:	60fb      	str	r3, [r7, #12]

  reg_value  =  SCB->AIRCR;                                                   /* read old register configuration    */
 80007b0:	4b0c      	ldr	r3, [pc, #48]	; (80007e4 <__NVIC_SetPriorityGrouping+0x44>)
 80007b2:	68db      	ldr	r3, [r3, #12]
 80007b4:	60bb      	str	r3, [r7, #8]
  reg_value &= ~((uint32_t)(SCB_AIRCR_VECTKEY_Msk | SCB_AIRCR_PRIGROUP_Msk)); /* clear bits to change               */
 80007b6:	68ba      	ldr	r2, [r7, #8]
 80007b8:	f64f 03ff 	movw	r3, #63743	; 0xf8ff
 80007bc:	4013      	ands	r3, r2
 80007be:	60bb      	str	r3, [r7, #8]
  reg_value  =  (reg_value                                   |
                ((uint32_t)0x5FAUL << SCB_AIRCR_VECTKEY_Pos) |
                (PriorityGroupTmp << SCB_AIRCR_PRIGROUP_Pos) );               /* Insert write key and priority group */
 80007c0:	68fb      	ldr	r3, [r7, #12]
 80007c2:	021a      	lsls	r2, r3, #8
                ((uint32_t)0x5FAUL << SCB_AIRCR_VECTKEY_Pos) |
 80007c4:	68bb      	ldr	r3, [r7, #8]
 80007c6:	4313      	orrs	r3, r2
  reg_value  =  (reg_value                                   |
 80007c8:	f043 63bf 	orr.w	r3, r3, #100139008	; 0x5f80000
 80007cc:	f443 3300 	orr.w	r3, r3, #131072	; 0x20000
 80007d0:	60bb      	str	r3, [r7, #8]
  SCB->AIRCR =  reg_value;
 80007d2:	4a04      	ldr	r2, [pc, #16]	; (80007e4 <__NVIC_SetPriorityGrouping+0x44>)
 80007d4:	68bb      	ldr	r3, [r7, #8]
 80007d6:	60d3      	str	r3, [r2, #12]
}
 80007d8:	bf00      	nop
 80007da:	3714      	adds	r7, #20
 80007dc:	46bd      	mov	sp, r7
 80007de:	bc80      	pop	{r7}
 80007e0:	4770      	bx	lr
 80007e2:	bf00      	nop
 80007e4:	e000ed00 	.word	0xe000ed00

080007e8 <__NVIC_GetPriorityGrouping>:
  \brief   Get Priority Grouping
  \details Reads the priority grouping field from the NVIC Interrupt Controller.
  \return                Priority grouping field (SCB->AIRCR [10:8] PRIGROUP field).
 */
__STATIC_INLINE uint32_t __NVIC_GetPriorityGrouping(void)
{
 80007e8:	b480      	push	{r7}
 80007ea:	af00      	add	r7, sp, #0
  return ((uint32_t)((SCB->AIRCR & SCB_AIRCR_PRIGROUP_Msk) >> SCB_AIRCR_PRIGROUP_Pos));
 80007ec:	4b04      	ldr	r3, [pc, #16]	; (8000800 <__NVIC_GetPriorityGrouping+0x18>)
 80007ee:	68db      	ldr	r3, [r3, #12]
 80007f0:	0a1b      	lsrs	r3, r3, #8
 80007f2:	f003 0307 	and.w	r3, r3, #7
}
 80007f6:	4618      	mov	r0, r3
 80007f8:	46bd      	mov	sp, r7
 80007fa:	bc80      	pop	{r7}
 80007fc:	4770      	bx	lr
 80007fe:	bf00      	nop
 8000800:	e000ed00 	.word	0xe000ed00

08000804 <__NVIC_SetPriority>:
  \param [in]      IRQn  Interrupt number.
  \param [in]  priority  Priority to set.
  \note    The priority cannot be set for every processor exception.
 */
__STATIC_INLINE void __NVIC_SetPriority(IRQn_Type IRQn, uint32_t priority)
{
 8000804:	b480      	push	{r7}
 8000806:	b083      	sub	sp, #12
 8000808:	af00      	add	r7, sp, #0
 800080a:	4603      	mov	r3, r0
 800080c:	6039      	str	r1, [r7, #0]
 800080e:	71fb      	strb	r3, [r7, #7]
  if ((int32_t)(IRQn) >= 0)
 8000810:	f997 3007 	ldrsb.w	r3, [r7, #7]
 8000814:	2b00      	cmp	r3, #0
 8000816:	db0a      	blt.n	800082e <__NVIC_SetPriority+0x2a>
  {
    NVIC->IP[((uint32_t)IRQn)]               = (uint8_t)((priority << (8U - __NVIC_PRIO_BITS)) & (uint32_t)0xFFUL);
 8000818:	683b      	ldr	r3, [r7, #0]
 800081a:	b2da      	uxtb	r2, r3
 800081c:	490c      	ldr	r1, [pc, #48]	; (8000850 <__NVIC_SetPriority+0x4c>)
 800081e:	f997 3007 	ldrsb.w	r3, [r7, #7]
 8000822:	0112      	lsls	r2, r2, #4
 8000824:	b2d2      	uxtb	r2, r2
 8000826:	440b      	add	r3, r1
 8000828:	f883 2300 	strb.w	r2, [r3, #768]	; 0x300
  }
  else
  {
    SCB->SHP[(((uint32_t)IRQn) & 0xFUL)-4UL] = (uint8_t)((priority << (8U - __NVIC_PRIO_BITS)) & (uint32_t)0xFFUL);
  }
}
 800082c:	e00a      	b.n	8000844 <__NVIC_SetPriority+0x40>
    SCB->SHP[(((uint32_t)IRQn) & 0xFUL)-4UL] = (uint8_t)((priority << (8U - __NVIC_PRIO_BITS)) & (uint32_t)0xFFUL);
 800082e:	683b      	ldr	r3, [r7, #0]
 8000830:	b2da      	uxtb	r2, r3
 8000832:	4908      	ldr	r1, [pc, #32]	; (8000854 <__NVIC_SetPriority+0x50>)
 8000834:	79fb      	ldrb	r3, [r7, #7]
 8000836:	f003 030f 	and.w	r3, r3, #15
 800083a:	3b04      	subs	r3, #4
 800083c:	0112      	lsls	r2, r2, #4
 800083e:	b2d2      	uxtb	r2, r2
 8000840:	440b      	add	r3, r1
 8000842:	761a      	strb	r2, [r3, #24]
}
 8000844:	bf00      	nop
 8000846:	370c      	adds	r7, #12
 8000848:	46bd      	mov	sp, r7
 800084a:	bc80      	pop	{r7}
 800084c:	4770      	bx	lr
 800084e:	bf00      	nop
 8000850:	e000e100 	.word	0xe000e100
 8000854:	e000ed00 	.word	0xe000ed00

08000858 <NVIC_EncodePriority>:
  \param [in]   PreemptPriority  Preemptive priority value (starting from 0).
  \param [in]       SubPriority  Subpriority value (starting from 0).
  \return                        Encoded priority. Value can be used in the function \ref NVIC_SetPriority().
 */
__STATIC_INLINE uint32_t NVIC_EncodePriority (uint32_t PriorityGroup, uint32_t PreemptPriority, uint32_t SubPriority)
{
 8000858:	b480      	push	{r7}
 800085a:	b089      	sub	sp, #36	; 0x24
 800085c:	af00      	add	r7, sp, #0
 800085e:	60f8      	str	r0, [r7, #12]
 8000860:	60b9      	str	r1, [r7, #8]
 8000862:	607a      	str	r2, [r7, #4]
  uint32_t PriorityGroupTmp = (PriorityGroup & (uint32_t)0x07UL);   /* only values 0..7 are used          */
 8000864:	68fb      	ldr	r3, [r7, #12]
 8000866:	f003 0307 	and.w	r3, r3, #7
 800086a:	61fb      	str	r3, [r7, #28]
  uint32_t PreemptPriorityBits;
  uint32_t SubPriorityBits;

  PreemptPriorityBits = ((7UL - PriorityGroupTmp) > (uint32_t)(__NVIC_PRIO_BITS)) ? (uint32_t)(__NVIC_PRIO_BITS) : (uint32_t)(7UL - PriorityGroupTmp);
 800086c:	69fb      	ldr	r3, [r7, #28]
 800086e:	f1c3 0307 	rsb	r3, r3, #7
 8000872:	2b04      	cmp	r3, #4
 8000874:	bf28      	it	cs
 8000876:	2304      	movcs	r3, #4
 8000878:	61bb      	str	r3, [r7, #24]
  SubPriorityBits     = ((PriorityGroupTmp + (uint32_t)(__NVIC_PRIO_BITS)) < (uint32_t)7UL) ? (uint32_t)0UL : (uint32_t)((PriorityGroupTmp - 7UL) + (uint32_t)(__NVIC_PRIO_BITS));
 800087a:	69fb      	ldr	r3, [r7, #28]
 800087c:	3304      	adds	r3, #4
 800087e:	2b06      	cmp	r3, #6
 8000880:	d902      	bls.n	8000888 <NVIC_EncodePriority+0x30>
 8000882:	69fb      	ldr	r3, [r7, #28]
 8000884:	3b03      	subs	r3, #3
 8000886:	e000      	b.n	800088a <NVIC_EncodePriority+0x32>
 8000888:	2300      	movs	r3, #0
 800088a:	617b      	str	r3, [r7, #20]

  return (
           ((PreemptPriority & (uint32_t)((1UL << (PreemptPriorityBits)) - 1UL)) << SubPriorityBits) |
 800088c:	f04f 32ff 	mov.w	r2, #4294967295
 8000890:	69bb      	ldr	r3, [r7, #24]
 8000892:	fa02 f303 	lsl.w	r3, r2, r3
 8000896:	43da      	mvns	r2, r3
 8000898:	68bb      	ldr	r3, [r7, #8]
 800089a:	401a      	ands	r2, r3
 800089c:	697b      	ldr	r3, [r7, #20]
 800089e:	409a      	lsls	r2, r3
           ((SubPriority     & (uint32_t)((1UL << (SubPriorityBits    )) - 1UL)))
 80008a0:	f04f 31ff 	mov.w	r1, #4294967295
 80008a4:	697b      	ldr	r3, [r7, #20]
 80008a6:	fa01 f303 	lsl.w	r3, r1, r3
 80008aa:	43d9      	mvns	r1, r3
 80008ac:	687b      	ldr	r3, [r7, #4]
 80008ae:	400b      	ands	r3, r1
           ((PreemptPriority & (uint32_t)((1UL << (PreemptPriorityBits)) - 1UL)) << SubPriorityBits) |
 80008b0:	4313      	orrs	r3, r2
         );
}
 80008b2:	4618      	mov	r0, r3
 80008b4:	3724      	adds	r7, #36	; 0x24
 80008b6:	46bd      	mov	sp, r7
 80008b8:	bc80      	pop	{r7}
 80008ba:	4770      	bx	lr

080008bc <SysTick_Config>:
  \note    When the variable <b>__Vendor_SysTickConfig</b> is set to 1, then the
           function <b>SysTick_Config</b> is not included. In this case, the file <b><i>device</i>.h</b>
           must contain a vendor-specific implementation of this function.
 */
__STATIC_INLINE uint32_t SysTick_Config(uint32_t ticks)
{
 80008bc:	b580      	push	{r7, lr}
 80008be:	b082      	sub	sp, #8
 80008c0:	af00      	add	r7, sp, #0
 80008c2:	6078      	str	r0, [r7, #4]
  if ((ticks - 1UL) > SysTick_LOAD_RELOAD_Msk)
 80008c4:	687b      	ldr	r3, [r7, #4]
 80008c6:	3b01      	subs	r3, #1
 80008c8:	f1b3 7f80 	cmp.w	r3, #16777216	; 0x1000000
 80008cc:	d301      	bcc.n	80008d2 <SysTick_Config+0x16>
  {
    return (1UL);                                                   /* Reload value impossible */
 80008ce:	2301      	movs	r3, #1
 80008d0:	e00f      	b.n	80008f2 <SysTick_Config+0x36>
  }

  SysTick->LOAD  = (uint32_t)(ticks - 1UL);                         /* set reload register */
 80008d2:	4a0a      	ldr	r2, [pc, #40]	; (80008fc <SysTick_Config+0x40>)
 80008d4:	687b      	ldr	r3, [r7, #4]
 80008d6:	3b01      	subs	r3, #1
 80008d8:	6053      	str	r3, [r2, #4]
  NVIC_SetPriority (SysTick_IRQn, (1UL << __NVIC_PRIO_BITS) - 1UL); /* set Priority for Systick Interrupt */
 80008da:	210f      	movs	r1, #15
 80008dc:	f04f 30ff 	mov.w	r0, #4294967295
 80008e0:	f7ff ff90 	bl	8000804 <__NVIC_SetPriority>
  SysTick->VAL   = 0UL;                                             /* Load the SysTick Counter Value */
 80008e4:	4b05      	ldr	r3, [pc, #20]	; (80008fc <SysTick_Config+0x40>)
 80008e6:	2200      	movs	r2, #0
 80008e8:	609a      	str	r2, [r3, #8]
  SysTick->CTRL  = SysTick_CTRL_CLKSOURCE_Msk |
 80008ea:	4b04      	ldr	r3, [pc, #16]	; (80008fc <SysTick_Config+0x40>)
 80008ec:	2207      	movs	r2, #7
 80008ee:	601a      	str	r2, [r3, #0]
                   SysTick_CTRL_TICKINT_Msk   |
                   SysTick_CTRL_ENABLE_Msk;                         /* Enable SysTick IRQ and SysTick Timer */
  return (0UL);                                                     /* Function successful */
 80008f0:	2300      	movs	r3, #0
}
 80008f2:	4618      	mov	r0, r3
 80008f4:	3708      	adds	r7, #8
 80008f6:	46bd      	mov	sp, r7
 80008f8:	bd80      	pop	{r7, pc}
 80008fa:	bf00      	nop
 80008fc:	e000e010 	.word	0xe000e010

08000900 <HAL_NVIC_SetPriorityGrouping>:
  * @note   When the NVIC_PriorityGroup_0 is selected, IRQ preemption is no more possible. 
  *         The pending IRQ priority will be managed only by the subpriority. 
  * @retval None
  */
void HAL_NVIC_SetPriorityGrouping(uint32_t PriorityGroup)
{
 8000900:	b580      	push	{r7, lr}
 8000902:	b082      	sub	sp, #8
 8000904:	af00      	add	r7, sp, #0
 8000906:	6078      	str	r0, [r7, #4]
  /* Check the parameters */
  assert_param(IS_NVIC_PRIORITY_GROUP(PriorityGroup));
  
  /* Set the PRIGROUP[10:8] bits according to the PriorityGroup parameter value */
  NVIC_SetPriorityGrouping(PriorityGroup);
 8000908:	6878      	ldr	r0, [r7, #4]
 800090a:	f7ff ff49 	bl	80007a0 <__NVIC_SetPriorityGrouping>
}
 800090e:	bf00      	nop
 8000910:	3708      	adds	r7, #8
 8000912:	46bd      	mov	sp, r7
 8000914:	bd80      	pop	{r7, pc}

08000916 <HAL_NVIC_SetPriority>:
  *         This parameter can be a value between 0 and 15
  *         A lower priority value indicates a higher priority.          
  * @retval None
  */
void HAL_NVIC_SetPriority(IRQn_Type IRQn, uint32_t PreemptPriority, uint32_t SubPriority)
{ 
 8000916:	b580      	push	{r7, lr}
 8000918:	b086      	sub	sp, #24
 800091a:	af00      	add	r7, sp, #0
 800091c:	4603      	mov	r3, r0
 800091e:	60b9      	str	r1, [r7, #8]
 8000920:	607a      	str	r2, [r7, #4]
 8000922:	73fb      	strb	r3, [r7, #15]
  uint32_t prioritygroup = 0x00U;
 8000924:	2300      	movs	r3, #0
 8000926:	617b      	str	r3, [r7, #20]
  
  /* Check the parameters */
  assert_param(IS_NVIC_SUB_PRIORITY(SubPriority));
  assert_param(IS_NVIC_PREEMPTION_PRIORITY(PreemptPriority));
  
  prioritygroup = NVIC_GetPriorityGrouping();
 8000928:	f7ff ff5e 	bl	80007e8 <__NVIC_GetPriorityGrouping>
 800092c:	6178      	str	r0, [r7, #20]
  
  NVIC_SetPriority(IRQn, NVIC_EncodePriority(prioritygroup, PreemptPriority, SubPriority));
 800092e:	687a      	ldr	r2, [r7, #4]
 8000930:	68b9      	ldr	r1, [r7, #8]
 8000932:	6978      	ldr	r0, [r7, #20]
 8000934:	f7ff ff90 	bl	8000858 <NVIC_EncodePriority>
 8000938:	4602      	mov	r2, r0
 800093a:	f997 300f 	ldrsb.w	r3, [r7, #15]
 800093e:	4611      	mov	r1, r2
 8000940:	4618      	mov	r0, r3
 8000942:	f7ff ff5f 	bl	8000804 <__NVIC_SetPriority>
}
 8000946:	bf00      	nop
 8000948:	3718      	adds	r7, #24
 800094a:	46bd      	mov	sp, r7
 800094c:	bd80      	pop	{r7, pc}

0800094e <HAL_SYSTICK_Config>:
  * @param  TicksNumb: Specifies the ticks Number of ticks between two interrupts.
  * @retval status:  - 0  Function succeeded.
  *                  - 1  Function failed.
  */
uint32_t HAL_SYSTICK_Config(uint32_t TicksNumb)
{
 800094e:	b580      	push	{r7, lr}
 8000950:	b082      	sub	sp, #8
 8000952:	af00      	add	r7, sp, #0
 8000954:	6078      	str	r0, [r7, #4]
   return SysTick_Config(TicksNumb);
 8000956:	6878      	ldr	r0, [r7, #4]
 8000958:	f7ff ffb0 	bl	80008bc <SysTick_Config>
 800095c:	4603      	mov	r3, r0
}
 800095e:	4618      	mov	r0, r3
 8000960:	3708      	adds	r7, #8
 8000962:	46bd      	mov	sp, r7
 8000964:	bd80      	pop	{r7, pc}
	...

08000968 <HAL_GPIO_Init>:
  * @param  GPIO_Init: pointer to a GPIO_InitTypeDef structure that contains
  *         the configuration information for the specified GPIO peripheral.
  * @retval None
  */
void HAL_GPIO_Init(GPIO_TypeDef  *GPIOx, GPIO_InitTypeDef *GPIO_Init)
{
 8000968:	b480      	push	{r7}
 800096a:	b08b      	sub	sp, #44	; 0x2c
 800096c:	af00      	add	r7, sp, #0
 800096e:	6078      	str	r0, [r7, #4]
 8000970:	6039      	str	r1, [r7, #0]
  uint32_t position = 0x00u;
 8000972:	2300      	movs	r3, #0
 8000974:	627b      	str	r3, [r7, #36]	; 0x24
  uint32_t ioposition;
  uint32_t iocurrent;
  uint32_t temp;
  uint32_t config = 0x00u;
 8000976:	2300      	movs	r3, #0
 8000978:	623b      	str	r3, [r7, #32]
  assert_param(IS_GPIO_ALL_INSTANCE(GPIOx));
  assert_param(IS_GPIO_PIN(GPIO_Init->Pin));
  assert_param(IS_GPIO_MODE(GPIO_Init->Mode));

  /* Configure the port pins */
  while (((GPIO_Init->Pin) >> position) != 0x00u)
 800097a:	e161      	b.n	8000c40 <HAL_GPIO_Init+0x2d8>
  {
    /* Get the IO position */
    ioposition = (0x01uL << position);
 800097c:	2201      	movs	r2, #1
 800097e:	6a7b      	ldr	r3, [r7, #36]	; 0x24
 8000980:	fa02 f303 	lsl.w	r3, r2, r3
 8000984:	61fb      	str	r3, [r7, #28]

    /* Get the current IO position */
    iocurrent = (uint32_t)(GPIO_Init->Pin) & ioposition;
 8000986:	683b      	ldr	r3, [r7, #0]
 8000988:	681b      	ldr	r3, [r3, #0]
 800098a:	69fa      	ldr	r2, [r7, #28]
 800098c:	4013      	ands	r3, r2
 800098e:	61bb      	str	r3, [r7, #24]

    if (iocurrent == ioposition)
 8000990:	69ba      	ldr	r2, [r7, #24]
 8000992:	69fb      	ldr	r3, [r7, #28]
 8000994:	429a      	cmp	r2, r3
 8000996:	f040 8150 	bne.w	8000c3a <HAL_GPIO_Init+0x2d2>
    {
      /* Check the Alternate function parameters */
      assert_param(IS_GPIO_AF_INSTANCE(GPIOx));

      /* Based on the required mode, filling config variable with MODEy[1:0] and CNFy[3:2] corresponding bits */
      switch (GPIO_Init->Mode)
 800099a:	683b      	ldr	r3, [r7, #0]
 800099c:	685b      	ldr	r3, [r3, #4]
 800099e:	4a97      	ldr	r2, [pc, #604]	; (8000bfc <HAL_GPIO_Init+0x294>)
 80009a0:	4293      	cmp	r3, r2
 80009a2:	d05e      	beq.n	8000a62 <HAL_GPIO_Init+0xfa>
 80009a4:	4a95      	ldr	r2, [pc, #596]	; (8000bfc <HAL_GPIO_Init+0x294>)
 80009a6:	4293      	cmp	r3, r2
 80009a8:	d875      	bhi.n	8000a96 <HAL_GPIO_Init+0x12e>
 80009aa:	4a95      	ldr	r2, [pc, #596]	; (8000c00 <HAL_GPIO_Init+0x298>)
 80009ac:	4293      	cmp	r3, r2
 80009ae:	d058      	beq.n	8000a62 <HAL_GPIO_Init+0xfa>
 80009b0:	4a93      	ldr	r2, [pc, #588]	; (8000c00 <HAL_GPIO_Init+0x298>)
 80009b2:	4293      	cmp	r3, r2
 80009b4:	d86f      	bhi.n	8000a96 <HAL_GPIO_Init+0x12e>
 80009b6:	4a93      	ldr	r2, [pc, #588]	; (8000c04 <HAL_GPIO_Init+0x29c>)
 80009b8:	4293      	cmp	r3, r2
 80009ba:	d052      	beq.n	8000a62 <HAL_GPIO_Init+0xfa>
 80009bc:	4a91      	ldr	r2, [pc, #580]	; (8000c04 <HAL_GPIO_Init+0x29c>)
 80009be:	4293      	cmp	r3, r2
 80009c0:	d869      	bhi.n	8000a96 <HAL_GPIO_Init+0x12e>
 80009c2:	4a91      	ldr	r2, [pc, #580]	; (8000c08 <HAL_GPIO_Init+0x2a0>)
 80009c4:	4293      	cmp	r3, r2
 80009c6:	d04c      	beq.n	8000a62 <HAL_GPIO_Init+0xfa>
 80009c8:	4a8f      	ldr	r2, [pc, #572]	; (8000c08 <HAL_GPIO_Init+0x2a0>)
 80009ca:	4293      	cmp	r3, r2
 80009cc:	d863      	bhi.n	8000a96 <HAL_GPIO_Init+0x12e>
 80009ce:	4a8f      	ldr	r2, [pc, #572]	; (8000c0c <HAL_GPIO_Init+0x2a4>)
 80009d0:	4293      	cmp	r3, r2
 80009d2:	d046      	beq.n	8000a62 <HAL_GPIO_Init+0xfa>
 80009d4:	4a8d      	ldr	r2, [pc, #564]	; (8000c0c <HAL_GPIO_Init+0x2a4>)
 80009d6:	4293      	cmp	r3, r2
 80009d8:	d85d      	bhi.n	8000a96 <HAL_GPIO_Init+0x12e>
 80009da:	2b12      	cmp	r3, #18
 80009dc:	d82a      	bhi.n	8000a34 <HAL_GPIO_Init+0xcc>
 80009de:	2b12      	cmp	r3, #18
 80009e0:	d859      	bhi.n	8000a96 <HAL_GPIO_Init+0x12e>
 80009e2:	a201      	add	r2, pc, #4	; (adr r2, 80009e8 <HAL_GPIO_Init+0x80>)
 80009e4:	f852 f023 	ldr.w	pc, [r2, r3, lsl #2]
 80009e8:	08000a63 	.word	0x08000a63
 80009ec:	08000a3d 	.word	0x08000a3d
 80009f0:	08000a4f 	.word	0x08000a4f
 80009f4:	08000a91 	.word	0x08000a91
 80009f8:	08000a97 	.word	0x08000a97
 80009fc:	08000a97 	.word	0x08000a97
 8000a00:	08000a97 	.word	0x08000a97
 8000a04:	08000a97 	.word	0x08000a97
 8000a08:	08000a97 	.word	0x08000a97
 8000a0c:	08000a97 	.word	0x08000a97
 8000a10:	08000a97 	.word	0x08000a97
 8000a14:	08000a97 	.word	0x08000a97
 8000a18:	08000a97 	.word	0x08000a97
 8000a1c:	08000a97 	.word	0x08000a97
 8000a20:	08000a97 	.word	0x08000a97
 8000a24:	08000a97 	.word	0x08000a97
 8000a28:	08000a97 	.word	0x08000a97
 8000a2c:	08000a45 	.word	0x08000a45
 8000a30:	08000a59 	.word	0x08000a59
 8000a34:	4a76      	ldr	r2, [pc, #472]	; (8000c10 <HAL_GPIO_Init+0x2a8>)
 8000a36:	4293      	cmp	r3, r2
 8000a38:	d013      	beq.n	8000a62 <HAL_GPIO_Init+0xfa>
          config = GPIO_CR_MODE_INPUT + GPIO_CR_CNF_ANALOG;
          break;

        /* Parameters are checked with assert_param */
        default:
          break;
 8000a3a:	e02c      	b.n	8000a96 <HAL_GPIO_Init+0x12e>
          config = GPIO_Init->Speed + GPIO_CR_CNF_GP_OUTPUT_PP;
 8000a3c:	683b      	ldr	r3, [r7, #0]
 8000a3e:	68db      	ldr	r3, [r3, #12]
 8000a40:	623b      	str	r3, [r7, #32]
          break;
 8000a42:	e029      	b.n	8000a98 <HAL_GPIO_Init+0x130>
          config = GPIO_Init->Speed + GPIO_CR_CNF_GP_OUTPUT_OD;
 8000a44:	683b      	ldr	r3, [r7, #0]
 8000a46:	68db      	ldr	r3, [r3, #12]
 8000a48:	3304      	adds	r3, #4
 8000a4a:	623b      	str	r3, [r7, #32]
          break;
 8000a4c:	e024      	b.n	8000a98 <HAL_GPIO_Init+0x130>
          config = GPIO_Init->Speed + GPIO_CR_CNF_AF_OUTPUT_PP;
 8000a4e:	683b      	ldr	r3, [r7, #0]
 8000a50:	68db      	ldr	r3, [r3, #12]
 8000a52:	3308      	adds	r3, #8
 8000a54:	623b      	str	r3, [r7, #32]
          break;
 8000a56:	e01f      	b.n	8000a98 <HAL_GPIO_Init+0x130>
          config = GPIO_Init->Speed + GPIO_CR_CNF_AF_OUTPUT_OD;
 8000a58:	683b      	ldr	r3, [r7, #0]
 8000a5a:	68db      	ldr	r3, [r3, #12]
 8000a5c:	330c      	adds	r3, #12
 8000a5e:	623b      	str	r3, [r7, #32]
          break;
 8000a60:	e01a      	b.n	8000a98 <HAL_GPIO_Init+0x130>
          if (GPIO_Init->Pull == GPIO_NOPULL)
 8000a62:	683b      	ldr	r3, [r7, #0]
 8000a64:	689b      	ldr	r3, [r3, #8]
 8000a66:	2b00      	cmp	r3, #0
 8000a68:	d102      	bne.n	8000a70 <HAL_GPIO_Init+0x108>
            config = GPIO_CR_MODE_INPUT + GPIO_CR_CNF_INPUT_FLOATING;
 8000a6a:	2304      	movs	r3, #4
 8000a6c:	623b      	str	r3, [r7, #32]
          break;
 8000a6e:	e013      	b.n	8000a98 <HAL_GPIO_Init+0x130>
          else if (GPIO_Init->Pull == GPIO_PULLUP)
 8000a70:	683b      	ldr	r3, [r7, #0]
 8000a72:	689b      	ldr	r3, [r3, #8]
 8000a74:	2b01      	cmp	r3, #1
 8000a76:	d105      	bne.n	8000a84 <HAL_GPIO_Init+0x11c>
            config = GPIO_CR_MODE_INPUT + GPIO_CR_CNF_INPUT_PU_PD;
 8000a78:	2308      	movs	r3, #8
 8000a7a:	623b      	str	r3, [r7, #32]
            GPIOx->BSRR = ioposition;
 8000a7c:	687b      	ldr	r3, [r7, #4]
 8000a7e:	69fa      	ldr	r2, [r7, #28]
 8000a80:	611a      	str	r2, [r3, #16]
          break;
 8000a82:	e009      	b.n	8000a98 <HAL_GPIO_Init+0x130>
            config = GPIO_CR_MODE_INPUT + GPIO_CR_CNF_INPUT_PU_PD;
 8000a84:	2308      	movs	r3, #8
 8000a86:	623b      	str	r3, [r7, #32]
            GPIOx->BRR = ioposition;
 8000a88:	687b      	ldr	r3, [r7, #4]
 8000a8a:	69fa      	ldr	r2, [r7, #28]
 8000a8c:	615a      	str	r2, [r3, #20]
          break;
 8000a8e:	e003      	b.n	8000a98 <HAL_GPIO_Init+0x130>
          config = GPIO_CR_MODE_INPUT + GPIO_CR_CNF_ANALOG;
 8000a90:	2300      	movs	r3, #0
 8000a92:	623b      	str	r3, [r7, #32]
          break;
 8000a94:	e000      	b.n	8000a98 <HAL_GPIO_Init+0x130>
          break;
 8000a96:	bf00      	nop
      }

      /* Check if the current bit belongs to first half or last half of the pin count number
       in order to address CRH or CRL register*/
      configregister = (iocurrent < GPIO_PIN_8) ? &GPIOx->CRL     : &GPIOx->CRH;
 8000a98:	69bb      	ldr	r3, [r7, #24]
 8000a9a:	2bff      	cmp	r3, #255	; 0xff
 8000a9c:	d801      	bhi.n	8000aa2 <HAL_GPIO_Init+0x13a>
 8000a9e:	687b      	ldr	r3, [r7, #4]
 8000aa0:	e001      	b.n	8000aa6 <HAL_GPIO_Init+0x13e>
 8000aa2:	687b      	ldr	r3, [r7, #4]
 8000aa4:	3304      	adds	r3, #4
 8000aa6:	617b      	str	r3, [r7, #20]
      registeroffset = (iocurrent < GPIO_PIN_8) ? (position << 2u) : ((position - 8u) << 2u);
 8000aa8:	69bb      	ldr	r3, [r7, #24]
 8000aaa:	2bff      	cmp	r3, #255	; 0xff
 8000aac:	d802      	bhi.n	8000ab4 <HAL_GPIO_Init+0x14c>
 8000aae:	6a7b      	ldr	r3, [r7, #36]	; 0x24
 8000ab0:	009b      	lsls	r3, r3, #2
 8000ab2:	e002      	b.n	8000aba <HAL_GPIO_Init+0x152>
 8000ab4:	6a7b      	ldr	r3, [r7, #36]	; 0x24
 8000ab6:	3b08      	subs	r3, #8
 8000ab8:	009b      	lsls	r3, r3, #2
 8000aba:	613b      	str	r3, [r7, #16]

      /* Apply the new configuration of the pin to the register */
      MODIFY_REG((*configregister), ((GPIO_CRL_MODE0 | GPIO_CRL_CNF0) << registeroffset), (config << registeroffset));
 8000abc:	697b      	ldr	r3, [r7, #20]
 8000abe:	681a      	ldr	r2, [r3, #0]
 8000ac0:	210f      	movs	r1, #15
 8000ac2:	693b      	ldr	r3, [r7, #16]
 8000ac4:	fa01 f303 	lsl.w	r3, r1, r3
 8000ac8:	43db      	mvns	r3, r3
 8000aca:	401a      	ands	r2, r3
 8000acc:	6a39      	ldr	r1, [r7, #32]
 8000ace:	693b      	ldr	r3, [r7, #16]
 8000ad0:	fa01 f303 	lsl.w	r3, r1, r3
 8000ad4:	431a      	orrs	r2, r3
 8000ad6:	697b      	ldr	r3, [r7, #20]
 8000ad8:	601a      	str	r2, [r3, #0]

      /*--------------------- EXTI Mode Configuration ------------------------*/
      /* Configure the External Interrupt or event for the current IO */
      if ((GPIO_Init->Mode & EXTI_MODE) == EXTI_MODE)
 8000ada:	683b      	ldr	r3, [r7, #0]
 8000adc:	685b      	ldr	r3, [r3, #4]
 8000ade:	f003 5380 	and.w	r3, r3, #268435456	; 0x10000000
 8000ae2:	2b00      	cmp	r3, #0
 8000ae4:	f000 80a9 	beq.w	8000c3a <HAL_GPIO_Init+0x2d2>
      {
        /* Enable AFIO Clock */
        __HAL_RCC_AFIO_CLK_ENABLE();
 8000ae8:	4b4a      	ldr	r3, [pc, #296]	; (8000c14 <HAL_GPIO_Init+0x2ac>)
 8000aea:	699b      	ldr	r3, [r3, #24]
 8000aec:	4a49      	ldr	r2, [pc, #292]	; (8000c14 <HAL_GPIO_Init+0x2ac>)
 8000aee:	f043 0301 	orr.w	r3, r3, #1
 8000af2:	6193      	str	r3, [r2, #24]
 8000af4:	4b47      	ldr	r3, [pc, #284]	; (8000c14 <HAL_GPIO_Init+0x2ac>)
 8000af6:	699b      	ldr	r3, [r3, #24]
 8000af8:	f003 0301 	and.w	r3, r3, #1
 8000afc:	60bb      	str	r3, [r7, #8]
 8000afe:	68bb      	ldr	r3, [r7, #8]
        temp = AFIO->EXTICR[position >> 2u];
 8000b00:	4a45      	ldr	r2, [pc, #276]	; (8000c18 <HAL_GPIO_Init+0x2b0>)
 8000b02:	6a7b      	ldr	r3, [r7, #36]	; 0x24
 8000b04:	089b      	lsrs	r3, r3, #2
 8000b06:	3302      	adds	r3, #2
 8000b08:	f852 3023 	ldr.w	r3, [r2, r3, lsl #2]
 8000b0c:	60fb      	str	r3, [r7, #12]
        CLEAR_BIT(temp, (0x0Fu) << (4u * (position & 0x03u)));
 8000b0e:	6a7b      	ldr	r3, [r7, #36]	; 0x24
 8000b10:	f003 0303 	and.w	r3, r3, #3
 8000b14:	009b      	lsls	r3, r3, #2
 8000b16:	220f      	movs	r2, #15
 8000b18:	fa02 f303 	lsl.w	r3, r2, r3
 8000b1c:	43db      	mvns	r3, r3
 8000b1e:	68fa      	ldr	r2, [r7, #12]
 8000b20:	4013      	ands	r3, r2
 8000b22:	60fb      	str	r3, [r7, #12]
        SET_BIT(temp, (GPIO_GET_INDEX(GPIOx)) << (4u * (position & 0x03u)));
 8000b24:	687b      	ldr	r3, [r7, #4]
 8000b26:	4a3d      	ldr	r2, [pc, #244]	; (8000c1c <HAL_GPIO_Init+0x2b4>)
 8000b28:	4293      	cmp	r3, r2
 8000b2a:	d00d      	beq.n	8000b48 <HAL_GPIO_Init+0x1e0>
 8000b2c:	687b      	ldr	r3, [r7, #4]
 8000b2e:	4a3c      	ldr	r2, [pc, #240]	; (8000c20 <HAL_GPIO_Init+0x2b8>)
 8000b30:	4293      	cmp	r3, r2
 8000b32:	d007      	beq.n	8000b44 <HAL_GPIO_Init+0x1dc>
 8000b34:	687b      	ldr	r3, [r7, #4]
 8000b36:	4a3b      	ldr	r2, [pc, #236]	; (8000c24 <HAL_GPIO_Init+0x2bc>)
 8000b38:	4293      	cmp	r3, r2
 8000b3a:	d101      	bne.n	8000b40 <HAL_GPIO_Init+0x1d8>
 8000b3c:	2302      	movs	r3, #2
 8000b3e:	e004      	b.n	8000b4a <HAL_GPIO_Init+0x1e2>
 8000b40:	2303      	movs	r3, #3
 8000b42:	e002      	b.n	8000b4a <HAL_GPIO_Init+0x1e2>
 8000b44:	2301      	movs	r3, #1
 8000b46:	e000      	b.n	8000b4a <HAL_GPIO_Init+0x1e2>
 8000b48:	2300      	movs	r3, #0
 8000b4a:	6a7a      	ldr	r2, [r7, #36]	; 0x24
 8000b4c:	f002 0203 	and.w	r2, r2, #3
 8000b50:	0092      	lsls	r2, r2, #2
 8000b52:	4093      	lsls	r3, r2
 8000b54:	68fa      	ldr	r2, [r7, #12]
 8000b56:	4313      	orrs	r3, r2
 8000b58:	60fb      	str	r3, [r7, #12]
        AFIO->EXTICR[position >> 2u] = temp;
 8000b5a:	492f      	ldr	r1, [pc, #188]	; (8000c18 <HAL_GPIO_Init+0x2b0>)
 8000b5c:	6a7b      	ldr	r3, [r7, #36]	; 0x24
 8000b5e:	089b      	lsrs	r3, r3, #2
 8000b60:	3302      	adds	r3, #2
 8000b62:	68fa      	ldr	r2, [r7, #12]
 8000b64:	f841 2023 	str.w	r2, [r1, r3, lsl #2]


        /* Configure the interrupt mask */
        if ((GPIO_Init->Mode & GPIO_MODE_IT) == GPIO_MODE_IT)
 8000b68:	683b      	ldr	r3, [r7, #0]
 8000b6a:	685b      	ldr	r3, [r3, #4]
 8000b6c:	f403 3380 	and.w	r3, r3, #65536	; 0x10000
 8000b70:	2b00      	cmp	r3, #0
 8000b72:	d006      	beq.n	8000b82 <HAL_GPIO_Init+0x21a>
        {
          SET_BIT(EXTI->IMR, iocurrent);
 8000b74:	4b2c      	ldr	r3, [pc, #176]	; (8000c28 <HAL_GPIO_Init+0x2c0>)
 8000b76:	681a      	ldr	r2, [r3, #0]
 8000b78:	492b      	ldr	r1, [pc, #172]	; (8000c28 <HAL_GPIO_Init+0x2c0>)
 8000b7a:	69bb      	ldr	r3, [r7, #24]
 8000b7c:	4313      	orrs	r3, r2
 8000b7e:	600b      	str	r3, [r1, #0]
 8000b80:	e006      	b.n	8000b90 <HAL_GPIO_Init+0x228>
        }
        else
        {
          CLEAR_BIT(EXTI->IMR, iocurrent);
 8000b82:	4b29      	ldr	r3, [pc, #164]	; (8000c28 <HAL_GPIO_Init+0x2c0>)
 8000b84:	681a      	ldr	r2, [r3, #0]
 8000b86:	69bb      	ldr	r3, [r7, #24]
 8000b88:	43db      	mvns	r3, r3
 8000b8a:	4927      	ldr	r1, [pc, #156]	; (8000c28 <HAL_GPIO_Init+0x2c0>)
 8000b8c:	4013      	ands	r3, r2
 8000b8e:	600b      	str	r3, [r1, #0]
        }

        /* Configure the event mask */
        if ((GPIO_Init->Mode & GPIO_MODE_EVT) == GPIO_MODE_EVT)
 8000b90:	683b      	ldr	r3, [r7, #0]
 8000b92:	685b      	ldr	r3, [r3, #4]
 8000b94:	f403 3300 	and.w	r3, r3, #131072	; 0x20000
 8000b98:	2b00      	cmp	r3, #0
 8000b9a:	d006      	beq.n	8000baa <HAL_GPIO_Init+0x242>
        {
          SET_BIT(EXTI->EMR, iocurrent);
 8000b9c:	4b22      	ldr	r3, [pc, #136]	; (8000c28 <HAL_GPIO_Init+0x2c0>)
 8000b9e:	685a      	ldr	r2, [r3, #4]
 8000ba0:	4921      	ldr	r1, [pc, #132]	; (8000c28 <HAL_GPIO_Init+0x2c0>)
 8000ba2:	69bb      	ldr	r3, [r7, #24]
 8000ba4:	4313      	orrs	r3, r2
 8000ba6:	604b      	str	r3, [r1, #4]
 8000ba8:	e006      	b.n	8000bb8 <HAL_GPIO_Init+0x250>
        }
        else
        {
          CLEAR_BIT(EXTI->EMR, iocurrent);
 8000baa:	4b1f      	ldr	r3, [pc, #124]	; (8000c28 <HAL_GPIO_Init+0x2c0>)
 8000bac:	685a      	ldr	r2, [r3, #4]
 8000bae:	69bb      	ldr	r3, [r7, #24]
 8000bb0:	43db      	mvns	r3, r3
 8000bb2:	491d      	ldr	r1, [pc, #116]	; (8000c28 <HAL_GPIO_Init+0x2c0>)
 8000bb4:	4013      	ands	r3, r2
 8000bb6:	604b      	str	r3, [r1, #4]
        }

        /* Enable or disable the rising trigger */
        if ((GPIO_Init->Mode & RISING_EDGE) == RISING_EDGE)
 8000bb8:	683b      	ldr	r3, [r7, #0]
 8000bba:	685b      	ldr	r3, [r3, #4]
 8000bbc:	f403 1380 	and.w	r3, r3, #1048576	; 0x100000
 8000bc0:	2b00      	cmp	r3, #0
 8000bc2:	d006      	beq.n	8000bd2 <HAL_GPIO_Init+0x26a>
        {
          SET_BIT(EXTI->RTSR, iocurrent);
 8000bc4:	4b18      	ldr	r3, [pc, #96]	; (8000c28 <HAL_GPIO_Init+0x2c0>)
 8000bc6:	689a      	ldr	r2, [r3, #8]
 8000bc8:	4917      	ldr	r1, [pc, #92]	; (8000c28 <HAL_GPIO_Init+0x2c0>)
 8000bca:	69bb      	ldr	r3, [r7, #24]
 8000bcc:	4313      	orrs	r3, r2
 8000bce:	608b      	str	r3, [r1, #8]
 8000bd0:	e006      	b.n	8000be0 <HAL_GPIO_Init+0x278>
        }
        else
        {
          CLEAR_BIT(EXTI->RTSR, iocurrent);
 8000bd2:	4b15      	ldr	r3, [pc, #84]	; (8000c28 <HAL_GPIO_Init+0x2c0>)
 8000bd4:	689a      	ldr	r2, [r3, #8]
 8000bd6:	69bb      	ldr	r3, [r7, #24]
 8000bd8:	43db      	mvns	r3, r3
 8000bda:	4913      	ldr	r1, [pc, #76]	; (8000c28 <HAL_GPIO_Init+0x2c0>)
 8000bdc:	4013      	ands	r3, r2
 8000bde:	608b      	str	r3, [r1, #8]
        }

        /* Enable or disable the falling trigger */
        if ((GPIO_Init->Mode & FALLING_EDGE) == FALLING_EDGE)
 8000be0:	683b      	ldr	r3, [r7, #0]
 8000be2:	685b      	ldr	r3, [r3, #4]
 8000be4:	f403 1300 	and.w	r3, r3, #2097152	; 0x200000
 8000be8:	2b00      	cmp	r3, #0
 8000bea:	d01f      	beq.n	8000c2c <HAL_GPIO_Init+0x2c4>
        {
          SET_BIT(EXTI->FTSR, iocurrent);
 8000bec:	4b0e      	ldr	r3, [pc, #56]	; (8000c28 <HAL_GPIO_Init+0x2c0>)
 8000bee:	68da      	ldr	r2, [r3, #12]
 8000bf0:	490d      	ldr	r1, [pc, #52]	; (8000c28 <HAL_GPIO_Init+0x2c0>)
 8000bf2:	69bb      	ldr	r3, [r7, #24]
 8000bf4:	4313      	orrs	r3, r2
 8000bf6:	60cb      	str	r3, [r1, #12]
 8000bf8:	e01f      	b.n	8000c3a <HAL_GPIO_Init+0x2d2>
 8000bfa:	bf00      	nop
 8000bfc:	10320000 	.word	0x10320000
 8000c00:	10310000 	.word	0x10310000
 8000c04:	10220000 	.word	0x10220000
 8000c08:	10210000 	.word	0x10210000
 8000c0c:	10120000 	.word	0x10120000
 8000c10:	10110000 	.word	0x10110000
 8000c14:	40021000 	.word	0x40021000
 8000c18:	40010000 	.word	0x40010000
 8000c1c:	40010800 	.word	0x40010800
 8000c20:	40010c00 	.word	0x40010c00
 8000c24:	40011000 	.word	0x40011000
 8000c28:	40010400 	.word	0x40010400
        }
        else
        {
          CLEAR_BIT(EXTI->FTSR, iocurrent);
 8000c2c:	4b0b      	ldr	r3, [pc, #44]	; (8000c5c <HAL_GPIO_Init+0x2f4>)
 8000c2e:	68da      	ldr	r2, [r3, #12]
 8000c30:	69bb      	ldr	r3, [r7, #24]
 8000c32:	43db      	mvns	r3, r3
 8000c34:	4909      	ldr	r1, [pc, #36]	; (8000c5c <HAL_GPIO_Init+0x2f4>)
 8000c36:	4013      	ands	r3, r2
 8000c38:	60cb      	str	r3, [r1, #12]
        }
      }
    }

	position++;
 8000c3a:	6a7b      	ldr	r3, [r7, #36]	; 0x24
 8000c3c:	3301      	adds	r3, #1
 8000c3e:	627b      	str	r3, [r7, #36]	; 0x24
  while (((GPIO_Init->Pin) >> position) != 0x00u)
 8000c40:	683b      	ldr	r3, [r7, #0]
 8000c42:	681a      	ldr	r2, [r3, #0]
 8000c44:	6a7b      	ldr	r3, [r7, #36]	; 0x24
 8000c46:	fa22 f303 	lsr.w	r3, r2, r3
 8000c4a:	2b00      	cmp	r3, #0
 8000c4c:	f47f ae96 	bne.w	800097c <HAL_GPIO_Init+0x14>
  }
}
 8000c50:	bf00      	nop
 8000c52:	bf00      	nop
 8000c54:	372c      	adds	r7, #44	; 0x2c
 8000c56:	46bd      	mov	sp, r7
 8000c58:	bc80      	pop	{r7}
 8000c5a:	4770      	bx	lr
 8000c5c:	40010400 	.word	0x40010400

08000c60 <HAL_GPIO_WritePin>:
  *            @arg GPIO_PIN_RESET: to clear the port pin
  *            @arg GPIO_PIN_SET: to set the port pin
  * @retval None
  */
void HAL_GPIO_WritePin(GPIO_TypeDef *GPIOx, uint16_t GPIO_Pin, GPIO_PinState PinState)
{
 8000c60:	b480      	push	{r7}
 8000c62:	b083      	sub	sp, #12
 8000c64:	af00      	add	r7, sp, #0
 8000c66:	6078      	str	r0, [r7, #4]
 8000c68:	460b      	mov	r3, r1
 8000c6a:	807b      	strh	r3, [r7, #2]
 8000c6c:	4613      	mov	r3, r2
 8000c6e:	707b      	strb	r3, [r7, #1]
  /* Check the parameters */
  assert_param(IS_GPIO_PIN(GPIO_Pin));
  assert_param(IS_GPIO_PIN_ACTION(PinState));

  if (PinState != GPIO_PIN_RESET)
 8000c70:	787b      	ldrb	r3, [r7, #1]
 8000c72:	2b00      	cmp	r3, #0
 8000c74:	d003      	beq.n	8000c7e <HAL_GPIO_WritePin+0x1e>
  {
    GPIOx->BSRR = GPIO_Pin;
 8000c76:	887a      	ldrh	r2, [r7, #2]
 8000c78:	687b      	ldr	r3, [r7, #4]
 8000c7a:	611a      	str	r2, [r3, #16]
  }
  else
  {
    GPIOx->BSRR = (uint32_t)GPIO_Pin << 16u;
  }
}
 8000c7c:	e003      	b.n	8000c86 <HAL_GPIO_WritePin+0x26>
    GPIOx->BSRR = (uint32_t)GPIO_Pin << 16u;
 8000c7e:	887b      	ldrh	r3, [r7, #2]
 8000c80:	041a      	lsls	r2, r3, #16
 8000c82:	687b      	ldr	r3, [r7, #4]
 8000c84:	611a      	str	r2, [r3, #16]
}
 8000c86:	bf00      	nop
 8000c88:	370c      	adds	r7, #12
 8000c8a:	46bd      	mov	sp, r7
 8000c8c:	bc80      	pop	{r7}
 8000c8e:	4770      	bx	lr

08000c90 <HAL_RCC_OscConfig>:
  *         supported by this macro. User should request a transition to HSE Off
  *         first and then HSE On or HSE Bypass.
  * @retval HAL status
  */
HAL_StatusTypeDef HAL_RCC_OscConfig(RCC_OscInitTypeDef  *RCC_OscInitStruct)
{
 8000c90:	b580      	push	{r7, lr}
 8000c92:	b086      	sub	sp, #24
 8000c94:	af00      	add	r7, sp, #0
 8000c96:	6078      	str	r0, [r7, #4]
  uint32_t tickstart;
  uint32_t pll_config;

  /* Check Null pointer */
  if (RCC_OscInitStruct == NULL)
 8000c98:	687b      	ldr	r3, [r7, #4]
 8000c9a:	2b00      	cmp	r3, #0
 8000c9c:	d101      	bne.n	8000ca2 <HAL_RCC_OscConfig+0x12>
  {
    return HAL_ERROR;
 8000c9e:	2301      	movs	r3, #1
 8000ca0:	e272      	b.n	8001188 <HAL_RCC_OscConfig+0x4f8>

  /* Check the parameters */
  assert_param(IS_RCC_OSCILLATORTYPE(RCC_OscInitStruct->OscillatorType));

  /*------------------------------- HSE Configuration ------------------------*/
  if (((RCC_OscInitStruct->OscillatorType) & RCC_OSCILLATORTYPE_HSE) == RCC_OSCILLATORTYPE_HSE)
 8000ca2:	687b      	ldr	r3, [r7, #4]
 8000ca4:	681b      	ldr	r3, [r3, #0]
 8000ca6:	f003 0301 	and.w	r3, r3, #1
 8000caa:	2b00      	cmp	r3, #0
 8000cac:	f000 8087 	beq.w	8000dbe <HAL_RCC_OscConfig+0x12e>
  {
    /* Check the parameters */
    assert_param(IS_RCC_HSE(RCC_OscInitStruct->HSEState));

    /* When the HSE is used as system clock or clock source for PLL in these cases it is not allowed to be disabled */
    if ((__HAL_RCC_GET_SYSCLK_SOURCE() == RCC_SYSCLKSOURCE_STATUS_HSE)
 8000cb0:	4b92      	ldr	r3, [pc, #584]	; (8000efc <HAL_RCC_OscConfig+0x26c>)
 8000cb2:	685b      	ldr	r3, [r3, #4]
 8000cb4:	f003 030c 	and.w	r3, r3, #12
 8000cb8:	2b04      	cmp	r3, #4
 8000cba:	d00c      	beq.n	8000cd6 <HAL_RCC_OscConfig+0x46>
        || ((__HAL_RCC_GET_SYSCLK_SOURCE() == RCC_SYSCLKSOURCE_STATUS_PLLCLK) && (__HAL_RCC_GET_PLL_OSCSOURCE() == RCC_PLLSOURCE_HSE)))
 8000cbc:	4b8f      	ldr	r3, [pc, #572]	; (8000efc <HAL_RCC_OscConfig+0x26c>)
 8000cbe:	685b      	ldr	r3, [r3, #4]
 8000cc0:	f003 030c 	and.w	r3, r3, #12
 8000cc4:	2b08      	cmp	r3, #8
 8000cc6:	d112      	bne.n	8000cee <HAL_RCC_OscConfig+0x5e>
 8000cc8:	4b8c      	ldr	r3, [pc, #560]	; (8000efc <HAL_RCC_OscConfig+0x26c>)
 8000cca:	685b      	ldr	r3, [r3, #4]
 8000ccc:	f403 3380 	and.w	r3, r3, #65536	; 0x10000
 8000cd0:	f5b3 3f80 	cmp.w	r3, #65536	; 0x10000
 8000cd4:	d10b      	bne.n	8000cee <HAL_RCC_OscConfig+0x5e>
    {
      if ((__HAL_RCC_GET_FLAG(RCC_FLAG_HSERDY) != RESET) && (RCC_OscInitStruct->HSEState == RCC_HSE_OFF))
 8000cd6:	4b89      	ldr	r3, [pc, #548]	; (8000efc <HAL_RCC_OscConfig+0x26c>)
 8000cd8:	681b      	ldr	r3, [r3, #0]
 8000cda:	f403 3300 	and.w	r3, r3, #131072	; 0x20000
 8000cde:	2b00      	cmp	r3, #0
 8000ce0:	d06c      	beq.n	8000dbc <HAL_RCC_OscConfig+0x12c>
 8000ce2:	687b      	ldr	r3, [r7, #4]
 8000ce4:	685b      	ldr	r3, [r3, #4]
 8000ce6:	2b00      	cmp	r3, #0
 8000ce8:	d168      	bne.n	8000dbc <HAL_RCC_OscConfig+0x12c>
      {
        return HAL_ERROR;
 8000cea:	2301      	movs	r3, #1
 8000cec:	e24c      	b.n	8001188 <HAL_RCC_OscConfig+0x4f8>
      }
    }
    else
    {
      /* Set the new HSE configuration ---------------------------------------*/
      __HAL_RCC_HSE_CONFIG(RCC_OscInitStruct->HSEState);
 8000cee:	687b      	ldr	r3, [r7, #4]
 8000cf0:	685b      	ldr	r3, [r3, #4]
 8000cf2:	f5b3 3f80 	cmp.w	r3, #65536	; 0x10000
 8000cf6:	d106      	bne.n	8000d06 <HAL_RCC_OscConfig+0x76>
 8000cf8:	4b80      	ldr	r3, [pc, #512]	; (8000efc <HAL_RCC_OscConfig+0x26c>)
 8000cfa:	681b      	ldr	r3, [r3, #0]
 8000cfc:	4a7f      	ldr	r2, [pc, #508]	; (8000efc <HAL_RCC_OscConfig+0x26c>)
 8000cfe:	f443 3380 	orr.w	r3, r3, #65536	; 0x10000
 8000d02:	6013      	str	r3, [r2, #0]
 8000d04:	e02e      	b.n	8000d64 <HAL_RCC_OscConfig+0xd4>
 8000d06:	687b      	ldr	r3, [r7, #4]
 8000d08:	685b      	ldr	r3, [r3, #4]
 8000d0a:	2b00      	cmp	r3, #0
 8000d0c:	d10c      	bne.n	8000d28 <HAL_RCC_OscConfig+0x98>
 8000d0e:	4b7b      	ldr	r3, [pc, #492]	; (8000efc <HAL_RCC_OscConfig+0x26c>)
 8000d10:	681b      	ldr	r3, [r3, #0]
 8000d12:	4a7a      	ldr	r2, [pc, #488]	; (8000efc <HAL_RCC_OscConfig+0x26c>)
 8000d14:	f423 3380 	bic.w	r3, r3, #65536	; 0x10000
 8000d18:	6013      	str	r3, [r2, #0]
 8000d1a:	4b78      	ldr	r3, [pc, #480]	; (8000efc <HAL_RCC_OscConfig+0x26c>)
 8000d1c:	681b      	ldr	r3, [r3, #0]
 8000d1e:	4a77      	ldr	r2, [pc, #476]	; (8000efc <HAL_RCC_OscConfig+0x26c>)
 8000d20:	f423 2380 	bic.w	r3, r3, #262144	; 0x40000
 8000d24:	6013      	str	r3, [r2, #0]
 8000d26:	e01d      	b.n	8000d64 <HAL_RCC_OscConfig+0xd4>
 8000d28:	687b      	ldr	r3, [r7, #4]
 8000d2a:	685b      	ldr	r3, [r3, #4]
 8000d2c:	f5b3 2fa0 	cmp.w	r3, #327680	; 0x50000
 8000d30:	d10c      	bne.n	8000d4c <HAL_RCC_OscConfig+0xbc>
 8000d32:	4b72      	ldr	r3, [pc, #456]	; (8000efc <HAL_RCC_OscConfig+0x26c>)
 8000d34:	681b      	ldr	r3, [r3, #0]
 8000d36:	4a71      	ldr	r2, [pc, #452]	; (8000efc <HAL_RCC_OscConfig+0x26c>)
 8000d38:	f443 2380 	orr.w	r3, r3, #262144	; 0x40000
 8000d3c:	6013      	str	r3, [r2, #0]
 8000d3e:	4b6f      	ldr	r3, [pc, #444]	; (8000efc <HAL_RCC_OscConfig+0x26c>)
 8000d40:	681b      	ldr	r3, [r3, #0]
 8000d42:	4a6e      	ldr	r2, [pc, #440]	; (8000efc <HAL_RCC_OscConfig+0x26c>)
 8000d44:	f443 3380 	orr.w	r3, r3, #65536	; 0x10000
 8000d48:	6013      	str	r3, [r2, #0]
 8000d4a:	e00b      	b.n	8000d64 <HAL_RCC_OscConfig+0xd4>
 8000d4c:	4b6b      	ldr	r3, [pc, #428]	; (8000efc <HAL_RCC_OscConfig+0x26c>)
 8000d4e:	681b      	ldr	r3, [r3, #0]
 8000d50:	4a6a      	ldr	r2, [pc, #424]	; (8000efc <HAL_RCC_OscConfig+0x26c>)
 8000d52:	f423 3380 	bic.w	r3, r3, #65536	; 0x10000
 8000d56:	6013      	str	r3, [r2, #0]
 8000d58:	4b68      	ldr	r3, [pc, #416]	; (8000efc <HAL_RCC_OscConfig+0x26c>)
 8000d5a:	681b      	ldr	r3, [r3, #0]
 8000d5c:	4a67      	ldr	r2, [pc, #412]	; (8000efc <HAL_RCC_OscConfig+0x26c>)
 8000d5e:	f423 2380 	bic.w	r3, r3, #262144	; 0x40000
 8000d62:	6013      	str	r3, [r2, #0]


      /* Check the HSE State */
      if (RCC_OscInitStruct->HSEState != RCC_HSE_OFF)
 8000d64:	687b      	ldr	r3, [r7, #4]
 8000d66:	685b      	ldr	r3, [r3, #4]
 8000d68:	2b00      	cmp	r3, #0
 8000d6a:	d013      	beq.n	8000d94 <HAL_RCC_OscConfig+0x104>
      {
        /* Get Start Tick */
        tickstart = HAL_GetTick();
 8000d6c:	f7ff fcea 	bl	8000744 <HAL_GetTick>
 8000d70:	6138      	str	r0, [r7, #16]

        /* Wait till HSE is ready */
        while (__HAL_RCC_GET_FLAG(RCC_FLAG_HSERDY) == RESET)
 8000d72:	e008      	b.n	8000d86 <HAL_RCC_OscConfig+0xf6>
        {
          if ((HAL_GetTick() - tickstart) > HSE_TIMEOUT_VALUE)
 8000d74:	f7ff fce6 	bl	8000744 <HAL_GetTick>
 8000d78:	4602      	mov	r2, r0
 8000d7a:	693b      	ldr	r3, [r7, #16]
 8000d7c:	1ad3      	subs	r3, r2, r3
 8000d7e:	2b64      	cmp	r3, #100	; 0x64
 8000d80:	d901      	bls.n	8000d86 <HAL_RCC_OscConfig+0xf6>
          {
            return HAL_TIMEOUT;
 8000d82:	2303      	movs	r3, #3
 8000d84:	e200      	b.n	8001188 <HAL_RCC_OscConfig+0x4f8>
        while (__HAL_RCC_GET_FLAG(RCC_FLAG_HSERDY) == RESET)
 8000d86:	4b5d      	ldr	r3, [pc, #372]	; (8000efc <HAL_RCC_OscConfig+0x26c>)
 8000d88:	681b      	ldr	r3, [r3, #0]
 8000d8a:	f403 3300 	and.w	r3, r3, #131072	; 0x20000
 8000d8e:	2b00      	cmp	r3, #0
 8000d90:	d0f0      	beq.n	8000d74 <HAL_RCC_OscConfig+0xe4>
 8000d92:	e014      	b.n	8000dbe <HAL_RCC_OscConfig+0x12e>
        }
      }
      else
      {
        /* Get Start Tick */
        tickstart = HAL_GetTick();
 8000d94:	f7ff fcd6 	bl	8000744 <HAL_GetTick>
 8000d98:	6138      	str	r0, [r7, #16]

        /* Wait till HSE is disabled */
        while (__HAL_RCC_GET_FLAG(RCC_FLAG_HSERDY) != RESET)
 8000d9a:	e008      	b.n	8000dae <HAL_RCC_OscConfig+0x11e>
        {
          if ((HAL_GetTick() - tickstart) > HSE_TIMEOUT_VALUE)
 8000d9c:	f7ff fcd2 	bl	8000744 <HAL_GetTick>
 8000da0:	4602      	mov	r2, r0
 8000da2:	693b      	ldr	r3, [r7, #16]
 8000da4:	1ad3      	subs	r3, r2, r3
 8000da6:	2b64      	cmp	r3, #100	; 0x64
 8000da8:	d901      	bls.n	8000dae <HAL_RCC_OscConfig+0x11e>
          {
            return HAL_TIMEOUT;
 8000daa:	2303      	movs	r3, #3
 8000dac:	e1ec      	b.n	8001188 <HAL_RCC_OscConfig+0x4f8>
        while (__HAL_RCC_GET_FLAG(RCC_FLAG_HSERDY) != RESET)
 8000dae:	4b53      	ldr	r3, [pc, #332]	; (8000efc <HAL_RCC_OscConfig+0x26c>)
 8000db0:	681b      	ldr	r3, [r3, #0]
 8000db2:	f403 3300 	and.w	r3, r3, #131072	; 0x20000
 8000db6:	2b00      	cmp	r3, #0
 8000db8:	d1f0      	bne.n	8000d9c <HAL_RCC_OscConfig+0x10c>
 8000dba:	e000      	b.n	8000dbe <HAL_RCC_OscConfig+0x12e>
      if ((__HAL_RCC_GET_FLAG(RCC_FLAG_HSERDY) != RESET) && (RCC_OscInitStruct->HSEState == RCC_HSE_OFF))
 8000dbc:	bf00      	nop
        }
      }
    }
  }
  /*----------------------------- HSI Configuration --------------------------*/
  if (((RCC_OscInitStruct->OscillatorType) & RCC_OSCILLATORTYPE_HSI) == RCC_OSCILLATORTYPE_HSI)
 8000dbe:	687b      	ldr	r3, [r7, #4]
 8000dc0:	681b      	ldr	r3, [r3, #0]
 8000dc2:	f003 0302 	and.w	r3, r3, #2
 8000dc6:	2b00      	cmp	r3, #0
 8000dc8:	d063      	beq.n	8000e92 <HAL_RCC_OscConfig+0x202>
    /* Check the parameters */
    assert_param(IS_RCC_HSI(RCC_OscInitStruct->HSIState));
    assert_param(IS_RCC_CALIBRATION_VALUE(RCC_OscInitStruct->HSICalibrationValue));

    /* Check if HSI is used as system clock or as PLL source when PLL is selected as system clock */
    if ((__HAL_RCC_GET_SYSCLK_SOURCE() == RCC_SYSCLKSOURCE_STATUS_HSI)
 8000dca:	4b4c      	ldr	r3, [pc, #304]	; (8000efc <HAL_RCC_OscConfig+0x26c>)
 8000dcc:	685b      	ldr	r3, [r3, #4]
 8000dce:	f003 030c 	and.w	r3, r3, #12
 8000dd2:	2b00      	cmp	r3, #0
 8000dd4:	d00b      	beq.n	8000dee <HAL_RCC_OscConfig+0x15e>
        || ((__HAL_RCC_GET_SYSCLK_SOURCE() == RCC_SYSCLKSOURCE_STATUS_PLLCLK) && (__HAL_RCC_GET_PLL_OSCSOURCE() == RCC_PLLSOURCE_HSI_DIV2)))
 8000dd6:	4b49      	ldr	r3, [pc, #292]	; (8000efc <HAL_RCC_OscConfig+0x26c>)
 8000dd8:	685b      	ldr	r3, [r3, #4]
 8000dda:	f003 030c 	and.w	r3, r3, #12
 8000dde:	2b08      	cmp	r3, #8
 8000de0:	d11c      	bne.n	8000e1c <HAL_RCC_OscConfig+0x18c>
 8000de2:	4b46      	ldr	r3, [pc, #280]	; (8000efc <HAL_RCC_OscConfig+0x26c>)
 8000de4:	685b      	ldr	r3, [r3, #4]
 8000de6:	f403 3380 	and.w	r3, r3, #65536	; 0x10000
 8000dea:	2b00      	cmp	r3, #0
 8000dec:	d116      	bne.n	8000e1c <HAL_RCC_OscConfig+0x18c>
    {
      /* When HSI is used as system clock it will not disabled */
      if ((__HAL_RCC_GET_FLAG(RCC_FLAG_HSIRDY) != RESET) && (RCC_OscInitStruct->HSIState != RCC_HSI_ON))
 8000dee:	4b43      	ldr	r3, [pc, #268]	; (8000efc <HAL_RCC_OscConfig+0x26c>)
 8000df0:	681b      	ldr	r3, [r3, #0]
 8000df2:	f003 0302 	and.w	r3, r3, #2
 8000df6:	2b00      	cmp	r3, #0
 8000df8:	d005      	beq.n	8000e06 <HAL_RCC_OscConfig+0x176>
 8000dfa:	687b      	ldr	r3, [r7, #4]
 8000dfc:	691b      	ldr	r3, [r3, #16]
 8000dfe:	2b01      	cmp	r3, #1
 8000e00:	d001      	beq.n	8000e06 <HAL_RCC_OscConfig+0x176>
      {
        return HAL_ERROR;
 8000e02:	2301      	movs	r3, #1
 8000e04:	e1c0      	b.n	8001188 <HAL_RCC_OscConfig+0x4f8>
      }
      /* Otherwise, just the calibration is allowed */
      else
      {
        /* Adjusts the Internal High Speed oscillator (HSI) calibration value.*/
        __HAL_RCC_HSI_CALIBRATIONVALUE_ADJUST(RCC_OscInitStruct->HSICalibrationValue);
 8000e06:	4b3d      	ldr	r3, [pc, #244]	; (8000efc <HAL_RCC_OscConfig+0x26c>)
 8000e08:	681b      	ldr	r3, [r3, #0]
 8000e0a:	f023 02f8 	bic.w	r2, r3, #248	; 0xf8
 8000e0e:	687b      	ldr	r3, [r7, #4]
 8000e10:	695b      	ldr	r3, [r3, #20]
 8000e12:	00db      	lsls	r3, r3, #3
 8000e14:	4939      	ldr	r1, [pc, #228]	; (8000efc <HAL_RCC_OscConfig+0x26c>)
 8000e16:	4313      	orrs	r3, r2
 8000e18:	600b      	str	r3, [r1, #0]
      if ((__HAL_RCC_GET_FLAG(RCC_FLAG_HSIRDY) != RESET) && (RCC_OscInitStruct->HSIState != RCC_HSI_ON))
 8000e1a:	e03a      	b.n	8000e92 <HAL_RCC_OscConfig+0x202>
      }
    }
    else
    {
      /* Check the HSI State */
      if (RCC_OscInitStruct->HSIState != RCC_HSI_OFF)
 8000e1c:	687b      	ldr	r3, [r7, #4]
 8000e1e:	691b      	ldr	r3, [r3, #16]
 8000e20:	2b00      	cmp	r3, #0
 8000e22:	d020      	beq.n	8000e66 <HAL_RCC_OscConfig+0x1d6>
      {
        /* Enable the Internal High Speed oscillator (HSI). */
        __HAL_RCC_HSI_ENABLE();
 8000e24:	4b36      	ldr	r3, [pc, #216]	; (8000f00 <HAL_RCC_OscConfig+0x270>)
 8000e26:	2201      	movs	r2, #1
 8000e28:	601a      	str	r2, [r3, #0]

        /* Get Start Tick */
        tickstart = HAL_GetTick();
 8000e2a:	f7ff fc8b 	bl	8000744 <HAL_GetTick>
 8000e2e:	6138      	str	r0, [r7, #16]

        /* Wait till HSI is ready */
        while (__HAL_RCC_GET_FLAG(RCC_FLAG_HSIRDY) == RESET)
 8000e30:	e008      	b.n	8000e44 <HAL_RCC_OscConfig+0x1b4>
        {
          if ((HAL_GetTick() - tickstart) > HSI_TIMEOUT_VALUE)
 8000e32:	f7ff fc87 	bl	8000744 <HAL_GetTick>
 8000e36:	4602      	mov	r2, r0
 8000e38:	693b      	ldr	r3, [r7, #16]
 8000e3a:	1ad3      	subs	r3, r2, r3
 8000e3c:	2b02      	cmp	r3, #2
 8000e3e:	d901      	bls.n	8000e44 <HAL_RCC_OscConfig+0x1b4>
          {
            return HAL_TIMEOUT;
 8000e40:	2303      	movs	r3, #3
 8000e42:	e1a1      	b.n	8001188 <HAL_RCC_OscConfig+0x4f8>
        while (__HAL_RCC_GET_FLAG(RCC_FLAG_HSIRDY) == RESET)
 8000e44:	4b2d      	ldr	r3, [pc, #180]	; (8000efc <HAL_RCC_OscConfig+0x26c>)
 8000e46:	681b      	ldr	r3, [r3, #0]
 8000e48:	f003 0302 	and.w	r3, r3, #2
 8000e4c:	2b00      	cmp	r3, #0
 8000e4e:	d0f0      	beq.n	8000e32 <HAL_RCC_OscConfig+0x1a2>
          }
        }

        /* Adjusts the Internal High Speed oscillator (HSI) calibration value.*/
        __HAL_RCC_HSI_CALIBRATIONVALUE_ADJUST(RCC_OscInitStruct->HSICalibrationValue);
 8000e50:	4b2a      	ldr	r3, [pc, #168]	; (8000efc <HAL_RCC_OscConfig+0x26c>)
 8000e52:	681b      	ldr	r3, [r3, #0]
 8000e54:	f023 02f8 	bic.w	r2, r3, #248	; 0xf8
 8000e58:	687b      	ldr	r3, [r7, #4]
 8000e5a:	695b      	ldr	r3, [r3, #20]
 8000e5c:	00db      	lsls	r3, r3, #3
 8000e5e:	4927      	ldr	r1, [pc, #156]	; (8000efc <HAL_RCC_OscConfig+0x26c>)
 8000e60:	4313      	orrs	r3, r2
 8000e62:	600b      	str	r3, [r1, #0]
 8000e64:	e015      	b.n	8000e92 <HAL_RCC_OscConfig+0x202>
      }
      else
      {
        /* Disable the Internal High Speed oscillator (HSI). */
        __HAL_RCC_HSI_DISABLE();
 8000e66:	4b26      	ldr	r3, [pc, #152]	; (8000f00 <HAL_RCC_OscConfig+0x270>)
 8000e68:	2200      	movs	r2, #0
 8000e6a:	601a      	str	r2, [r3, #0]

        /* Get Start Tick */
        tickstart = HAL_GetTick();
 8000e6c:	f7ff fc6a 	bl	8000744 <HAL_GetTick>
 8000e70:	6138      	str	r0, [r7, #16]

        /* Wait till HSI is disabled */
        while (__HAL_RCC_GET_FLAG(RCC_FLAG_HSIRDY) != RESET)
 8000e72:	e008      	b.n	8000e86 <HAL_RCC_OscConfig+0x1f6>
        {
          if ((HAL_GetTick() - tickstart) > HSI_TIMEOUT_VALUE)
 8000e74:	f7ff fc66 	bl	8000744 <HAL_GetTick>
 8000e78:	4602      	mov	r2, r0
 8000e7a:	693b      	ldr	r3, [r7, #16]
 8000e7c:	1ad3      	subs	r3, r2, r3
 8000e7e:	2b02      	cmp	r3, #2
 8000e80:	d901      	bls.n	8000e86 <HAL_RCC_OscConfig+0x1f6>
          {
            return HAL_TIMEOUT;
 8000e82:	2303      	movs	r3, #3
 8000e84:	e180      	b.n	8001188 <HAL_RCC_OscConfig+0x4f8>
        while (__HAL_RCC_GET_FLAG(RCC_FLAG_HSIRDY) != RESET)
 8000e86:	4b1d      	ldr	r3, [pc, #116]	; (8000efc <HAL_RCC_OscConfig+0x26c>)
 8000e88:	681b      	ldr	r3, [r3, #0]
 8000e8a:	f003 0302 	and.w	r3, r3, #2
 8000e8e:	2b00      	cmp	r3, #0
 8000e90:	d1f0      	bne.n	8000e74 <HAL_RCC_OscConfig+0x1e4>
        }
      }
    }
  }
  /*------------------------------ LSI Configuration -------------------------*/
  if (((RCC_OscInitStruct->OscillatorType) & RCC_OSCILLATORTYPE_LSI) == RCC_OSCILLATORTYPE_LSI)
 8000e92:	687b      	ldr	r3, [r7, #4]
 8000e94:	681b      	ldr	r3, [r3, #0]
 8000e96:	f003 0308 	and.w	r3, r3, #8
 8000e9a:	2b00      	cmp	r3, #0
 8000e9c:	d03a      	beq.n	8000f14 <HAL_RCC_OscConfig+0x284>
  {
    /* Check the parameters */
    assert_param(IS_RCC_LSI(RCC_OscInitStruct->LSIState));

    /* Check the LSI State */
    if (RCC_OscInitStruct->LSIState != RCC_LSI_OFF)
 8000e9e:	687b      	ldr	r3, [r7, #4]
 8000ea0:	699b      	ldr	r3, [r3, #24]
 8000ea2:	2b00      	cmp	r3, #0
 8000ea4:	d019      	beq.n	8000eda <HAL_RCC_OscConfig+0x24a>
    {
      /* Enable the Internal Low Speed oscillator (LSI). */
      __HAL_RCC_LSI_ENABLE();
 8000ea6:	4b17      	ldr	r3, [pc, #92]	; (8000f04 <HAL_RCC_OscConfig+0x274>)
 8000ea8:	2201      	movs	r2, #1
 8000eaa:	601a      	str	r2, [r3, #0]

      /* Get Start Tick */
      tickstart = HAL_GetTick();
 8000eac:	f7ff fc4a 	bl	8000744 <HAL_GetTick>
 8000eb0:	6138      	str	r0, [r7, #16]

      /* Wait till LSI is ready */
      while (__HAL_RCC_GET_FLAG(RCC_FLAG_LSIRDY) == RESET)
 8000eb2:	e008      	b.n	8000ec6 <HAL_RCC_OscConfig+0x236>
      {
        if ((HAL_GetTick() - tickstart) > LSI_TIMEOUT_VALUE)
 8000eb4:	f7ff fc46 	bl	8000744 <HAL_GetTick>
 8000eb8:	4602      	mov	r2, r0
 8000eba:	693b      	ldr	r3, [r7, #16]
 8000ebc:	1ad3      	subs	r3, r2, r3
 8000ebe:	2b02      	cmp	r3, #2
 8000ec0:	d901      	bls.n	8000ec6 <HAL_RCC_OscConfig+0x236>
        {
          return HAL_TIMEOUT;
 8000ec2:	2303      	movs	r3, #3
 8000ec4:	e160      	b.n	8001188 <HAL_RCC_OscConfig+0x4f8>
      while (__HAL_RCC_GET_FLAG(RCC_FLAG_LSIRDY) == RESET)
 8000ec6:	4b0d      	ldr	r3, [pc, #52]	; (8000efc <HAL_RCC_OscConfig+0x26c>)
 8000ec8:	6a5b      	ldr	r3, [r3, #36]	; 0x24
 8000eca:	f003 0302 	and.w	r3, r3, #2
 8000ece:	2b00      	cmp	r3, #0
 8000ed0:	d0f0      	beq.n	8000eb4 <HAL_RCC_OscConfig+0x224>
        }
      }
      /*  To have a fully stabilized clock in the specified range, a software delay of 1ms
          should be added.*/
      RCC_Delay(1);
 8000ed2:	2001      	movs	r0, #1
 8000ed4:	f000 faa6 	bl	8001424 <RCC_Delay>
 8000ed8:	e01c      	b.n	8000f14 <HAL_RCC_OscConfig+0x284>
    }
    else
    {
      /* Disable the Internal Low Speed oscillator (LSI). */
      __HAL_RCC_LSI_DISABLE();
 8000eda:	4b0a      	ldr	r3, [pc, #40]	; (8000f04 <HAL_RCC_OscConfig+0x274>)
 8000edc:	2200      	movs	r2, #0
 8000ede:	601a      	str	r2, [r3, #0]

      /* Get Start Tick */
      tickstart = HAL_GetTick();
 8000ee0:	f7ff fc30 	bl	8000744 <HAL_GetTick>
 8000ee4:	6138      	str	r0, [r7, #16]

      /* Wait till LSI is disabled */
      while (__HAL_RCC_GET_FLAG(RCC_FLAG_LSIRDY) != RESET)
 8000ee6:	e00f      	b.n	8000f08 <HAL_RCC_OscConfig+0x278>
      {
        if ((HAL_GetTick() - tickstart) > LSI_TIMEOUT_VALUE)
 8000ee8:	f7ff fc2c 	bl	8000744 <HAL_GetTick>
 8000eec:	4602      	mov	r2, r0
 8000eee:	693b      	ldr	r3, [r7, #16]
 8000ef0:	1ad3      	subs	r3, r2, r3
 8000ef2:	2b02      	cmp	r3, #2
 8000ef4:	d908      	bls.n	8000f08 <HAL_RCC_OscConfig+0x278>
        {
          return HAL_TIMEOUT;
 8000ef6:	2303      	movs	r3, #3
 8000ef8:	e146      	b.n	8001188 <HAL_RCC_OscConfig+0x4f8>
 8000efa:	bf00      	nop
 8000efc:	40021000 	.word	0x40021000
 8000f00:	42420000 	.word	0x42420000
 8000f04:	42420480 	.word	0x42420480
      while (__HAL_RCC_GET_FLAG(RCC_FLAG_LSIRDY) != RESET)
 8000f08:	4b92      	ldr	r3, [pc, #584]	; (8001154 <HAL_RCC_OscConfig+0x4c4>)
 8000f0a:	6a5b      	ldr	r3, [r3, #36]	; 0x24
 8000f0c:	f003 0302 	and.w	r3, r3, #2
 8000f10:	2b00      	cmp	r3, #0
 8000f12:	d1e9      	bne.n	8000ee8 <HAL_RCC_OscConfig+0x258>
        }
      }
    }
  }
  /*------------------------------ LSE Configuration -------------------------*/
  if (((RCC_OscInitStruct->OscillatorType) & RCC_OSCILLATORTYPE_LSE) == RCC_OSCILLATORTYPE_LSE)
 8000f14:	687b      	ldr	r3, [r7, #4]
 8000f16:	681b      	ldr	r3, [r3, #0]
 8000f18:	f003 0304 	and.w	r3, r3, #4
 8000f1c:	2b00      	cmp	r3, #0
 8000f1e:	f000 80a6 	beq.w	800106e <HAL_RCC_OscConfig+0x3de>
  {
    FlagStatus       pwrclkchanged = RESET;
 8000f22:	2300      	movs	r3, #0
 8000f24:	75fb      	strb	r3, [r7, #23]
    /* Check the parameters */
    assert_param(IS_RCC_LSE(RCC_OscInitStruct->LSEState));

    /* Update LSE configuration in Backup Domain control register    */
    /* Requires to enable write access to Backup Domain of necessary */
    if (__HAL_RCC_PWR_IS_CLK_DISABLED())
 8000f26:	4b8b      	ldr	r3, [pc, #556]	; (8001154 <HAL_RCC_OscConfig+0x4c4>)
 8000f28:	69db      	ldr	r3, [r3, #28]
 8000f2a:	f003 5380 	and.w	r3, r3, #268435456	; 0x10000000
 8000f2e:	2b00      	cmp	r3, #0
 8000f30:	d10d      	bne.n	8000f4e <HAL_RCC_OscConfig+0x2be>
    {
      __HAL_RCC_PWR_CLK_ENABLE();
 8000f32:	4b88      	ldr	r3, [pc, #544]	; (8001154 <HAL_RCC_OscConfig+0x4c4>)
 8000f34:	69db      	ldr	r3, [r3, #28]
 8000f36:	4a87      	ldr	r2, [pc, #540]	; (8001154 <HAL_RCC_OscConfig+0x4c4>)
 8000f38:	f043 5380 	orr.w	r3, r3, #268435456	; 0x10000000
 8000f3c:	61d3      	str	r3, [r2, #28]
 8000f3e:	4b85      	ldr	r3, [pc, #532]	; (8001154 <HAL_RCC_OscConfig+0x4c4>)
 8000f40:	69db      	ldr	r3, [r3, #28]
 8000f42:	f003 5380 	and.w	r3, r3, #268435456	; 0x10000000
 8000f46:	60bb      	str	r3, [r7, #8]
 8000f48:	68bb      	ldr	r3, [r7, #8]
      pwrclkchanged = SET;
 8000f4a:	2301      	movs	r3, #1
 8000f4c:	75fb      	strb	r3, [r7, #23]
    }

    if (HAL_IS_BIT_CLR(PWR->CR, PWR_CR_DBP))
 8000f4e:	4b82      	ldr	r3, [pc, #520]	; (8001158 <HAL_RCC_OscConfig+0x4c8>)
 8000f50:	681b      	ldr	r3, [r3, #0]
 8000f52:	f403 7380 	and.w	r3, r3, #256	; 0x100
 8000f56:	2b00      	cmp	r3, #0
 8000f58:	d118      	bne.n	8000f8c <HAL_RCC_OscConfig+0x2fc>
    {
      /* Enable write access to Backup domain */
      SET_BIT(PWR->CR, PWR_CR_DBP);
 8000f5a:	4b7f      	ldr	r3, [pc, #508]	; (8001158 <HAL_RCC_OscConfig+0x4c8>)
 8000f5c:	681b      	ldr	r3, [r3, #0]
 8000f5e:	4a7e      	ldr	r2, [pc, #504]	; (8001158 <HAL_RCC_OscConfig+0x4c8>)
 8000f60:	f443 7380 	orr.w	r3, r3, #256	; 0x100
 8000f64:	6013      	str	r3, [r2, #0]

      /* Wait for Backup domain Write protection disable */
      tickstart = HAL_GetTick();
 8000f66:	f7ff fbed 	bl	8000744 <HAL_GetTick>
 8000f6a:	6138      	str	r0, [r7, #16]

      while (HAL_IS_BIT_CLR(PWR->CR, PWR_CR_DBP))
 8000f6c:	e008      	b.n	8000f80 <HAL_RCC_OscConfig+0x2f0>
      {
        if ((HAL_GetTick() - tickstart) > RCC_DBP_TIMEOUT_VALUE)
 8000f6e:	f7ff fbe9 	bl	8000744 <HAL_GetTick>
 8000f72:	4602      	mov	r2, r0
 8000f74:	693b      	ldr	r3, [r7, #16]
 8000f76:	1ad3      	subs	r3, r2, r3
 8000f78:	2b64      	cmp	r3, #100	; 0x64
 8000f7a:	d901      	bls.n	8000f80 <HAL_RCC_OscConfig+0x2f0>
        {
          return HAL_TIMEOUT;
 8000f7c:	2303      	movs	r3, #3
 8000f7e:	e103      	b.n	8001188 <HAL_RCC_OscConfig+0x4f8>
      while (HAL_IS_BIT_CLR(PWR->CR, PWR_CR_DBP))
 8000f80:	4b75      	ldr	r3, [pc, #468]	; (8001158 <HAL_RCC_OscConfig+0x4c8>)
 8000f82:	681b      	ldr	r3, [r3, #0]
 8000f84:	f403 7380 	and.w	r3, r3, #256	; 0x100
 8000f88:	2b00      	cmp	r3, #0
 8000f8a:	d0f0      	beq.n	8000f6e <HAL_RCC_OscConfig+0x2de>
        }
      }
    }

    /* Set the new LSE configuration -----------------------------------------*/
    __HAL_RCC_LSE_CONFIG(RCC_OscInitStruct->LSEState);
 8000f8c:	687b      	ldr	r3, [r7, #4]
 8000f8e:	68db      	ldr	r3, [r3, #12]
 8000f90:	2b01      	cmp	r3, #1
 8000f92:	d106      	bne.n	8000fa2 <HAL_RCC_OscConfig+0x312>
 8000f94:	4b6f      	ldr	r3, [pc, #444]	; (8001154 <HAL_RCC_OscConfig+0x4c4>)
 8000f96:	6a1b      	ldr	r3, [r3, #32]
 8000f98:	4a6e      	ldr	r2, [pc, #440]	; (8001154 <HAL_RCC_OscConfig+0x4c4>)
 8000f9a:	f043 0301 	orr.w	r3, r3, #1
 8000f9e:	6213      	str	r3, [r2, #32]
 8000fa0:	e02d      	b.n	8000ffe <HAL_RCC_OscConfig+0x36e>
 8000fa2:	687b      	ldr	r3, [r7, #4]
 8000fa4:	68db      	ldr	r3, [r3, #12]
 8000fa6:	2b00      	cmp	r3, #0
 8000fa8:	d10c      	bne.n	8000fc4 <HAL_RCC_OscConfig+0x334>
 8000faa:	4b6a      	ldr	r3, [pc, #424]	; (8001154 <HAL_RCC_OscConfig+0x4c4>)
 8000fac:	6a1b      	ldr	r3, [r3, #32]
 8000fae:	4a69      	ldr	r2, [pc, #420]	; (8001154 <HAL_RCC_OscConfig+0x4c4>)
 8000fb0:	f023 0301 	bic.w	r3, r3, #1
 8000fb4:	6213      	str	r3, [r2, #32]
 8000fb6:	4b67      	ldr	r3, [pc, #412]	; (8001154 <HAL_RCC_OscConfig+0x4c4>)
 8000fb8:	6a1b      	ldr	r3, [r3, #32]
 8000fba:	4a66      	ldr	r2, [pc, #408]	; (8001154 <HAL_RCC_OscConfig+0x4c4>)
 8000fbc:	f023 0304 	bic.w	r3, r3, #4
 8000fc0:	6213      	str	r3, [r2, #32]
 8000fc2:	e01c      	b.n	8000ffe <HAL_RCC_OscConfig+0x36e>
 8000fc4:	687b      	ldr	r3, [r7, #4]
 8000fc6:	68db      	ldr	r3, [r3, #12]
 8000fc8:	2b05      	cmp	r3, #5
 8000fca:	d10c      	bne.n	8000fe6 <HAL_RCC_OscConfig+0x356>
 8000fcc:	4b61      	ldr	r3, [pc, #388]	; (8001154 <HAL_RCC_OscConfig+0x4c4>)
 8000fce:	6a1b      	ldr	r3, [r3, #32]
 8000fd0:	4a60      	ldr	r2, [pc, #384]	; (8001154 <HAL_RCC_OscConfig+0x4c4>)
 8000fd2:	f043 0304 	orr.w	r3, r3, #4
 8000fd6:	6213      	str	r3, [r2, #32]
 8000fd8:	4b5e      	ldr	r3, [pc, #376]	; (8001154 <HAL_RCC_OscConfig+0x4c4>)
 8000fda:	6a1b      	ldr	r3, [r3, #32]
 8000fdc:	4a5d      	ldr	r2, [pc, #372]	; (8001154 <HAL_RCC_OscConfig+0x4c4>)
 8000fde:	f043 0301 	orr.w	r3, r3, #1
 8000fe2:	6213      	str	r3, [r2, #32]
 8000fe4:	e00b      	b.n	8000ffe <HAL_RCC_OscConfig+0x36e>
 8000fe6:	4b5b      	ldr	r3, [pc, #364]	; (8001154 <HAL_RCC_OscConfig+0x4c4>)
 8000fe8:	6a1b      	ldr	r3, [r3, #32]
 8000fea:	4a5a      	ldr	r2, [pc, #360]	; (8001154 <HAL_RCC_OscConfig+0x4c4>)
 8000fec:	f023 0301 	bic.w	r3, r3, #1
 8000ff0:	6213      	str	r3, [r2, #32]
 8000ff2:	4b58      	ldr	r3, [pc, #352]	; (8001154 <HAL_RCC_OscConfig+0x4c4>)
 8000ff4:	6a1b      	ldr	r3, [r3, #32]
 8000ff6:	4a57      	ldr	r2, [pc, #348]	; (8001154 <HAL_RCC_OscConfig+0x4c4>)
 8000ff8:	f023 0304 	bic.w	r3, r3, #4
 8000ffc:	6213      	str	r3, [r2, #32]
    /* Check the LSE State */
    if (RCC_OscInitStruct->LSEState != RCC_LSE_OFF)
 8000ffe:	687b      	ldr	r3, [r7, #4]
 8001000:	68db      	ldr	r3, [r3, #12]
 8001002:	2b00      	cmp	r3, #0
 8001004:	d015      	beq.n	8001032 <HAL_RCC_OscConfig+0x3a2>
    {
      /* Get Start Tick */
      tickstart = HAL_GetTick();
 8001006:	f7ff fb9d 	bl	8000744 <HAL_GetTick>
 800100a:	6138      	str	r0, [r7, #16]

      /* Wait till LSE is ready */
      while (__HAL_RCC_GET_FLAG(RCC_FLAG_LSERDY) == RESET)
 800100c:	e00a      	b.n	8001024 <HAL_RCC_OscConfig+0x394>
      {
        if ((HAL_GetTick() - tickstart) > RCC_LSE_TIMEOUT_VALUE)
 800100e:	f7ff fb99 	bl	8000744 <HAL_GetTick>
 8001012:	4602      	mov	r2, r0
 8001014:	693b      	ldr	r3, [r7, #16]
 8001016:	1ad3      	subs	r3, r2, r3
 8001018:	f241 3288 	movw	r2, #5000	; 0x1388
 800101c:	4293      	cmp	r3, r2
 800101e:	d901      	bls.n	8001024 <HAL_RCC_OscConfig+0x394>
        {
          return HAL_TIMEOUT;
 8001020:	2303      	movs	r3, #3
 8001022:	e0b1      	b.n	8001188 <HAL_RCC_OscConfig+0x4f8>
      while (__HAL_RCC_GET_FLAG(RCC_FLAG_LSERDY) == RESET)
 8001024:	4b4b      	ldr	r3, [pc, #300]	; (8001154 <HAL_RCC_OscConfig+0x4c4>)
 8001026:	6a1b      	ldr	r3, [r3, #32]
 8001028:	f003 0302 	and.w	r3, r3, #2
 800102c:	2b00      	cmp	r3, #0
 800102e:	d0ee      	beq.n	800100e <HAL_RCC_OscConfig+0x37e>
 8001030:	e014      	b.n	800105c <HAL_RCC_OscConfig+0x3cc>
      }
    }
    else
    {
      /* Get Start Tick */
      tickstart = HAL_GetTick();
 8001032:	f7ff fb87 	bl	8000744 <HAL_GetTick>
 8001036:	6138      	str	r0, [r7, #16]

      /* Wait till LSE is disabled */
      while (__HAL_RCC_GET_FLAG(RCC_FLAG_LSERDY) != RESET)
 8001038:	e00a      	b.n	8001050 <HAL_RCC_OscConfig+0x3c0>
      {
        if ((HAL_GetTick() - tickstart) > RCC_LSE_TIMEOUT_VALUE)
 800103a:	f7ff fb83 	bl	8000744 <HAL_GetTick>
 800103e:	4602      	mov	r2, r0
 8001040:	693b      	ldr	r3, [r7, #16]
 8001042:	1ad3      	subs	r3, r2, r3
 8001044:	f241 3288 	movw	r2, #5000	; 0x1388
 8001048:	4293      	cmp	r3, r2
 800104a:	d901      	bls.n	8001050 <HAL_RCC_OscConfig+0x3c0>
        {
          return HAL_TIMEOUT;
 800104c:	2303      	movs	r3, #3
 800104e:	e09b      	b.n	8001188 <HAL_RCC_OscConfig+0x4f8>
      while (__HAL_RCC_GET_FLAG(RCC_FLAG_LSERDY) != RESET)
 8001050:	4b40      	ldr	r3, [pc, #256]	; (8001154 <HAL_RCC_OscConfig+0x4c4>)
 8001052:	6a1b      	ldr	r3, [r3, #32]
 8001054:	f003 0302 	and.w	r3, r3, #2
 8001058:	2b00      	cmp	r3, #0
 800105a:	d1ee      	bne.n	800103a <HAL_RCC_OscConfig+0x3aa>
        }
      }
    }

    /* Require to disable power clock if necessary */
    if (pwrclkchanged == SET)
 800105c:	7dfb      	ldrb	r3, [r7, #23]
 800105e:	2b01      	cmp	r3, #1
 8001060:	d105      	bne.n	800106e <HAL_RCC_OscConfig+0x3de>
    {
      __HAL_RCC_PWR_CLK_DISABLE();
 8001062:	4b3c      	ldr	r3, [pc, #240]	; (8001154 <HAL_RCC_OscConfig+0x4c4>)
 8001064:	69db      	ldr	r3, [r3, #28]
 8001066:	4a3b      	ldr	r2, [pc, #236]	; (8001154 <HAL_RCC_OscConfig+0x4c4>)
 8001068:	f023 5380 	bic.w	r3, r3, #268435456	; 0x10000000
 800106c:	61d3      	str	r3, [r2, #28]

#endif /* RCC_CR_PLL2ON */
  /*-------------------------------- PLL Configuration -----------------------*/
  /* Check the parameters */
  assert_param(IS_RCC_PLL(RCC_OscInitStruct->PLL.PLLState));
  if ((RCC_OscInitStruct->PLL.PLLState) != RCC_PLL_NONE)
 800106e:	687b      	ldr	r3, [r7, #4]
 8001070:	69db      	ldr	r3, [r3, #28]
 8001072:	2b00      	cmp	r3, #0
 8001074:	f000 8087 	beq.w	8001186 <HAL_RCC_OscConfig+0x4f6>
  {
    /* Check if the PLL is used as system clock or not */
    if (__HAL_RCC_GET_SYSCLK_SOURCE() != RCC_SYSCLKSOURCE_STATUS_PLLCLK)
 8001078:	4b36      	ldr	r3, [pc, #216]	; (8001154 <HAL_RCC_OscConfig+0x4c4>)
 800107a:	685b      	ldr	r3, [r3, #4]
 800107c:	f003 030c 	and.w	r3, r3, #12
 8001080:	2b08      	cmp	r3, #8
 8001082:	d061      	beq.n	8001148 <HAL_RCC_OscConfig+0x4b8>
    {
      if ((RCC_OscInitStruct->PLL.PLLState) == RCC_PLL_ON)
 8001084:	687b      	ldr	r3, [r7, #4]
 8001086:	69db      	ldr	r3, [r3, #28]
 8001088:	2b02      	cmp	r3, #2
 800108a:	d146      	bne.n	800111a <HAL_RCC_OscConfig+0x48a>
        /* Check the parameters */
        assert_param(IS_RCC_PLLSOURCE(RCC_OscInitStruct->PLL.PLLSource));
        assert_param(IS_RCC_PLL_MUL(RCC_OscInitStruct->PLL.PLLMUL));

        /* Disable the main PLL. */
        __HAL_RCC_PLL_DISABLE();
 800108c:	4b33      	ldr	r3, [pc, #204]	; (800115c <HAL_RCC_OscConfig+0x4cc>)
 800108e:	2200      	movs	r2, #0
 8001090:	601a      	str	r2, [r3, #0]

        /* Get Start Tick */
        tickstart = HAL_GetTick();
 8001092:	f7ff fb57 	bl	8000744 <HAL_GetTick>
 8001096:	6138      	str	r0, [r7, #16]

        /* Wait till PLL is disabled */
        while (__HAL_RCC_GET_FLAG(RCC_FLAG_PLLRDY)  != RESET)
 8001098:	e008      	b.n	80010ac <HAL_RCC_OscConfig+0x41c>
        {
          if ((HAL_GetTick() - tickstart) > PLL_TIMEOUT_VALUE)
 800109a:	f7ff fb53 	bl	8000744 <HAL_GetTick>
 800109e:	4602      	mov	r2, r0
 80010a0:	693b      	ldr	r3, [r7, #16]
 80010a2:	1ad3      	subs	r3, r2, r3
 80010a4:	2b02      	cmp	r3, #2
 80010a6:	d901      	bls.n	80010ac <HAL_RCC_OscConfig+0x41c>
          {
            return HAL_TIMEOUT;
 80010a8:	2303      	movs	r3, #3
 80010aa:	e06d      	b.n	8001188 <HAL_RCC_OscConfig+0x4f8>
        while (__HAL_RCC_GET_FLAG(RCC_FLAG_PLLRDY)  != RESET)
 80010ac:	4b29      	ldr	r3, [pc, #164]	; (8001154 <HAL_RCC_OscConfig+0x4c4>)
 80010ae:	681b      	ldr	r3, [r3, #0]
 80010b0:	f003 7300 	and.w	r3, r3, #33554432	; 0x2000000
 80010b4:	2b00      	cmp	r3, #0
 80010b6:	d1f0      	bne.n	800109a <HAL_RCC_OscConfig+0x40a>
          }
        }

        /* Configure the HSE prediv factor --------------------------------*/
        /* It can be written only when the PLL is disabled. Not used in PLL source is different than HSE */
        if (RCC_OscInitStruct->PLL.PLLSource == RCC_PLLSOURCE_HSE)
 80010b8:	687b      	ldr	r3, [r7, #4]
 80010ba:	6a1b      	ldr	r3, [r3, #32]
 80010bc:	f5b3 3f80 	cmp.w	r3, #65536	; 0x10000
 80010c0:	d108      	bne.n	80010d4 <HAL_RCC_OscConfig+0x444>
          /* Set PREDIV1 source */
          SET_BIT(RCC->CFGR2, RCC_OscInitStruct->Prediv1Source);
#endif /* RCC_CFGR2_PREDIV1SRC */

          /* Set PREDIV1 Value */
          __HAL_RCC_HSE_PREDIV_CONFIG(RCC_OscInitStruct->HSEPredivValue);
 80010c2:	4b24      	ldr	r3, [pc, #144]	; (8001154 <HAL_RCC_OscConfig+0x4c4>)
 80010c4:	685b      	ldr	r3, [r3, #4]
 80010c6:	f423 3200 	bic.w	r2, r3, #131072	; 0x20000
 80010ca:	687b      	ldr	r3, [r7, #4]
 80010cc:	689b      	ldr	r3, [r3, #8]
 80010ce:	4921      	ldr	r1, [pc, #132]	; (8001154 <HAL_RCC_OscConfig+0x4c4>)
 80010d0:	4313      	orrs	r3, r2
 80010d2:	604b      	str	r3, [r1, #4]
        }

        /* Configure the main PLL clock source and multiplication factors. */
        __HAL_RCC_PLL_CONFIG(RCC_OscInitStruct->PLL.PLLSource,
 80010d4:	4b1f      	ldr	r3, [pc, #124]	; (8001154 <HAL_RCC_OscConfig+0x4c4>)
 80010d6:	685b      	ldr	r3, [r3, #4]
 80010d8:	f423 1274 	bic.w	r2, r3, #3997696	; 0x3d0000
 80010dc:	687b      	ldr	r3, [r7, #4]
 80010de:	6a19      	ldr	r1, [r3, #32]
 80010e0:	687b      	ldr	r3, [r7, #4]
 80010e2:	6a5b      	ldr	r3, [r3, #36]	; 0x24
 80010e4:	430b      	orrs	r3, r1
 80010e6:	491b      	ldr	r1, [pc, #108]	; (8001154 <HAL_RCC_OscConfig+0x4c4>)
 80010e8:	4313      	orrs	r3, r2
 80010ea:	604b      	str	r3, [r1, #4]
                             RCC_OscInitStruct->PLL.PLLMUL);
        /* Enable the main PLL. */
        __HAL_RCC_PLL_ENABLE();
 80010ec:	4b1b      	ldr	r3, [pc, #108]	; (800115c <HAL_RCC_OscConfig+0x4cc>)
 80010ee:	2201      	movs	r2, #1
 80010f0:	601a      	str	r2, [r3, #0]

        /* Get Start Tick */
        tickstart = HAL_GetTick();
 80010f2:	f7ff fb27 	bl	8000744 <HAL_GetTick>
 80010f6:	6138      	str	r0, [r7, #16]

        /* Wait till PLL is ready */
        while (__HAL_RCC_GET_FLAG(RCC_FLAG_PLLRDY)  == RESET)
 80010f8:	e008      	b.n	800110c <HAL_RCC_OscConfig+0x47c>
        {
          if ((HAL_GetTick() - tickstart) > PLL_TIMEOUT_VALUE)
 80010fa:	f7ff fb23 	bl	8000744 <HAL_GetTick>
 80010fe:	4602      	mov	r2, r0
 8001100:	693b      	ldr	r3, [r7, #16]
 8001102:	1ad3      	subs	r3, r2, r3
 8001104:	2b02      	cmp	r3, #2
 8001106:	d901      	bls.n	800110c <HAL_RCC_OscConfig+0x47c>
          {
            return HAL_TIMEOUT;
 8001108:	2303      	movs	r3, #3
 800110a:	e03d      	b.n	8001188 <HAL_RCC_OscConfig+0x4f8>
        while (__HAL_RCC_GET_FLAG(RCC_FLAG_PLLRDY)  == RESET)
 800110c:	4b11      	ldr	r3, [pc, #68]	; (8001154 <HAL_RCC_OscConfig+0x4c4>)
 800110e:	681b      	ldr	r3, [r3, #0]
 8001110:	f003 7300 	and.w	r3, r3, #33554432	; 0x2000000
 8001114:	2b00      	cmp	r3, #0
 8001116:	d0f0      	beq.n	80010fa <HAL_RCC_OscConfig+0x46a>
 8001118:	e035      	b.n	8001186 <HAL_RCC_OscConfig+0x4f6>
        }
      }
      else
      {
        /* Disable the main PLL. */
        __HAL_RCC_PLL_DISABLE();
 800111a:	4b10      	ldr	r3, [pc, #64]	; (800115c <HAL_RCC_OscConfig+0x4cc>)
 800111c:	2200      	movs	r2, #0
 800111e:	601a      	str	r2, [r3, #0]

        /* Get Start Tick */
        tickstart = HAL_GetTick();
 8001120:	f7ff fb10 	bl	8000744 <HAL_GetTick>
 8001124:	6138      	str	r0, [r7, #16]

        /* Wait till PLL is disabled */
        while (__HAL_RCC_GET_FLAG(RCC_FLAG_PLLRDY)  != RESET)
 8001126:	e008      	b.n	800113a <HAL_RCC_OscConfig+0x4aa>
        {
          if ((HAL_GetTick() - tickstart) > PLL_TIMEOUT_VALUE)
 8001128:	f7ff fb0c 	bl	8000744 <HAL_GetTick>
 800112c:	4602      	mov	r2, r0
 800112e:	693b      	ldr	r3, [r7, #16]
 8001130:	1ad3      	subs	r3, r2, r3
 8001132:	2b02      	cmp	r3, #2
 8001134:	d901      	bls.n	800113a <HAL_RCC_OscConfig+0x4aa>
          {
            return HAL_TIMEOUT;
 8001136:	2303      	movs	r3, #3
 8001138:	e026      	b.n	8001188 <HAL_RCC_OscConfig+0x4f8>
        while (__HAL_RCC_GET_FLAG(RCC_FLAG_PLLRDY)  != RESET)
 800113a:	4b06      	ldr	r3, [pc, #24]	; (8001154 <HAL_RCC_OscConfig+0x4c4>)
 800113c:	681b      	ldr	r3, [r3, #0]
 800113e:	f003 7300 	and.w	r3, r3, #33554432	; 0x2000000
 8001142:	2b00      	cmp	r3, #0
 8001144:	d1f0      	bne.n	8001128 <HAL_RCC_OscConfig+0x498>
 8001146:	e01e      	b.n	8001186 <HAL_RCC_OscConfig+0x4f6>
      }
    }
    else
    {
      /* Check if there is a request to disable the PLL used as System clock source */
      if ((RCC_OscInitStruct->PLL.PLLState) == RCC_PLL_OFF)
 8001148:	687b      	ldr	r3, [r7, #4]
 800114a:	69db      	ldr	r3, [r3, #28]
 800114c:	2b01      	cmp	r3, #1
 800114e:	d107      	bne.n	8001160 <HAL_RCC_OscConfig+0x4d0>
      {
        return HAL_ERROR;
 8001150:	2301      	movs	r3, #1
 8001152:	e019      	b.n	8001188 <HAL_RCC_OscConfig+0x4f8>
 8001154:	40021000 	.word	0x40021000
 8001158:	40007000 	.word	0x40007000
 800115c:	42420060 	.word	0x42420060
      }
      else
      {
        /* Do not return HAL_ERROR if request repeats the current configuration */
        pll_config = RCC->CFGR;
 8001160:	4b0b      	ldr	r3, [pc, #44]	; (8001190 <HAL_RCC_OscConfig+0x500>)
 8001162:	685b      	ldr	r3, [r3, #4]
 8001164:	60fb      	str	r3, [r7, #12]
        if ((READ_BIT(pll_config, RCC_CFGR_PLLSRC) != RCC_OscInitStruct->PLL.PLLSource) ||
 8001166:	68fb      	ldr	r3, [r7, #12]
 8001168:	f403 3280 	and.w	r2, r3, #65536	; 0x10000
 800116c:	687b      	ldr	r3, [r7, #4]
 800116e:	6a1b      	ldr	r3, [r3, #32]
 8001170:	429a      	cmp	r2, r3
 8001172:	d106      	bne.n	8001182 <HAL_RCC_OscConfig+0x4f2>
            (READ_BIT(pll_config, RCC_CFGR_PLLMULL) != RCC_OscInitStruct->PLL.PLLMUL))
 8001174:	68fb      	ldr	r3, [r7, #12]
 8001176:	f403 1270 	and.w	r2, r3, #3932160	; 0x3c0000
 800117a:	687b      	ldr	r3, [r7, #4]
 800117c:	6a5b      	ldr	r3, [r3, #36]	; 0x24
        if ((READ_BIT(pll_config, RCC_CFGR_PLLSRC) != RCC_OscInitStruct->PLL.PLLSource) ||
 800117e:	429a      	cmp	r2, r3
 8001180:	d001      	beq.n	8001186 <HAL_RCC_OscConfig+0x4f6>
        {
          return HAL_ERROR;
 8001182:	2301      	movs	r3, #1
 8001184:	e000      	b.n	8001188 <HAL_RCC_OscConfig+0x4f8>
        }
      }
    }
  }

  return HAL_OK;
 8001186:	2300      	movs	r3, #0
}
 8001188:	4618      	mov	r0, r3
 800118a:	3718      	adds	r7, #24
 800118c:	46bd      	mov	sp, r7
 800118e:	bd80      	pop	{r7, pc}
 8001190:	40021000 	.word	0x40021000

08001194 <HAL_RCC_ClockConfig>:
  *         You can use @ref HAL_RCC_GetClockConfig() function to know which clock is
  *         currently used as system clock source.
  * @retval HAL status
  */
HAL_StatusTypeDef HAL_RCC_ClockConfig(RCC_ClkInitTypeDef  *RCC_ClkInitStruct, uint32_t FLatency)
{
 8001194:	b580      	push	{r7, lr}
 8001196:	b084      	sub	sp, #16
 8001198:	af00      	add	r7, sp, #0
 800119a:	6078      	str	r0, [r7, #4]
 800119c:	6039      	str	r1, [r7, #0]
  uint32_t tickstart;

  /* Check Null pointer */
  if (RCC_ClkInitStruct == NULL)
 800119e:	687b      	ldr	r3, [r7, #4]
 80011a0:	2b00      	cmp	r3, #0
 80011a2:	d101      	bne.n	80011a8 <HAL_RCC_ClockConfig+0x14>
  {
    return HAL_ERROR;
 80011a4:	2301      	movs	r3, #1
 80011a6:	e0d0      	b.n	800134a <HAL_RCC_ClockConfig+0x1b6>
  must be correctly programmed according to the frequency of the CPU clock
    (HCLK) of the device. */

#if defined(FLASH_ACR_LATENCY)
  /* Increasing the number of wait states because of higher CPU frequency */
  if (FLatency > __HAL_FLASH_GET_LATENCY())
 80011a8:	4b6a      	ldr	r3, [pc, #424]	; (8001354 <HAL_RCC_ClockConfig+0x1c0>)
 80011aa:	681b      	ldr	r3, [r3, #0]
 80011ac:	f003 0307 	and.w	r3, r3, #7
 80011b0:	683a      	ldr	r2, [r7, #0]
 80011b2:	429a      	cmp	r2, r3
 80011b4:	d910      	bls.n	80011d8 <HAL_RCC_ClockConfig+0x44>
  {
    /* Program the new number of wait states to the LATENCY bits in the FLASH_ACR register */
    __HAL_FLASH_SET_LATENCY(FLatency);
 80011b6:	4b67      	ldr	r3, [pc, #412]	; (8001354 <HAL_RCC_ClockConfig+0x1c0>)
 80011b8:	681b      	ldr	r3, [r3, #0]
 80011ba:	f023 0207 	bic.w	r2, r3, #7
 80011be:	4965      	ldr	r1, [pc, #404]	; (8001354 <HAL_RCC_ClockConfig+0x1c0>)
 80011c0:	683b      	ldr	r3, [r7, #0]
 80011c2:	4313      	orrs	r3, r2
 80011c4:	600b      	str	r3, [r1, #0]

    /* Check that the new number of wait states is taken into account to access the Flash
    memory by reading the FLASH_ACR register */
    if (__HAL_FLASH_GET_LATENCY() != FLatency)
 80011c6:	4b63      	ldr	r3, [pc, #396]	; (8001354 <HAL_RCC_ClockConfig+0x1c0>)
 80011c8:	681b      	ldr	r3, [r3, #0]
 80011ca:	f003 0307 	and.w	r3, r3, #7
 80011ce:	683a      	ldr	r2, [r7, #0]
 80011d0:	429a      	cmp	r2, r3
 80011d2:	d001      	beq.n	80011d8 <HAL_RCC_ClockConfig+0x44>
  {
    return HAL_ERROR;
 80011d4:	2301      	movs	r3, #1
 80011d6:	e0b8      	b.n	800134a <HAL_RCC_ClockConfig+0x1b6>
  }
}

#endif /* FLASH_ACR_LATENCY */
/*-------------------------- HCLK Configuration --------------------------*/
if (((RCC_ClkInitStruct->ClockType) & RCC_CLOCKTYPE_HCLK) == RCC_CLOCKTYPE_HCLK)
 80011d8:	687b      	ldr	r3, [r7, #4]
 80011da:	681b      	ldr	r3, [r3, #0]
 80011dc:	f003 0302 	and.w	r3, r3, #2
 80011e0:	2b00      	cmp	r3, #0
 80011e2:	d020      	beq.n	8001226 <HAL_RCC_ClockConfig+0x92>
  {
    /* Set the highest APBx dividers in order to ensure that we do not go through
    a non-spec phase whatever we decrease or increase HCLK. */
    if (((RCC_ClkInitStruct->ClockType) & RCC_CLOCKTYPE_PCLK1) == RCC_CLOCKTYPE_PCLK1)
 80011e4:	687b      	ldr	r3, [r7, #4]
 80011e6:	681b      	ldr	r3, [r3, #0]
 80011e8:	f003 0304 	and.w	r3, r3, #4
 80011ec:	2b00      	cmp	r3, #0
 80011ee:	d005      	beq.n	80011fc <HAL_RCC_ClockConfig+0x68>
    {
      MODIFY_REG(RCC->CFGR, RCC_CFGR_PPRE1, RCC_HCLK_DIV16);
 80011f0:	4b59      	ldr	r3, [pc, #356]	; (8001358 <HAL_RCC_ClockConfig+0x1c4>)
 80011f2:	685b      	ldr	r3, [r3, #4]
 80011f4:	4a58      	ldr	r2, [pc, #352]	; (8001358 <HAL_RCC_ClockConfig+0x1c4>)
 80011f6:	f443 63e0 	orr.w	r3, r3, #1792	; 0x700
 80011fa:	6053      	str	r3, [r2, #4]
    }

    if (((RCC_ClkInitStruct->ClockType) & RCC_CLOCKTYPE_PCLK2) == RCC_CLOCKTYPE_PCLK2)
 80011fc:	687b      	ldr	r3, [r7, #4]
 80011fe:	681b      	ldr	r3, [r3, #0]
 8001200:	f003 0308 	and.w	r3, r3, #8
 8001204:	2b00      	cmp	r3, #0
 8001206:	d005      	beq.n	8001214 <HAL_RCC_ClockConfig+0x80>
    {
      MODIFY_REG(RCC->CFGR, RCC_CFGR_PPRE2, (RCC_HCLK_DIV16 << 3));
 8001208:	4b53      	ldr	r3, [pc, #332]	; (8001358 <HAL_RCC_ClockConfig+0x1c4>)
 800120a:	685b      	ldr	r3, [r3, #4]
 800120c:	4a52      	ldr	r2, [pc, #328]	; (8001358 <HAL_RCC_ClockConfig+0x1c4>)
 800120e:	f443 5360 	orr.w	r3, r3, #14336	; 0x3800
 8001212:	6053      	str	r3, [r2, #4]
    }

    /* Set the new HCLK clock divider */
    assert_param(IS_RCC_HCLK(RCC_ClkInitStruct->AHBCLKDivider));
    MODIFY_REG(RCC->CFGR, RCC_CFGR_HPRE, RCC_ClkInitStruct->AHBCLKDivider);
 8001214:	4b50      	ldr	r3, [pc, #320]	; (8001358 <HAL_RCC_ClockConfig+0x1c4>)
 8001216:	685b      	ldr	r3, [r3, #4]
 8001218:	f023 02f0 	bic.w	r2, r3, #240	; 0xf0
 800121c:	687b      	ldr	r3, [r7, #4]
 800121e:	689b      	ldr	r3, [r3, #8]
 8001220:	494d      	ldr	r1, [pc, #308]	; (8001358 <HAL_RCC_ClockConfig+0x1c4>)
 8001222:	4313      	orrs	r3, r2
 8001224:	604b      	str	r3, [r1, #4]
  }

  /*------------------------- SYSCLK Configuration ---------------------------*/
  if (((RCC_ClkInitStruct->ClockType) & RCC_CLOCKTYPE_SYSCLK) == RCC_CLOCKTYPE_SYSCLK)
 8001226:	687b      	ldr	r3, [r7, #4]
 8001228:	681b      	ldr	r3, [r3, #0]
 800122a:	f003 0301 	and.w	r3, r3, #1
 800122e:	2b00      	cmp	r3, #0
 8001230:	d040      	beq.n	80012b4 <HAL_RCC_ClockConfig+0x120>
  {
    assert_param(IS_RCC_SYSCLKSOURCE(RCC_ClkInitStruct->SYSCLKSource));

    /* HSE is selected as System Clock Source */
    if (RCC_ClkInitStruct->SYSCLKSource == RCC_SYSCLKSOURCE_HSE)
 8001232:	687b      	ldr	r3, [r7, #4]
 8001234:	685b      	ldr	r3, [r3, #4]
 8001236:	2b01      	cmp	r3, #1
 8001238:	d107      	bne.n	800124a <HAL_RCC_ClockConfig+0xb6>
    {
      /* Check the HSE ready flag */
      if (__HAL_RCC_GET_FLAG(RCC_FLAG_HSERDY) == RESET)
 800123a:	4b47      	ldr	r3, [pc, #284]	; (8001358 <HAL_RCC_ClockConfig+0x1c4>)
 800123c:	681b      	ldr	r3, [r3, #0]
 800123e:	f403 3300 	and.w	r3, r3, #131072	; 0x20000
 8001242:	2b00      	cmp	r3, #0
 8001244:	d115      	bne.n	8001272 <HAL_RCC_ClockConfig+0xde>
      {
        return HAL_ERROR;
 8001246:	2301      	movs	r3, #1
 8001248:	e07f      	b.n	800134a <HAL_RCC_ClockConfig+0x1b6>
      }
    }
    /* PLL is selected as System Clock Source */
    else if (RCC_ClkInitStruct->SYSCLKSource == RCC_SYSCLKSOURCE_PLLCLK)
 800124a:	687b      	ldr	r3, [r7, #4]
 800124c:	685b      	ldr	r3, [r3, #4]
 800124e:	2b02      	cmp	r3, #2
 8001250:	d107      	bne.n	8001262 <HAL_RCC_ClockConfig+0xce>
    {
      /* Check the PLL ready flag */
      if (__HAL_RCC_GET_FLAG(RCC_FLAG_PLLRDY) == RESET)
 8001252:	4b41      	ldr	r3, [pc, #260]	; (8001358 <HAL_RCC_ClockConfig+0x1c4>)
 8001254:	681b      	ldr	r3, [r3, #0]
 8001256:	f003 7300 	and.w	r3, r3, #33554432	; 0x2000000
 800125a:	2b00      	cmp	r3, #0
 800125c:	d109      	bne.n	8001272 <HAL_RCC_ClockConfig+0xde>
      {
        return HAL_ERROR;
 800125e:	2301      	movs	r3, #1
 8001260:	e073      	b.n	800134a <HAL_RCC_ClockConfig+0x1b6>
    }
    /* HSI is selected as System Clock Source */
    else
    {
      /* Check the HSI ready flag */
      if (__HAL_RCC_GET_FLAG(RCC_FLAG_HSIRDY) == RESET)
 8001262:	4b3d      	ldr	r3, [pc, #244]	; (8001358 <HAL_RCC_ClockConfig+0x1c4>)
 8001264:	681b      	ldr	r3, [r3, #0]
 8001266:	f003 0302 	and.w	r3, r3, #2
 800126a:	2b00      	cmp	r3, #0
 800126c:	d101      	bne.n	8001272 <HAL_RCC_ClockConfig+0xde>
      {
        return HAL_ERROR;
 800126e:	2301      	movs	r3, #1
 8001270:	e06b      	b.n	800134a <HAL_RCC_ClockConfig+0x1b6>
      }
    }
    __HAL_RCC_SYSCLK_CONFIG(RCC_ClkInitStruct->SYSCLKSource);
 8001272:	4b39      	ldr	r3, [pc, #228]	; (8001358 <HAL_RCC_ClockConfig+0x1c4>)
 8001274:	685b      	ldr	r3, [r3, #4]
 8001276:	f023 0203 	bic.w	r2, r3, #3
 800127a:	687b      	ldr	r3, [r7, #4]
 800127c:	685b      	ldr	r3, [r3, #4]
 800127e:	4936      	ldr	r1, [pc, #216]	; (8001358 <HAL_RCC_ClockConfig+0x1c4>)
 8001280:	4313      	orrs	r3, r2
 8001282:	604b      	str	r3, [r1, #4]

    /* Get Start Tick */
    tickstart = HAL_GetTick();
 8001284:	f7ff fa5e 	bl	8000744 <HAL_GetTick>
 8001288:	60f8      	str	r0, [r7, #12]

    while (__HAL_RCC_GET_SYSCLK_SOURCE() != (RCC_ClkInitStruct->SYSCLKSource << RCC_CFGR_SWS_Pos))
 800128a:	e00a      	b.n	80012a2 <HAL_RCC_ClockConfig+0x10e>
    {
      if ((HAL_GetTick() - tickstart) > CLOCKSWITCH_TIMEOUT_VALUE)
 800128c:	f7ff fa5a 	bl	8000744 <HAL_GetTick>
 8001290:	4602      	mov	r2, r0
 8001292:	68fb      	ldr	r3, [r7, #12]
 8001294:	1ad3      	subs	r3, r2, r3
 8001296:	f241 3288 	movw	r2, #5000	; 0x1388
 800129a:	4293      	cmp	r3, r2
 800129c:	d901      	bls.n	80012a2 <HAL_RCC_ClockConfig+0x10e>
      {
        return HAL_TIMEOUT;
 800129e:	2303      	movs	r3, #3
 80012a0:	e053      	b.n	800134a <HAL_RCC_ClockConfig+0x1b6>
    while (__HAL_RCC_GET_SYSCLK_SOURCE() != (RCC_ClkInitStruct->SYSCLKSource << RCC_CFGR_SWS_Pos))
 80012a2:	4b2d      	ldr	r3, [pc, #180]	; (8001358 <HAL_RCC_ClockConfig+0x1c4>)
 80012a4:	685b      	ldr	r3, [r3, #4]
 80012a6:	f003 020c 	and.w	r2, r3, #12
 80012aa:	687b      	ldr	r3, [r7, #4]
 80012ac:	685b      	ldr	r3, [r3, #4]
 80012ae:	009b      	lsls	r3, r3, #2
 80012b0:	429a      	cmp	r2, r3
 80012b2:	d1eb      	bne.n	800128c <HAL_RCC_ClockConfig+0xf8>
    }
  }

#if defined(FLASH_ACR_LATENCY)
  /* Decreasing the number of wait states because of lower CPU frequency */
  if (FLatency < __HAL_FLASH_GET_LATENCY())
 80012b4:	4b27      	ldr	r3, [pc, #156]	; (8001354 <HAL_RCC_ClockConfig+0x1c0>)
 80012b6:	681b      	ldr	r3, [r3, #0]
 80012b8:	f003 0307 	and.w	r3, r3, #7
 80012bc:	683a      	ldr	r2, [r7, #0]
 80012be:	429a      	cmp	r2, r3
 80012c0:	d210      	bcs.n	80012e4 <HAL_RCC_ClockConfig+0x150>
  {
    /* Program the new number of wait states to the LATENCY bits in the FLASH_ACR register */
    __HAL_FLASH_SET_LATENCY(FLatency);
 80012c2:	4b24      	ldr	r3, [pc, #144]	; (8001354 <HAL_RCC_ClockConfig+0x1c0>)
 80012c4:	681b      	ldr	r3, [r3, #0]
 80012c6:	f023 0207 	bic.w	r2, r3, #7
 80012ca:	4922      	ldr	r1, [pc, #136]	; (8001354 <HAL_RCC_ClockConfig+0x1c0>)
 80012cc:	683b      	ldr	r3, [r7, #0]
 80012ce:	4313      	orrs	r3, r2
 80012d0:	600b      	str	r3, [r1, #0]

    /* Check that the new number of wait states is taken into account to access the Flash
    memory by reading the FLASH_ACR register */
    if (__HAL_FLASH_GET_LATENCY() != FLatency)
 80012d2:	4b20      	ldr	r3, [pc, #128]	; (8001354 <HAL_RCC_ClockConfig+0x1c0>)
 80012d4:	681b      	ldr	r3, [r3, #0]
 80012d6:	f003 0307 	and.w	r3, r3, #7
 80012da:	683a      	ldr	r2, [r7, #0]
 80012dc:	429a      	cmp	r2, r3
 80012de:	d001      	beq.n	80012e4 <HAL_RCC_ClockConfig+0x150>
  {
    return HAL_ERROR;
 80012e0:	2301      	movs	r3, #1
 80012e2:	e032      	b.n	800134a <HAL_RCC_ClockConfig+0x1b6>
  }
}
#endif /* FLASH_ACR_LATENCY */

/*-------------------------- PCLK1 Configuration ---------------------------*/
if (((RCC_ClkInitStruct->ClockType) & RCC_CLOCKTYPE_PCLK1) == RCC_CLOCKTYPE_PCLK1)
 80012e4:	687b      	ldr	r3, [r7, #4]
 80012e6:	681b      	ldr	r3, [r3, #0]
 80012e8:	f003 0304 	and.w	r3, r3, #4
 80012ec:	2b00      	cmp	r3, #0
 80012ee:	d008      	beq.n	8001302 <HAL_RCC_ClockConfig+0x16e>
  {
    assert_param(IS_RCC_PCLK(RCC_ClkInitStruct->APB1CLKDivider));
    MODIFY_REG(RCC->CFGR, RCC_CFGR_PPRE1, RCC_ClkInitStruct->APB1CLKDivider);
 80012f0:	4b19      	ldr	r3, [pc, #100]	; (8001358 <HAL_RCC_ClockConfig+0x1c4>)
 80012f2:	685b      	ldr	r3, [r3, #4]
 80012f4:	f423 62e0 	bic.w	r2, r3, #1792	; 0x700
 80012f8:	687b      	ldr	r3, [r7, #4]
 80012fa:	68db      	ldr	r3, [r3, #12]
 80012fc:	4916      	ldr	r1, [pc, #88]	; (8001358 <HAL_RCC_ClockConfig+0x1c4>)
 80012fe:	4313      	orrs	r3, r2
 8001300:	604b      	str	r3, [r1, #4]
  }

  /*-------------------------- PCLK2 Configuration ---------------------------*/
  if (((RCC_ClkInitStruct->ClockType) & RCC_CLOCKTYPE_PCLK2) == RCC_CLOCKTYPE_PCLK2)
 8001302:	687b      	ldr	r3, [r7, #4]
 8001304:	681b      	ldr	r3, [r3, #0]
 8001306:	f003 0308 	and.w	r3, r3, #8
 800130a:	2b00      	cmp	r3, #0
 800130c:	d009      	beq.n	8001322 <HAL_RCC_ClockConfig+0x18e>
  {
    assert_param(IS_RCC_PCLK(RCC_ClkInitStruct->APB2CLKDivider));
    MODIFY_REG(RCC->CFGR, RCC_CFGR_PPRE2, ((RCC_ClkInitStruct->APB2CLKDivider) << 3));
 800130e:	4b12      	ldr	r3, [pc, #72]	; (8001358 <HAL_RCC_ClockConfig+0x1c4>)
 8001310:	685b      	ldr	r3, [r3, #4]
 8001312:	f423 5260 	bic.w	r2, r3, #14336	; 0x3800
 8001316:	687b      	ldr	r3, [r7, #4]
 8001318:	691b      	ldr	r3, [r3, #16]
 800131a:	00db      	lsls	r3, r3, #3
 800131c:	490e      	ldr	r1, [pc, #56]	; (8001358 <HAL_RCC_ClockConfig+0x1c4>)
 800131e:	4313      	orrs	r3, r2
 8001320:	604b      	str	r3, [r1, #4]
  }

  /* Update the SystemCoreClock global variable */
  SystemCoreClock = HAL_RCC_GetSysClockFreq() >> AHBPrescTable[(RCC->CFGR & RCC_CFGR_HPRE) >> RCC_CFGR_HPRE_Pos];
 8001322:	f000 f821 	bl	8001368 <HAL_RCC_GetSysClockFreq>
 8001326:	4602      	mov	r2, r0
 8001328:	4b0b      	ldr	r3, [pc, #44]	; (8001358 <HAL_RCC_ClockConfig+0x1c4>)
 800132a:	685b      	ldr	r3, [r3, #4]
 800132c:	091b      	lsrs	r3, r3, #4
 800132e:	f003 030f 	and.w	r3, r3, #15
 8001332:	490a      	ldr	r1, [pc, #40]	; (800135c <HAL_RCC_ClockConfig+0x1c8>)
 8001334:	5ccb      	ldrb	r3, [r1, r3]
 8001336:	fa22 f303 	lsr.w	r3, r2, r3
 800133a:	4a09      	ldr	r2, [pc, #36]	; (8001360 <HAL_RCC_ClockConfig+0x1cc>)
 800133c:	6013      	str	r3, [r2, #0]

  /* Configure the source of time base considering new system clocks settings*/
  HAL_InitTick(uwTickPrio);
 800133e:	4b09      	ldr	r3, [pc, #36]	; (8001364 <HAL_RCC_ClockConfig+0x1d0>)
 8001340:	681b      	ldr	r3, [r3, #0]
 8001342:	4618      	mov	r0, r3
 8001344:	f7ff f9bc 	bl	80006c0 <HAL_InitTick>

  return HAL_OK;
 8001348:	2300      	movs	r3, #0
}
 800134a:	4618      	mov	r0, r3
 800134c:	3710      	adds	r7, #16
 800134e:	46bd      	mov	sp, r7
 8001350:	bd80      	pop	{r7, pc}
 8001352:	bf00      	nop
 8001354:	40022000 	.word	0x40022000
 8001358:	40021000 	.word	0x40021000
 800135c:	08001cec 	.word	0x08001cec
 8001360:	20000000 	.word	0x20000000
 8001364:	20000004 	.word	0x20000004

08001368 <HAL_RCC_GetSysClockFreq>:
  *         right SYSCLK value. Otherwise, any configuration based on this function will be incorrect.
  *
  * @retval SYSCLK frequency
  */
uint32_t HAL_RCC_GetSysClockFreq(void)
{
 8001368:	b490      	push	{r4, r7}
 800136a:	b08a      	sub	sp, #40	; 0x28
 800136c:	af00      	add	r7, sp, #0
#if defined(RCC_CFGR2_PREDIV1SRC)
  const uint8_t aPLLMULFactorTable[14] = {0, 0, 4, 5, 6, 7, 8, 9, 0, 0, 0, 0, 0, 13};
  const uint8_t aPredivFactorTable[16] = {1, 2, 3, 4, 5, 6, 7, 8, 9, 10, 11, 12, 13, 14, 15, 16};
#else
  const uint8_t aPLLMULFactorTable[16] = {2, 3, 4, 5, 6, 7, 8, 9, 10, 11, 12, 13, 14, 15, 16, 16};
 800136e:	4b29      	ldr	r3, [pc, #164]	; (8001414 <HAL_RCC_GetSysClockFreq+0xac>)
 8001370:	1d3c      	adds	r4, r7, #4
 8001372:	cb0f      	ldmia	r3, {r0, r1, r2, r3}
 8001374:	e884 000f 	stmia.w	r4, {r0, r1, r2, r3}
#if defined(RCC_CFGR2_PREDIV1)
  const uint8_t aPredivFactorTable[16] = {1, 2, 3, 4, 5, 6, 7, 8, 9, 10, 11, 12, 13, 14, 15, 16};
#else
  const uint8_t aPredivFactorTable[2] = {1, 2};
 8001378:	f240 2301 	movw	r3, #513	; 0x201
 800137c:	803b      	strh	r3, [r7, #0]
#endif /*RCC_CFGR2_PREDIV1*/

#endif
  uint32_t tmpreg = 0U, prediv = 0U, pllclk = 0U, pllmul = 0U;
 800137e:	2300      	movs	r3, #0
 8001380:	61fb      	str	r3, [r7, #28]
 8001382:	2300      	movs	r3, #0
 8001384:	61bb      	str	r3, [r7, #24]
 8001386:	2300      	movs	r3, #0
 8001388:	627b      	str	r3, [r7, #36]	; 0x24
 800138a:	2300      	movs	r3, #0
 800138c:	617b      	str	r3, [r7, #20]
  uint32_t sysclockfreq = 0U;
 800138e:	2300      	movs	r3, #0
 8001390:	623b      	str	r3, [r7, #32]
#if defined(RCC_CFGR2_PREDIV1SRC)
  uint32_t prediv2 = 0U, pll2mul = 0U;
#endif /*RCC_CFGR2_PREDIV1SRC*/

  tmpreg = RCC->CFGR;
 8001392:	4b21      	ldr	r3, [pc, #132]	; (8001418 <HAL_RCC_GetSysClockFreq+0xb0>)
 8001394:	685b      	ldr	r3, [r3, #4]
 8001396:	61fb      	str	r3, [r7, #28]

  /* Get SYSCLK source -------------------------------------------------------*/
  switch (tmpreg & RCC_CFGR_SWS)
 8001398:	69fb      	ldr	r3, [r7, #28]
 800139a:	f003 030c 	and.w	r3, r3, #12
 800139e:	2b04      	cmp	r3, #4
 80013a0:	d002      	beq.n	80013a8 <HAL_RCC_GetSysClockFreq+0x40>
 80013a2:	2b08      	cmp	r3, #8
 80013a4:	d003      	beq.n	80013ae <HAL_RCC_GetSysClockFreq+0x46>
 80013a6:	e02b      	b.n	8001400 <HAL_RCC_GetSysClockFreq+0x98>
  {
    case RCC_SYSCLKSOURCE_STATUS_HSE:  /* HSE used as system clock */
    {
      sysclockfreq = HSE_VALUE;
 80013a8:	4b1c      	ldr	r3, [pc, #112]	; (800141c <HAL_RCC_GetSysClockFreq+0xb4>)
 80013aa:	623b      	str	r3, [r7, #32]
      break;
 80013ac:	e02b      	b.n	8001406 <HAL_RCC_GetSysClockFreq+0x9e>
    }
    case RCC_SYSCLKSOURCE_STATUS_PLLCLK:  /* PLL used as system clock */
    {
      pllmul = aPLLMULFactorTable[(uint32_t)(tmpreg & RCC_CFGR_PLLMULL) >> RCC_CFGR_PLLMULL_Pos];
 80013ae:	69fb      	ldr	r3, [r7, #28]
 80013b0:	0c9b      	lsrs	r3, r3, #18
 80013b2:	f003 030f 	and.w	r3, r3, #15
 80013b6:	3328      	adds	r3, #40	; 0x28
 80013b8:	443b      	add	r3, r7
 80013ba:	f813 3c24 	ldrb.w	r3, [r3, #-36]
 80013be:	617b      	str	r3, [r7, #20]
      if ((tmpreg & RCC_CFGR_PLLSRC) != RCC_PLLSOURCE_HSI_DIV2)
 80013c0:	69fb      	ldr	r3, [r7, #28]
 80013c2:	f403 3380 	and.w	r3, r3, #65536	; 0x10000
 80013c6:	2b00      	cmp	r3, #0
 80013c8:	d012      	beq.n	80013f0 <HAL_RCC_GetSysClockFreq+0x88>
      {
#if defined(RCC_CFGR2_PREDIV1)
        prediv = aPredivFactorTable[(uint32_t)(RCC->CFGR2 & RCC_CFGR2_PREDIV1) >> RCC_CFGR2_PREDIV1_Pos];
#else
        prediv = aPredivFactorTable[(uint32_t)(RCC->CFGR & RCC_CFGR_PLLXTPRE) >> RCC_CFGR_PLLXTPRE_Pos];
 80013ca:	4b13      	ldr	r3, [pc, #76]	; (8001418 <HAL_RCC_GetSysClockFreq+0xb0>)
 80013cc:	685b      	ldr	r3, [r3, #4]
 80013ce:	0c5b      	lsrs	r3, r3, #17
 80013d0:	f003 0301 	and.w	r3, r3, #1
 80013d4:	3328      	adds	r3, #40	; 0x28
 80013d6:	443b      	add	r3, r7
 80013d8:	f813 3c28 	ldrb.w	r3, [r3, #-40]
 80013dc:	61bb      	str	r3, [r7, #24]
        {
          pllclk = pllclk / 2;
        }
#else
        /* HSE used as PLL clock source : PLLCLK = HSE/PREDIV1 * PLLMUL */
        pllclk = (uint32_t)((HSE_VALUE  * pllmul) / prediv);
 80013de:	697b      	ldr	r3, [r7, #20]
 80013e0:	4a0e      	ldr	r2, [pc, #56]	; (800141c <HAL_RCC_GetSysClockFreq+0xb4>)
 80013e2:	fb03 f202 	mul.w	r2, r3, r2
 80013e6:	69bb      	ldr	r3, [r7, #24]
 80013e8:	fbb2 f3f3 	udiv	r3, r2, r3
 80013ec:	627b      	str	r3, [r7, #36]	; 0x24
 80013ee:	e004      	b.n	80013fa <HAL_RCC_GetSysClockFreq+0x92>
#endif /*RCC_CFGR2_PREDIV1SRC*/
      }
      else
      {
        /* HSI used as PLL clock source : PLLCLK = HSI/2 * PLLMUL */
        pllclk = (uint32_t)((HSI_VALUE >> 1) * pllmul);
 80013f0:	697b      	ldr	r3, [r7, #20]
 80013f2:	4a0b      	ldr	r2, [pc, #44]	; (8001420 <HAL_RCC_GetSysClockFreq+0xb8>)
 80013f4:	fb02 f303 	mul.w	r3, r2, r3
 80013f8:	627b      	str	r3, [r7, #36]	; 0x24
      }
      sysclockfreq = pllclk;
 80013fa:	6a7b      	ldr	r3, [r7, #36]	; 0x24
 80013fc:	623b      	str	r3, [r7, #32]
      break;
 80013fe:	e002      	b.n	8001406 <HAL_RCC_GetSysClockFreq+0x9e>
    }
    case RCC_SYSCLKSOURCE_STATUS_HSI:  /* HSI used as system clock source */
    default: /* HSI used as system clock */
    {
      sysclockfreq = HSI_VALUE;
 8001400:	4b06      	ldr	r3, [pc, #24]	; (800141c <HAL_RCC_GetSysClockFreq+0xb4>)
 8001402:	623b      	str	r3, [r7, #32]
      break;
 8001404:	bf00      	nop
    }
  }
  return sysclockfreq;
 8001406:	6a3b      	ldr	r3, [r7, #32]
}
 8001408:	4618      	mov	r0, r3
 800140a:	3728      	adds	r7, #40	; 0x28
 800140c:	46bd      	mov	sp, r7
 800140e:	bc90      	pop	{r4, r7}
 8001410:	4770      	bx	lr
 8001412:	bf00      	nop
 8001414:	08001cdc 	.word	0x08001cdc
 8001418:	40021000 	.word	0x40021000
 800141c:	007a1200 	.word	0x007a1200
 8001420:	003d0900 	.word	0x003d0900

08001424 <RCC_Delay>:
  * @brief  This function provides delay (in milliseconds) based on CPU cycles method.
  * @param  mdelay: specifies the delay time length, in milliseconds.
  * @retval None
  */
static void RCC_Delay(uint32_t mdelay)
{
 8001424:	b480      	push	{r7}
 8001426:	b085      	sub	sp, #20
 8001428:	af00      	add	r7, sp, #0
 800142a:	6078      	str	r0, [r7, #4]
  __IO uint32_t Delay = mdelay * (SystemCoreClock / 8U / 1000U);
 800142c:	4b0a      	ldr	r3, [pc, #40]	; (8001458 <RCC_Delay+0x34>)
 800142e:	681b      	ldr	r3, [r3, #0]
 8001430:	4a0a      	ldr	r2, [pc, #40]	; (800145c <RCC_Delay+0x38>)
 8001432:	fba2 2303 	umull	r2, r3, r2, r3
 8001436:	0a5b      	lsrs	r3, r3, #9
 8001438:	687a      	ldr	r2, [r7, #4]
 800143a:	fb02 f303 	mul.w	r3, r2, r3
 800143e:	60fb      	str	r3, [r7, #12]
  do
  {
    __NOP();
 8001440:	bf00      	nop
  }
  while (Delay --);
 8001442:	68fb      	ldr	r3, [r7, #12]
 8001444:	1e5a      	subs	r2, r3, #1
 8001446:	60fa      	str	r2, [r7, #12]
 8001448:	2b00      	cmp	r3, #0
 800144a:	d1f9      	bne.n	8001440 <RCC_Delay+0x1c>
}
 800144c:	bf00      	nop
 800144e:	bf00      	nop
 8001450:	3714      	adds	r7, #20
 8001452:	46bd      	mov	sp, r7
 8001454:	bc80      	pop	{r7}
 8001456:	4770      	bx	lr
 8001458:	20000000 	.word	0x20000000
 800145c:	10624dd3 	.word	0x10624dd3

08001460 <HAL_TIM_PWM_Init>:
  *         Ex: call @ref HAL_TIM_PWM_DeInit() before HAL_TIM_PWM_Init()
  * @param  htim TIM PWM handle
  * @retval HAL status
  */
HAL_StatusTypeDef HAL_TIM_PWM_Init(TIM_HandleTypeDef *htim)
{
 8001460:	b580      	push	{r7, lr}
 8001462:	b082      	sub	sp, #8
 8001464:	af00      	add	r7, sp, #0
 8001466:	6078      	str	r0, [r7, #4]
  /* Check the TIM handle allocation */
  if (htim == NULL)
 8001468:	687b      	ldr	r3, [r7, #4]
 800146a:	2b00      	cmp	r3, #0
 800146c:	d101      	bne.n	8001472 <HAL_TIM_PWM_Init+0x12>
  {
    return HAL_ERROR;
 800146e:	2301      	movs	r3, #1
 8001470:	e041      	b.n	80014f6 <HAL_TIM_PWM_Init+0x96>
  assert_param(IS_TIM_INSTANCE(htim->Instance));
  assert_param(IS_TIM_COUNTER_MODE(htim->Init.CounterMode));
  assert_param(IS_TIM_CLOCKDIVISION_DIV(htim->Init.ClockDivision));
  assert_param(IS_TIM_AUTORELOAD_PRELOAD(htim->Init.AutoReloadPreload));

  if (htim->State == HAL_TIM_STATE_RESET)
 8001472:	687b      	ldr	r3, [r7, #4]
 8001474:	f893 303d 	ldrb.w	r3, [r3, #61]	; 0x3d
 8001478:	b2db      	uxtb	r3, r3
 800147a:	2b00      	cmp	r3, #0
 800147c:	d106      	bne.n	800148c <HAL_TIM_PWM_Init+0x2c>
  {
    /* Allocate lock resource and initialize it */
    htim->Lock = HAL_UNLOCKED;
 800147e:	687b      	ldr	r3, [r7, #4]
 8001480:	2200      	movs	r2, #0
 8001482:	f883 203c 	strb.w	r2, [r3, #60]	; 0x3c
    }
    /* Init the low level hardware : GPIO, CLOCK, NVIC */
    htim->PWM_MspInitCallback(htim);
#else
    /* Init the low level hardware : GPIO, CLOCK, NVIC and DMA */
    HAL_TIM_PWM_MspInit(htim);
 8001486:	6878      	ldr	r0, [r7, #4]
 8001488:	f7ff f864 	bl	8000554 <HAL_TIM_PWM_MspInit>
#endif /* USE_HAL_TIM_REGISTER_CALLBACKS */
  }

  /* Set the TIM state */
  htim->State = HAL_TIM_STATE_BUSY;
 800148c:	687b      	ldr	r3, [r7, #4]
 800148e:	2202      	movs	r2, #2
 8001490:	f883 203d 	strb.w	r2, [r3, #61]	; 0x3d

  /* Init the base time for the PWM */
  TIM_Base_SetConfig(htim->Instance, &htim->Init);
 8001494:	687b      	ldr	r3, [r7, #4]
 8001496:	681a      	ldr	r2, [r3, #0]
 8001498:	687b      	ldr	r3, [r7, #4]
 800149a:	3304      	adds	r3, #4
 800149c:	4619      	mov	r1, r3
 800149e:	4610      	mov	r0, r2
 80014a0:	f000 f988 	bl	80017b4 <TIM_Base_SetConfig>

  /* Initialize the DMA burst operation state */
  htim->DMABurstState = HAL_DMA_BURST_STATE_READY;
 80014a4:	687b      	ldr	r3, [r7, #4]
 80014a6:	2201      	movs	r2, #1
 80014a8:	f883 2046 	strb.w	r2, [r3, #70]	; 0x46

  /* Initialize the TIM channels state */
  TIM_CHANNEL_STATE_SET_ALL(htim, HAL_TIM_CHANNEL_STATE_READY);
 80014ac:	687b      	ldr	r3, [r7, #4]
 80014ae:	2201      	movs	r2, #1
 80014b0:	f883 203e 	strb.w	r2, [r3, #62]	; 0x3e
 80014b4:	687b      	ldr	r3, [r7, #4]
 80014b6:	2201      	movs	r2, #1
 80014b8:	f883 203f 	strb.w	r2, [r3, #63]	; 0x3f
 80014bc:	687b      	ldr	r3, [r7, #4]
 80014be:	2201      	movs	r2, #1
 80014c0:	f883 2040 	strb.w	r2, [r3, #64]	; 0x40
 80014c4:	687b      	ldr	r3, [r7, #4]
 80014c6:	2201      	movs	r2, #1
 80014c8:	f883 2041 	strb.w	r2, [r3, #65]	; 0x41
  TIM_CHANNEL_N_STATE_SET_ALL(htim, HAL_TIM_CHANNEL_STATE_READY);
 80014cc:	687b      	ldr	r3, [r7, #4]
 80014ce:	2201      	movs	r2, #1
 80014d0:	f883 2042 	strb.w	r2, [r3, #66]	; 0x42
 80014d4:	687b      	ldr	r3, [r7, #4]
 80014d6:	2201      	movs	r2, #1
 80014d8:	f883 2043 	strb.w	r2, [r3, #67]	; 0x43
 80014dc:	687b      	ldr	r3, [r7, #4]
 80014de:	2201      	movs	r2, #1
 80014e0:	f883 2044 	strb.w	r2, [r3, #68]	; 0x44
 80014e4:	687b      	ldr	r3, [r7, #4]
 80014e6:	2201      	movs	r2, #1
 80014e8:	f883 2045 	strb.w	r2, [r3, #69]	; 0x45

  /* Initialize the TIM state*/
  htim->State = HAL_TIM_STATE_READY;
 80014ec:	687b      	ldr	r3, [r7, #4]
 80014ee:	2201      	movs	r2, #1
 80014f0:	f883 203d 	strb.w	r2, [r3, #61]	; 0x3d

  return HAL_OK;
 80014f4:	2300      	movs	r3, #0
}
 80014f6:	4618      	mov	r0, r3
 80014f8:	3708      	adds	r7, #8
 80014fa:	46bd      	mov	sp, r7
 80014fc:	bd80      	pop	{r7, pc}
	...

08001500 <HAL_TIM_PWM_Start>:
  *            @arg TIM_CHANNEL_3: TIM Channel 3 selected
  *            @arg TIM_CHANNEL_4: TIM Channel 4 selected
  * @retval HAL status
  */
HAL_StatusTypeDef HAL_TIM_PWM_Start(TIM_HandleTypeDef *htim, uint32_t Channel)
{
 8001500:	b580      	push	{r7, lr}
 8001502:	b084      	sub	sp, #16
 8001504:	af00      	add	r7, sp, #0
 8001506:	6078      	str	r0, [r7, #4]
 8001508:	6039      	str	r1, [r7, #0]

  /* Check the parameters */
  assert_param(IS_TIM_CCX_INSTANCE(htim->Instance, Channel));

  /* Check the TIM channel state */
  if (TIM_CHANNEL_STATE_GET(htim, Channel) != HAL_TIM_CHANNEL_STATE_READY)
 800150a:	683b      	ldr	r3, [r7, #0]
 800150c:	2b00      	cmp	r3, #0
 800150e:	d109      	bne.n	8001524 <HAL_TIM_PWM_Start+0x24>
 8001510:	687b      	ldr	r3, [r7, #4]
 8001512:	f893 303e 	ldrb.w	r3, [r3, #62]	; 0x3e
 8001516:	b2db      	uxtb	r3, r3
 8001518:	2b01      	cmp	r3, #1
 800151a:	bf14      	ite	ne
 800151c:	2301      	movne	r3, #1
 800151e:	2300      	moveq	r3, #0
 8001520:	b2db      	uxtb	r3, r3
 8001522:	e022      	b.n	800156a <HAL_TIM_PWM_Start+0x6a>
 8001524:	683b      	ldr	r3, [r7, #0]
 8001526:	2b04      	cmp	r3, #4
 8001528:	d109      	bne.n	800153e <HAL_TIM_PWM_Start+0x3e>
 800152a:	687b      	ldr	r3, [r7, #4]
 800152c:	f893 303f 	ldrb.w	r3, [r3, #63]	; 0x3f
 8001530:	b2db      	uxtb	r3, r3
 8001532:	2b01      	cmp	r3, #1
 8001534:	bf14      	ite	ne
 8001536:	2301      	movne	r3, #1
 8001538:	2300      	moveq	r3, #0
 800153a:	b2db      	uxtb	r3, r3
 800153c:	e015      	b.n	800156a <HAL_TIM_PWM_Start+0x6a>
 800153e:	683b      	ldr	r3, [r7, #0]
 8001540:	2b08      	cmp	r3, #8
 8001542:	d109      	bne.n	8001558 <HAL_TIM_PWM_Start+0x58>
 8001544:	687b      	ldr	r3, [r7, #4]
 8001546:	f893 3040 	ldrb.w	r3, [r3, #64]	; 0x40
 800154a:	b2db      	uxtb	r3, r3
 800154c:	2b01      	cmp	r3, #1
 800154e:	bf14      	ite	ne
 8001550:	2301      	movne	r3, #1
 8001552:	2300      	moveq	r3, #0
 8001554:	b2db      	uxtb	r3, r3
 8001556:	e008      	b.n	800156a <HAL_TIM_PWM_Start+0x6a>
 8001558:	687b      	ldr	r3, [r7, #4]
 800155a:	f893 3041 	ldrb.w	r3, [r3, #65]	; 0x41
 800155e:	b2db      	uxtb	r3, r3
 8001560:	2b01      	cmp	r3, #1
 8001562:	bf14      	ite	ne
 8001564:	2301      	movne	r3, #1
 8001566:	2300      	moveq	r3, #0
 8001568:	b2db      	uxtb	r3, r3
 800156a:	2b00      	cmp	r3, #0
 800156c:	d001      	beq.n	8001572 <HAL_TIM_PWM_Start+0x72>
  {
    return HAL_ERROR;
 800156e:	2301      	movs	r3, #1
 8001570:	e059      	b.n	8001626 <HAL_TIM_PWM_Start+0x126>
  }

  /* Set the TIM channel state */
  TIM_CHANNEL_STATE_SET(htim, Channel, HAL_TIM_CHANNEL_STATE_BUSY);
 8001572:	683b      	ldr	r3, [r7, #0]
 8001574:	2b00      	cmp	r3, #0
 8001576:	d104      	bne.n	8001582 <HAL_TIM_PWM_Start+0x82>
 8001578:	687b      	ldr	r3, [r7, #4]
 800157a:	2202      	movs	r2, #2
 800157c:	f883 203e 	strb.w	r2, [r3, #62]	; 0x3e
 8001580:	e013      	b.n	80015aa <HAL_TIM_PWM_Start+0xaa>
 8001582:	683b      	ldr	r3, [r7, #0]
 8001584:	2b04      	cmp	r3, #4
 8001586:	d104      	bne.n	8001592 <HAL_TIM_PWM_Start+0x92>
 8001588:	687b      	ldr	r3, [r7, #4]
 800158a:	2202      	movs	r2, #2
 800158c:	f883 203f 	strb.w	r2, [r3, #63]	; 0x3f
 8001590:	e00b      	b.n	80015aa <HAL_TIM_PWM_Start+0xaa>
 8001592:	683b      	ldr	r3, [r7, #0]
 8001594:	2b08      	cmp	r3, #8
 8001596:	d104      	bne.n	80015a2 <HAL_TIM_PWM_Start+0xa2>
 8001598:	687b      	ldr	r3, [r7, #4]
 800159a:	2202      	movs	r2, #2
 800159c:	f883 2040 	strb.w	r2, [r3, #64]	; 0x40
 80015a0:	e003      	b.n	80015aa <HAL_TIM_PWM_Start+0xaa>
 80015a2:	687b      	ldr	r3, [r7, #4]
 80015a4:	2202      	movs	r2, #2
 80015a6:	f883 2041 	strb.w	r2, [r3, #65]	; 0x41

  /* Enable the Capture compare channel */
  TIM_CCxChannelCmd(htim->Instance, Channel, TIM_CCx_ENABLE);
 80015aa:	687b      	ldr	r3, [r7, #4]
 80015ac:	681b      	ldr	r3, [r3, #0]
 80015ae:	2201      	movs	r2, #1
 80015b0:	6839      	ldr	r1, [r7, #0]
 80015b2:	4618      	mov	r0, r3
 80015b4:	f000 fade 	bl	8001b74 <TIM_CCxChannelCmd>

  if (IS_TIM_BREAK_INSTANCE(htim->Instance) != RESET)
 80015b8:	687b      	ldr	r3, [r7, #4]
 80015ba:	681b      	ldr	r3, [r3, #0]
 80015bc:	4a1c      	ldr	r2, [pc, #112]	; (8001630 <HAL_TIM_PWM_Start+0x130>)
 80015be:	4293      	cmp	r3, r2
 80015c0:	d107      	bne.n	80015d2 <HAL_TIM_PWM_Start+0xd2>
  {
    /* Enable the main output */
    __HAL_TIM_MOE_ENABLE(htim);
 80015c2:	687b      	ldr	r3, [r7, #4]
 80015c4:	681b      	ldr	r3, [r3, #0]
 80015c6:	6c5a      	ldr	r2, [r3, #68]	; 0x44
 80015c8:	687b      	ldr	r3, [r7, #4]
 80015ca:	681b      	ldr	r3, [r3, #0]
 80015cc:	f442 4200 	orr.w	r2, r2, #32768	; 0x8000
 80015d0:	645a      	str	r2, [r3, #68]	; 0x44
  }

  /* Enable the Peripheral, except in trigger mode where enable is automatically done with trigger */
  if (IS_TIM_SLAVE_INSTANCE(htim->Instance))
 80015d2:	687b      	ldr	r3, [r7, #4]
 80015d4:	681b      	ldr	r3, [r3, #0]
 80015d6:	4a16      	ldr	r2, [pc, #88]	; (8001630 <HAL_TIM_PWM_Start+0x130>)
 80015d8:	4293      	cmp	r3, r2
 80015da:	d009      	beq.n	80015f0 <HAL_TIM_PWM_Start+0xf0>
 80015dc:	687b      	ldr	r3, [r7, #4]
 80015de:	681b      	ldr	r3, [r3, #0]
 80015e0:	f1b3 4f80 	cmp.w	r3, #1073741824	; 0x40000000
 80015e4:	d004      	beq.n	80015f0 <HAL_TIM_PWM_Start+0xf0>
 80015e6:	687b      	ldr	r3, [r7, #4]
 80015e8:	681b      	ldr	r3, [r3, #0]
 80015ea:	4a12      	ldr	r2, [pc, #72]	; (8001634 <HAL_TIM_PWM_Start+0x134>)
 80015ec:	4293      	cmp	r3, r2
 80015ee:	d111      	bne.n	8001614 <HAL_TIM_PWM_Start+0x114>
  {
    tmpsmcr = htim->Instance->SMCR & TIM_SMCR_SMS;
 80015f0:	687b      	ldr	r3, [r7, #4]
 80015f2:	681b      	ldr	r3, [r3, #0]
 80015f4:	689b      	ldr	r3, [r3, #8]
 80015f6:	f003 0307 	and.w	r3, r3, #7
 80015fa:	60fb      	str	r3, [r7, #12]
    if (!IS_TIM_SLAVEMODE_TRIGGER_ENABLED(tmpsmcr))
 80015fc:	68fb      	ldr	r3, [r7, #12]
 80015fe:	2b06      	cmp	r3, #6
 8001600:	d010      	beq.n	8001624 <HAL_TIM_PWM_Start+0x124>
    {
      __HAL_TIM_ENABLE(htim);
 8001602:	687b      	ldr	r3, [r7, #4]
 8001604:	681b      	ldr	r3, [r3, #0]
 8001606:	681a      	ldr	r2, [r3, #0]
 8001608:	687b      	ldr	r3, [r7, #4]
 800160a:	681b      	ldr	r3, [r3, #0]
 800160c:	f042 0201 	orr.w	r2, r2, #1
 8001610:	601a      	str	r2, [r3, #0]
    if (!IS_TIM_SLAVEMODE_TRIGGER_ENABLED(tmpsmcr))
 8001612:	e007      	b.n	8001624 <HAL_TIM_PWM_Start+0x124>
    }
  }
  else
  {
    __HAL_TIM_ENABLE(htim);
 8001614:	687b      	ldr	r3, [r7, #4]
 8001616:	681b      	ldr	r3, [r3, #0]
 8001618:	681a      	ldr	r2, [r3, #0]
 800161a:	687b      	ldr	r3, [r7, #4]
 800161c:	681b      	ldr	r3, [r3, #0]
 800161e:	f042 0201 	orr.w	r2, r2, #1
 8001622:	601a      	str	r2, [r3, #0]
  }

  /* Return function status */
  return HAL_OK;
 8001624:	2300      	movs	r3, #0
}
 8001626:	4618      	mov	r0, r3
 8001628:	3710      	adds	r7, #16
 800162a:	46bd      	mov	sp, r7
 800162c:	bd80      	pop	{r7, pc}
 800162e:	bf00      	nop
 8001630:	40012c00 	.word	0x40012c00
 8001634:	40000400 	.word	0x40000400

08001638 <HAL_TIM_PWM_ConfigChannel>:
  * @retval HAL status
  */
HAL_StatusTypeDef HAL_TIM_PWM_ConfigChannel(TIM_HandleTypeDef *htim,
                                            TIM_OC_InitTypeDef *sConfig,
                                            uint32_t Channel)
{
 8001638:	b580      	push	{r7, lr}
 800163a:	b084      	sub	sp, #16
 800163c:	af00      	add	r7, sp, #0
 800163e:	60f8      	str	r0, [r7, #12]
 8001640:	60b9      	str	r1, [r7, #8]
 8001642:	607a      	str	r2, [r7, #4]
  assert_param(IS_TIM_PWM_MODE(sConfig->OCMode));
  assert_param(IS_TIM_OC_POLARITY(sConfig->OCPolarity));
  assert_param(IS_TIM_FAST_STATE(sConfig->OCFastMode));

  /* Process Locked */
  __HAL_LOCK(htim);
 8001644:	68fb      	ldr	r3, [r7, #12]
 8001646:	f893 303c 	ldrb.w	r3, [r3, #60]	; 0x3c
 800164a:	2b01      	cmp	r3, #1
 800164c:	d101      	bne.n	8001652 <HAL_TIM_PWM_ConfigChannel+0x1a>
 800164e:	2302      	movs	r3, #2
 8001650:	e0ac      	b.n	80017ac <HAL_TIM_PWM_ConfigChannel+0x174>
 8001652:	68fb      	ldr	r3, [r7, #12]
 8001654:	2201      	movs	r2, #1
 8001656:	f883 203c 	strb.w	r2, [r3, #60]	; 0x3c

  switch (Channel)
 800165a:	687b      	ldr	r3, [r7, #4]
 800165c:	2b0c      	cmp	r3, #12
 800165e:	f200 809f 	bhi.w	80017a0 <HAL_TIM_PWM_ConfigChannel+0x168>
 8001662:	a201      	add	r2, pc, #4	; (adr r2, 8001668 <HAL_TIM_PWM_ConfigChannel+0x30>)
 8001664:	f852 f023 	ldr.w	pc, [r2, r3, lsl #2]
 8001668:	0800169d 	.word	0x0800169d
 800166c:	080017a1 	.word	0x080017a1
 8001670:	080017a1 	.word	0x080017a1
 8001674:	080017a1 	.word	0x080017a1
 8001678:	080016dd 	.word	0x080016dd
 800167c:	080017a1 	.word	0x080017a1
 8001680:	080017a1 	.word	0x080017a1
 8001684:	080017a1 	.word	0x080017a1
 8001688:	0800171f 	.word	0x0800171f
 800168c:	080017a1 	.word	0x080017a1
 8001690:	080017a1 	.word	0x080017a1
 8001694:	080017a1 	.word	0x080017a1
 8001698:	0800175f 	.word	0x0800175f
    {
      /* Check the parameters */
      assert_param(IS_TIM_CC1_INSTANCE(htim->Instance));

      /* Configure the Channel 1 in PWM mode */
      TIM_OC1_SetConfig(htim->Instance, sConfig);
 800169c:	68fb      	ldr	r3, [r7, #12]
 800169e:	681b      	ldr	r3, [r3, #0]
 80016a0:	68b9      	ldr	r1, [r7, #8]
 80016a2:	4618      	mov	r0, r3
 80016a4:	f000 f8de 	bl	8001864 <TIM_OC1_SetConfig>

      /* Set the Preload enable bit for channel1 */
      htim->Instance->CCMR1 |= TIM_CCMR1_OC1PE;
 80016a8:	68fb      	ldr	r3, [r7, #12]
 80016aa:	681b      	ldr	r3, [r3, #0]
 80016ac:	699a      	ldr	r2, [r3, #24]
 80016ae:	68fb      	ldr	r3, [r7, #12]
 80016b0:	681b      	ldr	r3, [r3, #0]
 80016b2:	f042 0208 	orr.w	r2, r2, #8
 80016b6:	619a      	str	r2, [r3, #24]

      /* Configure the Output Fast mode */
      htim->Instance->CCMR1 &= ~TIM_CCMR1_OC1FE;
 80016b8:	68fb      	ldr	r3, [r7, #12]
 80016ba:	681b      	ldr	r3, [r3, #0]
 80016bc:	699a      	ldr	r2, [r3, #24]
 80016be:	68fb      	ldr	r3, [r7, #12]
 80016c0:	681b      	ldr	r3, [r3, #0]
 80016c2:	f022 0204 	bic.w	r2, r2, #4
 80016c6:	619a      	str	r2, [r3, #24]
      htim->Instance->CCMR1 |= sConfig->OCFastMode;
 80016c8:	68fb      	ldr	r3, [r7, #12]
 80016ca:	681b      	ldr	r3, [r3, #0]
 80016cc:	6999      	ldr	r1, [r3, #24]
 80016ce:	68bb      	ldr	r3, [r7, #8]
 80016d0:	691a      	ldr	r2, [r3, #16]
 80016d2:	68fb      	ldr	r3, [r7, #12]
 80016d4:	681b      	ldr	r3, [r3, #0]
 80016d6:	430a      	orrs	r2, r1
 80016d8:	619a      	str	r2, [r3, #24]
      break;
 80016da:	e062      	b.n	80017a2 <HAL_TIM_PWM_ConfigChannel+0x16a>
    {
      /* Check the parameters */
      assert_param(IS_TIM_CC2_INSTANCE(htim->Instance));

      /* Configure the Channel 2 in PWM mode */
      TIM_OC2_SetConfig(htim->Instance, sConfig);
 80016dc:	68fb      	ldr	r3, [r7, #12]
 80016de:	681b      	ldr	r3, [r3, #0]
 80016e0:	68b9      	ldr	r1, [r7, #8]
 80016e2:	4618      	mov	r0, r3
 80016e4:	f000 f924 	bl	8001930 <TIM_OC2_SetConfig>

      /* Set the Preload enable bit for channel2 */
      htim->Instance->CCMR1 |= TIM_CCMR1_OC2PE;
 80016e8:	68fb      	ldr	r3, [r7, #12]
 80016ea:	681b      	ldr	r3, [r3, #0]
 80016ec:	699a      	ldr	r2, [r3, #24]
 80016ee:	68fb      	ldr	r3, [r7, #12]
 80016f0:	681b      	ldr	r3, [r3, #0]
 80016f2:	f442 6200 	orr.w	r2, r2, #2048	; 0x800
 80016f6:	619a      	str	r2, [r3, #24]

      /* Configure the Output Fast mode */
      htim->Instance->CCMR1 &= ~TIM_CCMR1_OC2FE;
 80016f8:	68fb      	ldr	r3, [r7, #12]
 80016fa:	681b      	ldr	r3, [r3, #0]
 80016fc:	699a      	ldr	r2, [r3, #24]
 80016fe:	68fb      	ldr	r3, [r7, #12]
 8001700:	681b      	ldr	r3, [r3, #0]
 8001702:	f422 6280 	bic.w	r2, r2, #1024	; 0x400
 8001706:	619a      	str	r2, [r3, #24]
      htim->Instance->CCMR1 |= sConfig->OCFastMode << 8U;
 8001708:	68fb      	ldr	r3, [r7, #12]
 800170a:	681b      	ldr	r3, [r3, #0]
 800170c:	6999      	ldr	r1, [r3, #24]
 800170e:	68bb      	ldr	r3, [r7, #8]
 8001710:	691b      	ldr	r3, [r3, #16]
 8001712:	021a      	lsls	r2, r3, #8
 8001714:	68fb      	ldr	r3, [r7, #12]
 8001716:	681b      	ldr	r3, [r3, #0]
 8001718:	430a      	orrs	r2, r1
 800171a:	619a      	str	r2, [r3, #24]
      break;
 800171c:	e041      	b.n	80017a2 <HAL_TIM_PWM_ConfigChannel+0x16a>
    {
      /* Check the parameters */
      assert_param(IS_TIM_CC3_INSTANCE(htim->Instance));

      /* Configure the Channel 3 in PWM mode */
      TIM_OC3_SetConfig(htim->Instance, sConfig);
 800171e:	68fb      	ldr	r3, [r7, #12]
 8001720:	681b      	ldr	r3, [r3, #0]
 8001722:	68b9      	ldr	r1, [r7, #8]
 8001724:	4618      	mov	r0, r3
 8001726:	f000 f96d 	bl	8001a04 <TIM_OC3_SetConfig>

      /* Set the Preload enable bit for channel3 */
      htim->Instance->CCMR2 |= TIM_CCMR2_OC3PE;
 800172a:	68fb      	ldr	r3, [r7, #12]
 800172c:	681b      	ldr	r3, [r3, #0]
 800172e:	69da      	ldr	r2, [r3, #28]
 8001730:	68fb      	ldr	r3, [r7, #12]
 8001732:	681b      	ldr	r3, [r3, #0]
 8001734:	f042 0208 	orr.w	r2, r2, #8
 8001738:	61da      	str	r2, [r3, #28]

      /* Configure the Output Fast mode */
      htim->Instance->CCMR2 &= ~TIM_CCMR2_OC3FE;
 800173a:	68fb      	ldr	r3, [r7, #12]
 800173c:	681b      	ldr	r3, [r3, #0]
 800173e:	69da      	ldr	r2, [r3, #28]
 8001740:	68fb      	ldr	r3, [r7, #12]
 8001742:	681b      	ldr	r3, [r3, #0]
 8001744:	f022 0204 	bic.w	r2, r2, #4
 8001748:	61da      	str	r2, [r3, #28]
      htim->Instance->CCMR2 |= sConfig->OCFastMode;
 800174a:	68fb      	ldr	r3, [r7, #12]
 800174c:	681b      	ldr	r3, [r3, #0]
 800174e:	69d9      	ldr	r1, [r3, #28]
 8001750:	68bb      	ldr	r3, [r7, #8]
 8001752:	691a      	ldr	r2, [r3, #16]
 8001754:	68fb      	ldr	r3, [r7, #12]
 8001756:	681b      	ldr	r3, [r3, #0]
 8001758:	430a      	orrs	r2, r1
 800175a:	61da      	str	r2, [r3, #28]
      break;
 800175c:	e021      	b.n	80017a2 <HAL_TIM_PWM_ConfigChannel+0x16a>
    {
      /* Check the parameters */
      assert_param(IS_TIM_CC4_INSTANCE(htim->Instance));

      /* Configure the Channel 4 in PWM mode */
      TIM_OC4_SetConfig(htim->Instance, sConfig);
 800175e:	68fb      	ldr	r3, [r7, #12]
 8001760:	681b      	ldr	r3, [r3, #0]
 8001762:	68b9      	ldr	r1, [r7, #8]
 8001764:	4618      	mov	r0, r3
 8001766:	f000 f9b7 	bl	8001ad8 <TIM_OC4_SetConfig>

      /* Set the Preload enable bit for channel4 */
      htim->Instance->CCMR2 |= TIM_CCMR2_OC4PE;
 800176a:	68fb      	ldr	r3, [r7, #12]
 800176c:	681b      	ldr	r3, [r3, #0]
 800176e:	69da      	ldr	r2, [r3, #28]
 8001770:	68fb      	ldr	r3, [r7, #12]
 8001772:	681b      	ldr	r3, [r3, #0]
 8001774:	f442 6200 	orr.w	r2, r2, #2048	; 0x800
 8001778:	61da      	str	r2, [r3, #28]

      /* Configure the Output Fast mode */
      htim->Instance->CCMR2 &= ~TIM_CCMR2_OC4FE;
 800177a:	68fb      	ldr	r3, [r7, #12]
 800177c:	681b      	ldr	r3, [r3, #0]
 800177e:	69da      	ldr	r2, [r3, #28]
 8001780:	68fb      	ldr	r3, [r7, #12]
 8001782:	681b      	ldr	r3, [r3, #0]
 8001784:	f422 6280 	bic.w	r2, r2, #1024	; 0x400
 8001788:	61da      	str	r2, [r3, #28]
      htim->Instance->CCMR2 |= sConfig->OCFastMode << 8U;
 800178a:	68fb      	ldr	r3, [r7, #12]
 800178c:	681b      	ldr	r3, [r3, #0]
 800178e:	69d9      	ldr	r1, [r3, #28]
 8001790:	68bb      	ldr	r3, [r7, #8]
 8001792:	691b      	ldr	r3, [r3, #16]
 8001794:	021a      	lsls	r2, r3, #8
 8001796:	68fb      	ldr	r3, [r7, #12]
 8001798:	681b      	ldr	r3, [r3, #0]
 800179a:	430a      	orrs	r2, r1
 800179c:	61da      	str	r2, [r3, #28]
      break;
 800179e:	e000      	b.n	80017a2 <HAL_TIM_PWM_ConfigChannel+0x16a>
    }

    default:
      break;
 80017a0:	bf00      	nop
  }

  __HAL_UNLOCK(htim);
 80017a2:	68fb      	ldr	r3, [r7, #12]
 80017a4:	2200      	movs	r2, #0
 80017a6:	f883 203c 	strb.w	r2, [r3, #60]	; 0x3c

  return HAL_OK;
 80017aa:	2300      	movs	r3, #0
}
 80017ac:	4618      	mov	r0, r3
 80017ae:	3710      	adds	r7, #16
 80017b0:	46bd      	mov	sp, r7
 80017b2:	bd80      	pop	{r7, pc}

080017b4 <TIM_Base_SetConfig>:
  * @param  TIMx TIM peripheral
  * @param  Structure TIM Base configuration structure
  * @retval None
  */
void TIM_Base_SetConfig(TIM_TypeDef *TIMx, TIM_Base_InitTypeDef *Structure)
{
 80017b4:	b480      	push	{r7}
 80017b6:	b085      	sub	sp, #20
 80017b8:	af00      	add	r7, sp, #0
 80017ba:	6078      	str	r0, [r7, #4]
 80017bc:	6039      	str	r1, [r7, #0]
  uint32_t tmpcr1;
  tmpcr1 = TIMx->CR1;
 80017be:	687b      	ldr	r3, [r7, #4]
 80017c0:	681b      	ldr	r3, [r3, #0]
 80017c2:	60fb      	str	r3, [r7, #12]

  /* Set TIM Time Base Unit parameters ---------------------------------------*/
  if (IS_TIM_COUNTER_MODE_SELECT_INSTANCE(TIMx))
 80017c4:	687b      	ldr	r3, [r7, #4]
 80017c6:	4a25      	ldr	r2, [pc, #148]	; (800185c <TIM_Base_SetConfig+0xa8>)
 80017c8:	4293      	cmp	r3, r2
 80017ca:	d007      	beq.n	80017dc <TIM_Base_SetConfig+0x28>
 80017cc:	687b      	ldr	r3, [r7, #4]
 80017ce:	f1b3 4f80 	cmp.w	r3, #1073741824	; 0x40000000
 80017d2:	d003      	beq.n	80017dc <TIM_Base_SetConfig+0x28>
 80017d4:	687b      	ldr	r3, [r7, #4]
 80017d6:	4a22      	ldr	r2, [pc, #136]	; (8001860 <TIM_Base_SetConfig+0xac>)
 80017d8:	4293      	cmp	r3, r2
 80017da:	d108      	bne.n	80017ee <TIM_Base_SetConfig+0x3a>
  {
    /* Select the Counter Mode */
    tmpcr1 &= ~(TIM_CR1_DIR | TIM_CR1_CMS);
 80017dc:	68fb      	ldr	r3, [r7, #12]
 80017de:	f023 0370 	bic.w	r3, r3, #112	; 0x70
 80017e2:	60fb      	str	r3, [r7, #12]
    tmpcr1 |= Structure->CounterMode;
 80017e4:	683b      	ldr	r3, [r7, #0]
 80017e6:	685b      	ldr	r3, [r3, #4]
 80017e8:	68fa      	ldr	r2, [r7, #12]
 80017ea:	4313      	orrs	r3, r2
 80017ec:	60fb      	str	r3, [r7, #12]
  }

  if (IS_TIM_CLOCK_DIVISION_INSTANCE(TIMx))
 80017ee:	687b      	ldr	r3, [r7, #4]
 80017f0:	4a1a      	ldr	r2, [pc, #104]	; (800185c <TIM_Base_SetConfig+0xa8>)
 80017f2:	4293      	cmp	r3, r2
 80017f4:	d007      	beq.n	8001806 <TIM_Base_SetConfig+0x52>
 80017f6:	687b      	ldr	r3, [r7, #4]
 80017f8:	f1b3 4f80 	cmp.w	r3, #1073741824	; 0x40000000
 80017fc:	d003      	beq.n	8001806 <TIM_Base_SetConfig+0x52>
 80017fe:	687b      	ldr	r3, [r7, #4]
 8001800:	4a17      	ldr	r2, [pc, #92]	; (8001860 <TIM_Base_SetConfig+0xac>)
 8001802:	4293      	cmp	r3, r2
 8001804:	d108      	bne.n	8001818 <TIM_Base_SetConfig+0x64>
  {
    /* Set the clock division */
    tmpcr1 &= ~TIM_CR1_CKD;
 8001806:	68fb      	ldr	r3, [r7, #12]
 8001808:	f423 7340 	bic.w	r3, r3, #768	; 0x300
 800180c:	60fb      	str	r3, [r7, #12]
    tmpcr1 |= (uint32_t)Structure->ClockDivision;
 800180e:	683b      	ldr	r3, [r7, #0]
 8001810:	68db      	ldr	r3, [r3, #12]
 8001812:	68fa      	ldr	r2, [r7, #12]
 8001814:	4313      	orrs	r3, r2
 8001816:	60fb      	str	r3, [r7, #12]
  }

  /* Set the auto-reload preload */
  MODIFY_REG(tmpcr1, TIM_CR1_ARPE, Structure->AutoReloadPreload);
 8001818:	68fb      	ldr	r3, [r7, #12]
 800181a:	f023 0280 	bic.w	r2, r3, #128	; 0x80
 800181e:	683b      	ldr	r3, [r7, #0]
 8001820:	695b      	ldr	r3, [r3, #20]
 8001822:	4313      	orrs	r3, r2
 8001824:	60fb      	str	r3, [r7, #12]

  TIMx->CR1 = tmpcr1;
 8001826:	687b      	ldr	r3, [r7, #4]
 8001828:	68fa      	ldr	r2, [r7, #12]
 800182a:	601a      	str	r2, [r3, #0]

  /* Set the Autoreload value */
  TIMx->ARR = (uint32_t)Structure->Period ;
 800182c:	683b      	ldr	r3, [r7, #0]
 800182e:	689a      	ldr	r2, [r3, #8]
 8001830:	687b      	ldr	r3, [r7, #4]
 8001832:	62da      	str	r2, [r3, #44]	; 0x2c

  /* Set the Prescaler value */
  TIMx->PSC = Structure->Prescaler;
 8001834:	683b      	ldr	r3, [r7, #0]
 8001836:	681a      	ldr	r2, [r3, #0]
 8001838:	687b      	ldr	r3, [r7, #4]
 800183a:	629a      	str	r2, [r3, #40]	; 0x28

  if (IS_TIM_REPETITION_COUNTER_INSTANCE(TIMx))
 800183c:	687b      	ldr	r3, [r7, #4]
 800183e:	4a07      	ldr	r2, [pc, #28]	; (800185c <TIM_Base_SetConfig+0xa8>)
 8001840:	4293      	cmp	r3, r2
 8001842:	d103      	bne.n	800184c <TIM_Base_SetConfig+0x98>
  {
    /* Set the Repetition Counter value */
    TIMx->RCR = Structure->RepetitionCounter;
 8001844:	683b      	ldr	r3, [r7, #0]
 8001846:	691a      	ldr	r2, [r3, #16]
 8001848:	687b      	ldr	r3, [r7, #4]
 800184a:	631a      	str	r2, [r3, #48]	; 0x30
  }

  /* Generate an update event to reload the Prescaler
     and the repetition counter (only for advanced timer) value immediately */
  TIMx->EGR = TIM_EGR_UG;
 800184c:	687b      	ldr	r3, [r7, #4]
 800184e:	2201      	movs	r2, #1
 8001850:	615a      	str	r2, [r3, #20]
}
 8001852:	bf00      	nop
 8001854:	3714      	adds	r7, #20
 8001856:	46bd      	mov	sp, r7
 8001858:	bc80      	pop	{r7}
 800185a:	4770      	bx	lr
 800185c:	40012c00 	.word	0x40012c00
 8001860:	40000400 	.word	0x40000400

08001864 <TIM_OC1_SetConfig>:
  * @param  TIMx to select the TIM peripheral
  * @param  OC_Config The output configuration structure
  * @retval None
  */
static void TIM_OC1_SetConfig(TIM_TypeDef *TIMx, TIM_OC_InitTypeDef *OC_Config)
{
 8001864:	b480      	push	{r7}
 8001866:	b087      	sub	sp, #28
 8001868:	af00      	add	r7, sp, #0
 800186a:	6078      	str	r0, [r7, #4]
 800186c:	6039      	str	r1, [r7, #0]
  uint32_t tmpccmrx;
  uint32_t tmpccer;
  uint32_t tmpcr2;

  /* Disable the Channel 1: Reset the CC1E Bit */
  TIMx->CCER &= ~TIM_CCER_CC1E;
 800186e:	687b      	ldr	r3, [r7, #4]
 8001870:	6a1b      	ldr	r3, [r3, #32]
 8001872:	f023 0201 	bic.w	r2, r3, #1
 8001876:	687b      	ldr	r3, [r7, #4]
 8001878:	621a      	str	r2, [r3, #32]

  /* Get the TIMx CCER register value */
  tmpccer = TIMx->CCER;
 800187a:	687b      	ldr	r3, [r7, #4]
 800187c:	6a1b      	ldr	r3, [r3, #32]
 800187e:	617b      	str	r3, [r7, #20]
  /* Get the TIMx CR2 register value */
  tmpcr2 =  TIMx->CR2;
 8001880:	687b      	ldr	r3, [r7, #4]
 8001882:	685b      	ldr	r3, [r3, #4]
 8001884:	613b      	str	r3, [r7, #16]

  /* Get the TIMx CCMR1 register value */
  tmpccmrx = TIMx->CCMR1;
 8001886:	687b      	ldr	r3, [r7, #4]
 8001888:	699b      	ldr	r3, [r3, #24]
 800188a:	60fb      	str	r3, [r7, #12]

  /* Reset the Output Compare Mode Bits */
  tmpccmrx &= ~TIM_CCMR1_OC1M;
 800188c:	68fb      	ldr	r3, [r7, #12]
 800188e:	f023 0370 	bic.w	r3, r3, #112	; 0x70
 8001892:	60fb      	str	r3, [r7, #12]
  tmpccmrx &= ~TIM_CCMR1_CC1S;
 8001894:	68fb      	ldr	r3, [r7, #12]
 8001896:	f023 0303 	bic.w	r3, r3, #3
 800189a:	60fb      	str	r3, [r7, #12]
  /* Select the Output Compare Mode */
  tmpccmrx |= OC_Config->OCMode;
 800189c:	683b      	ldr	r3, [r7, #0]
 800189e:	681b      	ldr	r3, [r3, #0]
 80018a0:	68fa      	ldr	r2, [r7, #12]
 80018a2:	4313      	orrs	r3, r2
 80018a4:	60fb      	str	r3, [r7, #12]

  /* Reset the Output Polarity level */
  tmpccer &= ~TIM_CCER_CC1P;
 80018a6:	697b      	ldr	r3, [r7, #20]
 80018a8:	f023 0302 	bic.w	r3, r3, #2
 80018ac:	617b      	str	r3, [r7, #20]
  /* Set the Output Compare Polarity */
  tmpccer |= OC_Config->OCPolarity;
 80018ae:	683b      	ldr	r3, [r7, #0]
 80018b0:	689b      	ldr	r3, [r3, #8]
 80018b2:	697a      	ldr	r2, [r7, #20]
 80018b4:	4313      	orrs	r3, r2
 80018b6:	617b      	str	r3, [r7, #20]

  if (IS_TIM_CCXN_INSTANCE(TIMx, TIM_CHANNEL_1))
 80018b8:	687b      	ldr	r3, [r7, #4]
 80018ba:	4a1c      	ldr	r2, [pc, #112]	; (800192c <TIM_OC1_SetConfig+0xc8>)
 80018bc:	4293      	cmp	r3, r2
 80018be:	d10c      	bne.n	80018da <TIM_OC1_SetConfig+0x76>
  {
    /* Check parameters */
    assert_param(IS_TIM_OCN_POLARITY(OC_Config->OCNPolarity));

    /* Reset the Output N Polarity level */
    tmpccer &= ~TIM_CCER_CC1NP;
 80018c0:	697b      	ldr	r3, [r7, #20]
 80018c2:	f023 0308 	bic.w	r3, r3, #8
 80018c6:	617b      	str	r3, [r7, #20]
    /* Set the Output N Polarity */
    tmpccer |= OC_Config->OCNPolarity;
 80018c8:	683b      	ldr	r3, [r7, #0]
 80018ca:	68db      	ldr	r3, [r3, #12]
 80018cc:	697a      	ldr	r2, [r7, #20]
 80018ce:	4313      	orrs	r3, r2
 80018d0:	617b      	str	r3, [r7, #20]
    /* Reset the Output N State */
    tmpccer &= ~TIM_CCER_CC1NE;
 80018d2:	697b      	ldr	r3, [r7, #20]
 80018d4:	f023 0304 	bic.w	r3, r3, #4
 80018d8:	617b      	str	r3, [r7, #20]
  }

  if (IS_TIM_BREAK_INSTANCE(TIMx))
 80018da:	687b      	ldr	r3, [r7, #4]
 80018dc:	4a13      	ldr	r2, [pc, #76]	; (800192c <TIM_OC1_SetConfig+0xc8>)
 80018de:	4293      	cmp	r3, r2
 80018e0:	d111      	bne.n	8001906 <TIM_OC1_SetConfig+0xa2>
    /* Check parameters */
    assert_param(IS_TIM_OCNIDLE_STATE(OC_Config->OCNIdleState));
    assert_param(IS_TIM_OCIDLE_STATE(OC_Config->OCIdleState));

    /* Reset the Output Compare and Output Compare N IDLE State */
    tmpcr2 &= ~TIM_CR2_OIS1;
 80018e2:	693b      	ldr	r3, [r7, #16]
 80018e4:	f423 7380 	bic.w	r3, r3, #256	; 0x100
 80018e8:	613b      	str	r3, [r7, #16]
    tmpcr2 &= ~TIM_CR2_OIS1N;
 80018ea:	693b      	ldr	r3, [r7, #16]
 80018ec:	f423 7300 	bic.w	r3, r3, #512	; 0x200
 80018f0:	613b      	str	r3, [r7, #16]
    /* Set the Output Idle state */
    tmpcr2 |= OC_Config->OCIdleState;
 80018f2:	683b      	ldr	r3, [r7, #0]
 80018f4:	695b      	ldr	r3, [r3, #20]
 80018f6:	693a      	ldr	r2, [r7, #16]
 80018f8:	4313      	orrs	r3, r2
 80018fa:	613b      	str	r3, [r7, #16]
    /* Set the Output N Idle state */
    tmpcr2 |= OC_Config->OCNIdleState;
 80018fc:	683b      	ldr	r3, [r7, #0]
 80018fe:	699b      	ldr	r3, [r3, #24]
 8001900:	693a      	ldr	r2, [r7, #16]
 8001902:	4313      	orrs	r3, r2
 8001904:	613b      	str	r3, [r7, #16]
  }

  /* Write to TIMx CR2 */
  TIMx->CR2 = tmpcr2;
 8001906:	687b      	ldr	r3, [r7, #4]
 8001908:	693a      	ldr	r2, [r7, #16]
 800190a:	605a      	str	r2, [r3, #4]

  /* Write to TIMx CCMR1 */
  TIMx->CCMR1 = tmpccmrx;
 800190c:	687b      	ldr	r3, [r7, #4]
 800190e:	68fa      	ldr	r2, [r7, #12]
 8001910:	619a      	str	r2, [r3, #24]

  /* Set the Capture Compare Register value */
  TIMx->CCR1 = OC_Config->Pulse;
 8001912:	683b      	ldr	r3, [r7, #0]
 8001914:	685a      	ldr	r2, [r3, #4]
 8001916:	687b      	ldr	r3, [r7, #4]
 8001918:	635a      	str	r2, [r3, #52]	; 0x34

  /* Write to TIMx CCER */
  TIMx->CCER = tmpccer;
 800191a:	687b      	ldr	r3, [r7, #4]
 800191c:	697a      	ldr	r2, [r7, #20]
 800191e:	621a      	str	r2, [r3, #32]
}
 8001920:	bf00      	nop
 8001922:	371c      	adds	r7, #28
 8001924:	46bd      	mov	sp, r7
 8001926:	bc80      	pop	{r7}
 8001928:	4770      	bx	lr
 800192a:	bf00      	nop
 800192c:	40012c00 	.word	0x40012c00

08001930 <TIM_OC2_SetConfig>:
  * @param  TIMx to select the TIM peripheral
  * @param  OC_Config The output configuration structure
  * @retval None
  */
void TIM_OC2_SetConfig(TIM_TypeDef *TIMx, TIM_OC_InitTypeDef *OC_Config)
{
 8001930:	b480      	push	{r7}
 8001932:	b087      	sub	sp, #28
 8001934:	af00      	add	r7, sp, #0
 8001936:	6078      	str	r0, [r7, #4]
 8001938:	6039      	str	r1, [r7, #0]
  uint32_t tmpccmrx;
  uint32_t tmpccer;
  uint32_t tmpcr2;

  /* Disable the Channel 2: Reset the CC2E Bit */
  TIMx->CCER &= ~TIM_CCER_CC2E;
 800193a:	687b      	ldr	r3, [r7, #4]
 800193c:	6a1b      	ldr	r3, [r3, #32]
 800193e:	f023 0210 	bic.w	r2, r3, #16
 8001942:	687b      	ldr	r3, [r7, #4]
 8001944:	621a      	str	r2, [r3, #32]

  /* Get the TIMx CCER register value */
  tmpccer = TIMx->CCER;
 8001946:	687b      	ldr	r3, [r7, #4]
 8001948:	6a1b      	ldr	r3, [r3, #32]
 800194a:	617b      	str	r3, [r7, #20]
  /* Get the TIMx CR2 register value */
  tmpcr2 =  TIMx->CR2;
 800194c:	687b      	ldr	r3, [r7, #4]
 800194e:	685b      	ldr	r3, [r3, #4]
 8001950:	613b      	str	r3, [r7, #16]

  /* Get the TIMx CCMR1 register value */
  tmpccmrx = TIMx->CCMR1;
 8001952:	687b      	ldr	r3, [r7, #4]
 8001954:	699b      	ldr	r3, [r3, #24]
 8001956:	60fb      	str	r3, [r7, #12]

  /* Reset the Output Compare mode and Capture/Compare selection Bits */
  tmpccmrx &= ~TIM_CCMR1_OC2M;
 8001958:	68fb      	ldr	r3, [r7, #12]
 800195a:	f423 43e0 	bic.w	r3, r3, #28672	; 0x7000
 800195e:	60fb      	str	r3, [r7, #12]
  tmpccmrx &= ~TIM_CCMR1_CC2S;
 8001960:	68fb      	ldr	r3, [r7, #12]
 8001962:	f423 7340 	bic.w	r3, r3, #768	; 0x300
 8001966:	60fb      	str	r3, [r7, #12]

  /* Select the Output Compare Mode */
  tmpccmrx |= (OC_Config->OCMode << 8U);
 8001968:	683b      	ldr	r3, [r7, #0]
 800196a:	681b      	ldr	r3, [r3, #0]
 800196c:	021b      	lsls	r3, r3, #8
 800196e:	68fa      	ldr	r2, [r7, #12]
 8001970:	4313      	orrs	r3, r2
 8001972:	60fb      	str	r3, [r7, #12]

  /* Reset the Output Polarity level */
  tmpccer &= ~TIM_CCER_CC2P;
 8001974:	697b      	ldr	r3, [r7, #20]
 8001976:	f023 0320 	bic.w	r3, r3, #32
 800197a:	617b      	str	r3, [r7, #20]
  /* Set the Output Compare Polarity */
  tmpccer |= (OC_Config->OCPolarity << 4U);
 800197c:	683b      	ldr	r3, [r7, #0]
 800197e:	689b      	ldr	r3, [r3, #8]
 8001980:	011b      	lsls	r3, r3, #4
 8001982:	697a      	ldr	r2, [r7, #20]
 8001984:	4313      	orrs	r3, r2
 8001986:	617b      	str	r3, [r7, #20]

  if (IS_TIM_CCXN_INSTANCE(TIMx, TIM_CHANNEL_2))
 8001988:	687b      	ldr	r3, [r7, #4]
 800198a:	4a1d      	ldr	r2, [pc, #116]	; (8001a00 <TIM_OC2_SetConfig+0xd0>)
 800198c:	4293      	cmp	r3, r2
 800198e:	d10d      	bne.n	80019ac <TIM_OC2_SetConfig+0x7c>
  {
    assert_param(IS_TIM_OCN_POLARITY(OC_Config->OCNPolarity));

    /* Reset the Output N Polarity level */
    tmpccer &= ~TIM_CCER_CC2NP;
 8001990:	697b      	ldr	r3, [r7, #20]
 8001992:	f023 0380 	bic.w	r3, r3, #128	; 0x80
 8001996:	617b      	str	r3, [r7, #20]
    /* Set the Output N Polarity */
    tmpccer |= (OC_Config->OCNPolarity << 4U);
 8001998:	683b      	ldr	r3, [r7, #0]
 800199a:	68db      	ldr	r3, [r3, #12]
 800199c:	011b      	lsls	r3, r3, #4
 800199e:	697a      	ldr	r2, [r7, #20]
 80019a0:	4313      	orrs	r3, r2
 80019a2:	617b      	str	r3, [r7, #20]
    /* Reset the Output N State */
    tmpccer &= ~TIM_CCER_CC2NE;
 80019a4:	697b      	ldr	r3, [r7, #20]
 80019a6:	f023 0340 	bic.w	r3, r3, #64	; 0x40
 80019aa:	617b      	str	r3, [r7, #20]

  }

  if (IS_TIM_BREAK_INSTANCE(TIMx))
 80019ac:	687b      	ldr	r3, [r7, #4]
 80019ae:	4a14      	ldr	r2, [pc, #80]	; (8001a00 <TIM_OC2_SetConfig+0xd0>)
 80019b0:	4293      	cmp	r3, r2
 80019b2:	d113      	bne.n	80019dc <TIM_OC2_SetConfig+0xac>
    /* Check parameters */
    assert_param(IS_TIM_OCNIDLE_STATE(OC_Config->OCNIdleState));
    assert_param(IS_TIM_OCIDLE_STATE(OC_Config->OCIdleState));

    /* Reset the Output Compare and Output Compare N IDLE State */
    tmpcr2 &= ~TIM_CR2_OIS2;
 80019b4:	693b      	ldr	r3, [r7, #16]
 80019b6:	f423 6380 	bic.w	r3, r3, #1024	; 0x400
 80019ba:	613b      	str	r3, [r7, #16]
    tmpcr2 &= ~TIM_CR2_OIS2N;
 80019bc:	693b      	ldr	r3, [r7, #16]
 80019be:	f423 6300 	bic.w	r3, r3, #2048	; 0x800
 80019c2:	613b      	str	r3, [r7, #16]
    /* Set the Output Idle state */
    tmpcr2 |= (OC_Config->OCIdleState << 2U);
 80019c4:	683b      	ldr	r3, [r7, #0]
 80019c6:	695b      	ldr	r3, [r3, #20]
 80019c8:	009b      	lsls	r3, r3, #2
 80019ca:	693a      	ldr	r2, [r7, #16]
 80019cc:	4313      	orrs	r3, r2
 80019ce:	613b      	str	r3, [r7, #16]
    /* Set the Output N Idle state */
    tmpcr2 |= (OC_Config->OCNIdleState << 2U);
 80019d0:	683b      	ldr	r3, [r7, #0]
 80019d2:	699b      	ldr	r3, [r3, #24]
 80019d4:	009b      	lsls	r3, r3, #2
 80019d6:	693a      	ldr	r2, [r7, #16]
 80019d8:	4313      	orrs	r3, r2
 80019da:	613b      	str	r3, [r7, #16]
  }

  /* Write to TIMx CR2 */
  TIMx->CR2 = tmpcr2;
 80019dc:	687b      	ldr	r3, [r7, #4]
 80019de:	693a      	ldr	r2, [r7, #16]
 80019e0:	605a      	str	r2, [r3, #4]

  /* Write to TIMx CCMR1 */
  TIMx->CCMR1 = tmpccmrx;
 80019e2:	687b      	ldr	r3, [r7, #4]
 80019e4:	68fa      	ldr	r2, [r7, #12]
 80019e6:	619a      	str	r2, [r3, #24]

  /* Set the Capture Compare Register value */
  TIMx->CCR2 = OC_Config->Pulse;
 80019e8:	683b      	ldr	r3, [r7, #0]
 80019ea:	685a      	ldr	r2, [r3, #4]
 80019ec:	687b      	ldr	r3, [r7, #4]
 80019ee:	639a      	str	r2, [r3, #56]	; 0x38

  /* Write to TIMx CCER */
  TIMx->CCER = tmpccer;
 80019f0:	687b      	ldr	r3, [r7, #4]
 80019f2:	697a      	ldr	r2, [r7, #20]
 80019f4:	621a      	str	r2, [r3, #32]
}
 80019f6:	bf00      	nop
 80019f8:	371c      	adds	r7, #28
 80019fa:	46bd      	mov	sp, r7
 80019fc:	bc80      	pop	{r7}
 80019fe:	4770      	bx	lr
 8001a00:	40012c00 	.word	0x40012c00

08001a04 <TIM_OC3_SetConfig>:
  * @param  TIMx to select the TIM peripheral
  * @param  OC_Config The output configuration structure
  * @retval None
  */
static void TIM_OC3_SetConfig(TIM_TypeDef *TIMx, TIM_OC_InitTypeDef *OC_Config)
{
 8001a04:	b480      	push	{r7}
 8001a06:	b087      	sub	sp, #28
 8001a08:	af00      	add	r7, sp, #0
 8001a0a:	6078      	str	r0, [r7, #4]
 8001a0c:	6039      	str	r1, [r7, #0]
  uint32_t tmpccmrx;
  uint32_t tmpccer;
  uint32_t tmpcr2;

  /* Disable the Channel 3: Reset the CC2E Bit */
  TIMx->CCER &= ~TIM_CCER_CC3E;
 8001a0e:	687b      	ldr	r3, [r7, #4]
 8001a10:	6a1b      	ldr	r3, [r3, #32]
 8001a12:	f423 7280 	bic.w	r2, r3, #256	; 0x100
 8001a16:	687b      	ldr	r3, [r7, #4]
 8001a18:	621a      	str	r2, [r3, #32]

  /* Get the TIMx CCER register value */
  tmpccer = TIMx->CCER;
 8001a1a:	687b      	ldr	r3, [r7, #4]
 8001a1c:	6a1b      	ldr	r3, [r3, #32]
 8001a1e:	617b      	str	r3, [r7, #20]
  /* Get the TIMx CR2 register value */
  tmpcr2 =  TIMx->CR2;
 8001a20:	687b      	ldr	r3, [r7, #4]
 8001a22:	685b      	ldr	r3, [r3, #4]
 8001a24:	613b      	str	r3, [r7, #16]

  /* Get the TIMx CCMR2 register value */
  tmpccmrx = TIMx->CCMR2;
 8001a26:	687b      	ldr	r3, [r7, #4]
 8001a28:	69db      	ldr	r3, [r3, #28]
 8001a2a:	60fb      	str	r3, [r7, #12]

  /* Reset the Output Compare mode and Capture/Compare selection Bits */
  tmpccmrx &= ~TIM_CCMR2_OC3M;
 8001a2c:	68fb      	ldr	r3, [r7, #12]
 8001a2e:	f023 0370 	bic.w	r3, r3, #112	; 0x70
 8001a32:	60fb      	str	r3, [r7, #12]
  tmpccmrx &= ~TIM_CCMR2_CC3S;
 8001a34:	68fb      	ldr	r3, [r7, #12]
 8001a36:	f023 0303 	bic.w	r3, r3, #3
 8001a3a:	60fb      	str	r3, [r7, #12]
  /* Select the Output Compare Mode */
  tmpccmrx |= OC_Config->OCMode;
 8001a3c:	683b      	ldr	r3, [r7, #0]
 8001a3e:	681b      	ldr	r3, [r3, #0]
 8001a40:	68fa      	ldr	r2, [r7, #12]
 8001a42:	4313      	orrs	r3, r2
 8001a44:	60fb      	str	r3, [r7, #12]

  /* Reset the Output Polarity level */
  tmpccer &= ~TIM_CCER_CC3P;
 8001a46:	697b      	ldr	r3, [r7, #20]
 8001a48:	f423 7300 	bic.w	r3, r3, #512	; 0x200
 8001a4c:	617b      	str	r3, [r7, #20]
  /* Set the Output Compare Polarity */
  tmpccer |= (OC_Config->OCPolarity << 8U);
 8001a4e:	683b      	ldr	r3, [r7, #0]
 8001a50:	689b      	ldr	r3, [r3, #8]
 8001a52:	021b      	lsls	r3, r3, #8
 8001a54:	697a      	ldr	r2, [r7, #20]
 8001a56:	4313      	orrs	r3, r2
 8001a58:	617b      	str	r3, [r7, #20]

  if (IS_TIM_CCXN_INSTANCE(TIMx, TIM_CHANNEL_3))
 8001a5a:	687b      	ldr	r3, [r7, #4]
 8001a5c:	4a1d      	ldr	r2, [pc, #116]	; (8001ad4 <TIM_OC3_SetConfig+0xd0>)
 8001a5e:	4293      	cmp	r3, r2
 8001a60:	d10d      	bne.n	8001a7e <TIM_OC3_SetConfig+0x7a>
  {
    assert_param(IS_TIM_OCN_POLARITY(OC_Config->OCNPolarity));

    /* Reset the Output N Polarity level */
    tmpccer &= ~TIM_CCER_CC3NP;
 8001a62:	697b      	ldr	r3, [r7, #20]
 8001a64:	f423 6300 	bic.w	r3, r3, #2048	; 0x800
 8001a68:	617b      	str	r3, [r7, #20]
    /* Set the Output N Polarity */
    tmpccer |= (OC_Config->OCNPolarity << 8U);
 8001a6a:	683b      	ldr	r3, [r7, #0]
 8001a6c:	68db      	ldr	r3, [r3, #12]
 8001a6e:	021b      	lsls	r3, r3, #8
 8001a70:	697a      	ldr	r2, [r7, #20]
 8001a72:	4313      	orrs	r3, r2
 8001a74:	617b      	str	r3, [r7, #20]
    /* Reset the Output N State */
    tmpccer &= ~TIM_CCER_CC3NE;
 8001a76:	697b      	ldr	r3, [r7, #20]
 8001a78:	f423 6380 	bic.w	r3, r3, #1024	; 0x400
 8001a7c:	617b      	str	r3, [r7, #20]
  }

  if (IS_TIM_BREAK_INSTANCE(TIMx))
 8001a7e:	687b      	ldr	r3, [r7, #4]
 8001a80:	4a14      	ldr	r2, [pc, #80]	; (8001ad4 <TIM_OC3_SetConfig+0xd0>)
 8001a82:	4293      	cmp	r3, r2
 8001a84:	d113      	bne.n	8001aae <TIM_OC3_SetConfig+0xaa>
    /* Check parameters */
    assert_param(IS_TIM_OCNIDLE_STATE(OC_Config->OCNIdleState));
    assert_param(IS_TIM_OCIDLE_STATE(OC_Config->OCIdleState));

    /* Reset the Output Compare and Output Compare N IDLE State */
    tmpcr2 &= ~TIM_CR2_OIS3;
 8001a86:	693b      	ldr	r3, [r7, #16]
 8001a88:	f423 5380 	bic.w	r3, r3, #4096	; 0x1000
 8001a8c:	613b      	str	r3, [r7, #16]
    tmpcr2 &= ~TIM_CR2_OIS3N;
 8001a8e:	693b      	ldr	r3, [r7, #16]
 8001a90:	f423 5300 	bic.w	r3, r3, #8192	; 0x2000
 8001a94:	613b      	str	r3, [r7, #16]
    /* Set the Output Idle state */
    tmpcr2 |= (OC_Config->OCIdleState << 4U);
 8001a96:	683b      	ldr	r3, [r7, #0]
 8001a98:	695b      	ldr	r3, [r3, #20]
 8001a9a:	011b      	lsls	r3, r3, #4
 8001a9c:	693a      	ldr	r2, [r7, #16]
 8001a9e:	4313      	orrs	r3, r2
 8001aa0:	613b      	str	r3, [r7, #16]
    /* Set the Output N Idle state */
    tmpcr2 |= (OC_Config->OCNIdleState << 4U);
 8001aa2:	683b      	ldr	r3, [r7, #0]
 8001aa4:	699b      	ldr	r3, [r3, #24]
 8001aa6:	011b      	lsls	r3, r3, #4
 8001aa8:	693a      	ldr	r2, [r7, #16]
 8001aaa:	4313      	orrs	r3, r2
 8001aac:	613b      	str	r3, [r7, #16]
  }

  /* Write to TIMx CR2 */
  TIMx->CR2 = tmpcr2;
 8001aae:	687b      	ldr	r3, [r7, #4]
 8001ab0:	693a      	ldr	r2, [r7, #16]
 8001ab2:	605a      	str	r2, [r3, #4]

  /* Write to TIMx CCMR2 */
  TIMx->CCMR2 = tmpccmrx;
 8001ab4:	687b      	ldr	r3, [r7, #4]
 8001ab6:	68fa      	ldr	r2, [r7, #12]
 8001ab8:	61da      	str	r2, [r3, #28]

  /* Set the Capture Compare Register value */
  TIMx->CCR3 = OC_Config->Pulse;
 8001aba:	683b      	ldr	r3, [r7, #0]
 8001abc:	685a      	ldr	r2, [r3, #4]
 8001abe:	687b      	ldr	r3, [r7, #4]
 8001ac0:	63da      	str	r2, [r3, #60]	; 0x3c

  /* Write to TIMx CCER */
  TIMx->CCER = tmpccer;
 8001ac2:	687b      	ldr	r3, [r7, #4]
 8001ac4:	697a      	ldr	r2, [r7, #20]
 8001ac6:	621a      	str	r2, [r3, #32]
}
 8001ac8:	bf00      	nop
 8001aca:	371c      	adds	r7, #28
 8001acc:	46bd      	mov	sp, r7
 8001ace:	bc80      	pop	{r7}
 8001ad0:	4770      	bx	lr
 8001ad2:	bf00      	nop
 8001ad4:	40012c00 	.word	0x40012c00

08001ad8 <TIM_OC4_SetConfig>:
  * @param  TIMx to select the TIM peripheral
  * @param  OC_Config The output configuration structure
  * @retval None
  */
static void TIM_OC4_SetConfig(TIM_TypeDef *TIMx, TIM_OC_InitTypeDef *OC_Config)
{
 8001ad8:	b480      	push	{r7}
 8001ada:	b087      	sub	sp, #28
 8001adc:	af00      	add	r7, sp, #0
 8001ade:	6078      	str	r0, [r7, #4]
 8001ae0:	6039      	str	r1, [r7, #0]
  uint32_t tmpccmrx;
  uint32_t tmpccer;
  uint32_t tmpcr2;

  /* Disable the Channel 4: Reset the CC4E Bit */
  TIMx->CCER &= ~TIM_CCER_CC4E;
 8001ae2:	687b      	ldr	r3, [r7, #4]
 8001ae4:	6a1b      	ldr	r3, [r3, #32]
 8001ae6:	f423 5280 	bic.w	r2, r3, #4096	; 0x1000
 8001aea:	687b      	ldr	r3, [r7, #4]
 8001aec:	621a      	str	r2, [r3, #32]

  /* Get the TIMx CCER register value */
  tmpccer = TIMx->CCER;
 8001aee:	687b      	ldr	r3, [r7, #4]
 8001af0:	6a1b      	ldr	r3, [r3, #32]
 8001af2:	613b      	str	r3, [r7, #16]
  /* Get the TIMx CR2 register value */
  tmpcr2 =  TIMx->CR2;
 8001af4:	687b      	ldr	r3, [r7, #4]
 8001af6:	685b      	ldr	r3, [r3, #4]
 8001af8:	617b      	str	r3, [r7, #20]

  /* Get the TIMx CCMR2 register value */
  tmpccmrx = TIMx->CCMR2;
 8001afa:	687b      	ldr	r3, [r7, #4]
 8001afc:	69db      	ldr	r3, [r3, #28]
 8001afe:	60fb      	str	r3, [r7, #12]

  /* Reset the Output Compare mode and Capture/Compare selection Bits */
  tmpccmrx &= ~TIM_CCMR2_OC4M;
 8001b00:	68fb      	ldr	r3, [r7, #12]
 8001b02:	f423 43e0 	bic.w	r3, r3, #28672	; 0x7000
 8001b06:	60fb      	str	r3, [r7, #12]
  tmpccmrx &= ~TIM_CCMR2_CC4S;
 8001b08:	68fb      	ldr	r3, [r7, #12]
 8001b0a:	f423 7340 	bic.w	r3, r3, #768	; 0x300
 8001b0e:	60fb      	str	r3, [r7, #12]

  /* Select the Output Compare Mode */
  tmpccmrx |= (OC_Config->OCMode << 8U);
 8001b10:	683b      	ldr	r3, [r7, #0]
 8001b12:	681b      	ldr	r3, [r3, #0]
 8001b14:	021b      	lsls	r3, r3, #8
 8001b16:	68fa      	ldr	r2, [r7, #12]
 8001b18:	4313      	orrs	r3, r2
 8001b1a:	60fb      	str	r3, [r7, #12]

  /* Reset the Output Polarity level */
  tmpccer &= ~TIM_CCER_CC4P;
 8001b1c:	693b      	ldr	r3, [r7, #16]
 8001b1e:	f423 5300 	bic.w	r3, r3, #8192	; 0x2000
 8001b22:	613b      	str	r3, [r7, #16]
  /* Set the Output Compare Polarity */
  tmpccer |= (OC_Config->OCPolarity << 12U);
 8001b24:	683b      	ldr	r3, [r7, #0]
 8001b26:	689b      	ldr	r3, [r3, #8]
 8001b28:	031b      	lsls	r3, r3, #12
 8001b2a:	693a      	ldr	r2, [r7, #16]
 8001b2c:	4313      	orrs	r3, r2
 8001b2e:	613b      	str	r3, [r7, #16]

  if (IS_TIM_BREAK_INSTANCE(TIMx))
 8001b30:	687b      	ldr	r3, [r7, #4]
 8001b32:	4a0f      	ldr	r2, [pc, #60]	; (8001b70 <TIM_OC4_SetConfig+0x98>)
 8001b34:	4293      	cmp	r3, r2
 8001b36:	d109      	bne.n	8001b4c <TIM_OC4_SetConfig+0x74>
  {
    /* Check parameters */
    assert_param(IS_TIM_OCIDLE_STATE(OC_Config->OCIdleState));

    /* Reset the Output Compare IDLE State */
    tmpcr2 &= ~TIM_CR2_OIS4;
 8001b38:	697b      	ldr	r3, [r7, #20]
 8001b3a:	f423 4380 	bic.w	r3, r3, #16384	; 0x4000
 8001b3e:	617b      	str	r3, [r7, #20]

    /* Set the Output Idle state */
    tmpcr2 |= (OC_Config->OCIdleState << 6U);
 8001b40:	683b      	ldr	r3, [r7, #0]
 8001b42:	695b      	ldr	r3, [r3, #20]
 8001b44:	019b      	lsls	r3, r3, #6
 8001b46:	697a      	ldr	r2, [r7, #20]
 8001b48:	4313      	orrs	r3, r2
 8001b4a:	617b      	str	r3, [r7, #20]
  }

  /* Write to TIMx CR2 */
  TIMx->CR2 = tmpcr2;
 8001b4c:	687b      	ldr	r3, [r7, #4]
 8001b4e:	697a      	ldr	r2, [r7, #20]
 8001b50:	605a      	str	r2, [r3, #4]

  /* Write to TIMx CCMR2 */
  TIMx->CCMR2 = tmpccmrx;
 8001b52:	687b      	ldr	r3, [r7, #4]
 8001b54:	68fa      	ldr	r2, [r7, #12]
 8001b56:	61da      	str	r2, [r3, #28]

  /* Set the Capture Compare Register value */
  TIMx->CCR4 = OC_Config->Pulse;
 8001b58:	683b      	ldr	r3, [r7, #0]
 8001b5a:	685a      	ldr	r2, [r3, #4]
 8001b5c:	687b      	ldr	r3, [r7, #4]
 8001b5e:	641a      	str	r2, [r3, #64]	; 0x40

  /* Write to TIMx CCER */
  TIMx->CCER = tmpccer;
 8001b60:	687b      	ldr	r3, [r7, #4]
 8001b62:	693a      	ldr	r2, [r7, #16]
 8001b64:	621a      	str	r2, [r3, #32]
}
 8001b66:	bf00      	nop
 8001b68:	371c      	adds	r7, #28
 8001b6a:	46bd      	mov	sp, r7
 8001b6c:	bc80      	pop	{r7}
 8001b6e:	4770      	bx	lr
 8001b70:	40012c00 	.word	0x40012c00

08001b74 <TIM_CCxChannelCmd>:
  * @param  ChannelState specifies the TIM Channel CCxE bit new state.
  *          This parameter can be: TIM_CCx_ENABLE or TIM_CCx_DISABLE.
  * @retval None
  */
void TIM_CCxChannelCmd(TIM_TypeDef *TIMx, uint32_t Channel, uint32_t ChannelState)
{
 8001b74:	b480      	push	{r7}
 8001b76:	b087      	sub	sp, #28
 8001b78:	af00      	add	r7, sp, #0
 8001b7a:	60f8      	str	r0, [r7, #12]
 8001b7c:	60b9      	str	r1, [r7, #8]
 8001b7e:	607a      	str	r2, [r7, #4]

  /* Check the parameters */
  assert_param(IS_TIM_CC1_INSTANCE(TIMx));
  assert_param(IS_TIM_CHANNELS(Channel));

  tmp = TIM_CCER_CC1E << (Channel & 0x1FU); /* 0x1FU = 31 bits max shift */
 8001b80:	68bb      	ldr	r3, [r7, #8]
 8001b82:	f003 031f 	and.w	r3, r3, #31
 8001b86:	2201      	movs	r2, #1
 8001b88:	fa02 f303 	lsl.w	r3, r2, r3
 8001b8c:	617b      	str	r3, [r7, #20]

  /* Reset the CCxE Bit */
  TIMx->CCER &= ~tmp;
 8001b8e:	68fb      	ldr	r3, [r7, #12]
 8001b90:	6a1a      	ldr	r2, [r3, #32]
 8001b92:	697b      	ldr	r3, [r7, #20]
 8001b94:	43db      	mvns	r3, r3
 8001b96:	401a      	ands	r2, r3
 8001b98:	68fb      	ldr	r3, [r7, #12]
 8001b9a:	621a      	str	r2, [r3, #32]

  /* Set or reset the CCxE Bit */
  TIMx->CCER |= (uint32_t)(ChannelState << (Channel & 0x1FU)); /* 0x1FU = 31 bits max shift */
 8001b9c:	68fb      	ldr	r3, [r7, #12]
 8001b9e:	6a1a      	ldr	r2, [r3, #32]
 8001ba0:	68bb      	ldr	r3, [r7, #8]
 8001ba2:	f003 031f 	and.w	r3, r3, #31
 8001ba6:	6879      	ldr	r1, [r7, #4]
 8001ba8:	fa01 f303 	lsl.w	r3, r1, r3
 8001bac:	431a      	orrs	r2, r3
 8001bae:	68fb      	ldr	r3, [r7, #12]
 8001bb0:	621a      	str	r2, [r3, #32]
}
 8001bb2:	bf00      	nop
 8001bb4:	371c      	adds	r7, #28
 8001bb6:	46bd      	mov	sp, r7
 8001bb8:	bc80      	pop	{r7}
 8001bba:	4770      	bx	lr

08001bbc <HAL_TIMEx_MasterConfigSynchronization>:
  *         mode.
  * @retval HAL status
  */
HAL_StatusTypeDef HAL_TIMEx_MasterConfigSynchronization(TIM_HandleTypeDef *htim,
                                                        TIM_MasterConfigTypeDef *sMasterConfig)
{
 8001bbc:	b480      	push	{r7}
 8001bbe:	b085      	sub	sp, #20
 8001bc0:	af00      	add	r7, sp, #0
 8001bc2:	6078      	str	r0, [r7, #4]
 8001bc4:	6039      	str	r1, [r7, #0]
  assert_param(IS_TIM_MASTER_INSTANCE(htim->Instance));
  assert_param(IS_TIM_TRGO_SOURCE(sMasterConfig->MasterOutputTrigger));
  assert_param(IS_TIM_MSM_STATE(sMasterConfig->MasterSlaveMode));

  /* Check input state */
  __HAL_LOCK(htim);
 8001bc6:	687b      	ldr	r3, [r7, #4]
 8001bc8:	f893 303c 	ldrb.w	r3, [r3, #60]	; 0x3c
 8001bcc:	2b01      	cmp	r3, #1
 8001bce:	d101      	bne.n	8001bd4 <HAL_TIMEx_MasterConfigSynchronization+0x18>
 8001bd0:	2302      	movs	r3, #2
 8001bd2:	e041      	b.n	8001c58 <HAL_TIMEx_MasterConfigSynchronization+0x9c>
 8001bd4:	687b      	ldr	r3, [r7, #4]
 8001bd6:	2201      	movs	r2, #1
 8001bd8:	f883 203c 	strb.w	r2, [r3, #60]	; 0x3c

  /* Change the handler state */
  htim->State = HAL_TIM_STATE_BUSY;
 8001bdc:	687b      	ldr	r3, [r7, #4]
 8001bde:	2202      	movs	r2, #2
 8001be0:	f883 203d 	strb.w	r2, [r3, #61]	; 0x3d

  /* Get the TIMx CR2 register value */
  tmpcr2 = htim->Instance->CR2;
 8001be4:	687b      	ldr	r3, [r7, #4]
 8001be6:	681b      	ldr	r3, [r3, #0]
 8001be8:	685b      	ldr	r3, [r3, #4]
 8001bea:	60fb      	str	r3, [r7, #12]

  /* Get the TIMx SMCR register value */
  tmpsmcr = htim->Instance->SMCR;
 8001bec:	687b      	ldr	r3, [r7, #4]
 8001bee:	681b      	ldr	r3, [r3, #0]
 8001bf0:	689b      	ldr	r3, [r3, #8]
 8001bf2:	60bb      	str	r3, [r7, #8]

  /* Reset the MMS Bits */
  tmpcr2 &= ~TIM_CR2_MMS;
 8001bf4:	68fb      	ldr	r3, [r7, #12]
 8001bf6:	f023 0370 	bic.w	r3, r3, #112	; 0x70
 8001bfa:	60fb      	str	r3, [r7, #12]
  /* Select the TRGO source */
  tmpcr2 |=  sMasterConfig->MasterOutputTrigger;
 8001bfc:	683b      	ldr	r3, [r7, #0]
 8001bfe:	681b      	ldr	r3, [r3, #0]
 8001c00:	68fa      	ldr	r2, [r7, #12]
 8001c02:	4313      	orrs	r3, r2
 8001c04:	60fb      	str	r3, [r7, #12]

  /* Update TIMx CR2 */
  htim->Instance->CR2 = tmpcr2;
 8001c06:	687b      	ldr	r3, [r7, #4]
 8001c08:	681b      	ldr	r3, [r3, #0]
 8001c0a:	68fa      	ldr	r2, [r7, #12]
 8001c0c:	605a      	str	r2, [r3, #4]

  if (IS_TIM_SLAVE_INSTANCE(htim->Instance))
 8001c0e:	687b      	ldr	r3, [r7, #4]
 8001c10:	681b      	ldr	r3, [r3, #0]
 8001c12:	4a14      	ldr	r2, [pc, #80]	; (8001c64 <HAL_TIMEx_MasterConfigSynchronization+0xa8>)
 8001c14:	4293      	cmp	r3, r2
 8001c16:	d009      	beq.n	8001c2c <HAL_TIMEx_MasterConfigSynchronization+0x70>
 8001c18:	687b      	ldr	r3, [r7, #4]
 8001c1a:	681b      	ldr	r3, [r3, #0]
 8001c1c:	f1b3 4f80 	cmp.w	r3, #1073741824	; 0x40000000
 8001c20:	d004      	beq.n	8001c2c <HAL_TIMEx_MasterConfigSynchronization+0x70>
 8001c22:	687b      	ldr	r3, [r7, #4]
 8001c24:	681b      	ldr	r3, [r3, #0]
 8001c26:	4a10      	ldr	r2, [pc, #64]	; (8001c68 <HAL_TIMEx_MasterConfigSynchronization+0xac>)
 8001c28:	4293      	cmp	r3, r2
 8001c2a:	d10c      	bne.n	8001c46 <HAL_TIMEx_MasterConfigSynchronization+0x8a>
  {
    /* Reset the MSM Bit */
    tmpsmcr &= ~TIM_SMCR_MSM;
 8001c2c:	68bb      	ldr	r3, [r7, #8]
 8001c2e:	f023 0380 	bic.w	r3, r3, #128	; 0x80
 8001c32:	60bb      	str	r3, [r7, #8]
    /* Set master mode */
    tmpsmcr |= sMasterConfig->MasterSlaveMode;
 8001c34:	683b      	ldr	r3, [r7, #0]
 8001c36:	685b      	ldr	r3, [r3, #4]
 8001c38:	68ba      	ldr	r2, [r7, #8]
 8001c3a:	4313      	orrs	r3, r2
 8001c3c:	60bb      	str	r3, [r7, #8]

    /* Update TIMx SMCR */
    htim->Instance->SMCR = tmpsmcr;
 8001c3e:	687b      	ldr	r3, [r7, #4]
 8001c40:	681b      	ldr	r3, [r3, #0]
 8001c42:	68ba      	ldr	r2, [r7, #8]
 8001c44:	609a      	str	r2, [r3, #8]
  }

  /* Change the htim state */
  htim->State = HAL_TIM_STATE_READY;
 8001c46:	687b      	ldr	r3, [r7, #4]
 8001c48:	2201      	movs	r2, #1
 8001c4a:	f883 203d 	strb.w	r2, [r3, #61]	; 0x3d

  __HAL_UNLOCK(htim);
 8001c4e:	687b      	ldr	r3, [r7, #4]
 8001c50:	2200      	movs	r2, #0
 8001c52:	f883 203c 	strb.w	r2, [r3, #60]	; 0x3c

  return HAL_OK;
 8001c56:	2300      	movs	r3, #0
}
 8001c58:	4618      	mov	r0, r3
 8001c5a:	3714      	adds	r7, #20
 8001c5c:	46bd      	mov	sp, r7
 8001c5e:	bc80      	pop	{r7}
 8001c60:	4770      	bx	lr
 8001c62:	bf00      	nop
 8001c64:	40012c00 	.word	0x40012c00
 8001c68:	40000400 	.word	0x40000400

08001c6c <__libc_init_array>:
 8001c6c:	b570      	push	{r4, r5, r6, lr}
 8001c6e:	2600      	movs	r6, #0
 8001c70:	4d0c      	ldr	r5, [pc, #48]	; (8001ca4 <__libc_init_array+0x38>)
 8001c72:	4c0d      	ldr	r4, [pc, #52]	; (8001ca8 <__libc_init_array+0x3c>)
 8001c74:	1b64      	subs	r4, r4, r5
 8001c76:	10a4      	asrs	r4, r4, #2
 8001c78:	42a6      	cmp	r6, r4
 8001c7a:	d109      	bne.n	8001c90 <__libc_init_array+0x24>
 8001c7c:	f000 f822 	bl	8001cc4 <_init>
 8001c80:	2600      	movs	r6, #0
 8001c82:	4d0a      	ldr	r5, [pc, #40]	; (8001cac <__libc_init_array+0x40>)
 8001c84:	4c0a      	ldr	r4, [pc, #40]	; (8001cb0 <__libc_init_array+0x44>)
 8001c86:	1b64      	subs	r4, r4, r5
 8001c88:	10a4      	asrs	r4, r4, #2
 8001c8a:	42a6      	cmp	r6, r4
 8001c8c:	d105      	bne.n	8001c9a <__libc_init_array+0x2e>
 8001c8e:	bd70      	pop	{r4, r5, r6, pc}
 8001c90:	f855 3b04 	ldr.w	r3, [r5], #4
 8001c94:	4798      	blx	r3
 8001c96:	3601      	adds	r6, #1
 8001c98:	e7ee      	b.n	8001c78 <__libc_init_array+0xc>
 8001c9a:	f855 3b04 	ldr.w	r3, [r5], #4
 8001c9e:	4798      	blx	r3
 8001ca0:	3601      	adds	r6, #1
 8001ca2:	e7f2      	b.n	8001c8a <__libc_init_array+0x1e>
 8001ca4:	08001cfc 	.word	0x08001cfc
 8001ca8:	08001cfc 	.word	0x08001cfc
 8001cac:	08001cfc 	.word	0x08001cfc
 8001cb0:	08001d00 	.word	0x08001d00

08001cb4 <memset>:
 8001cb4:	4603      	mov	r3, r0
 8001cb6:	4402      	add	r2, r0
 8001cb8:	4293      	cmp	r3, r2
 8001cba:	d100      	bne.n	8001cbe <memset+0xa>
 8001cbc:	4770      	bx	lr
 8001cbe:	f803 1b01 	strb.w	r1, [r3], #1
 8001cc2:	e7f9      	b.n	8001cb8 <memset+0x4>

08001cc4 <_init>:
 8001cc4:	b5f8      	push	{r3, r4, r5, r6, r7, lr}
 8001cc6:	bf00      	nop
 8001cc8:	bcf8      	pop	{r3, r4, r5, r6, r7}
 8001cca:	bc08      	pop	{r3}
 8001ccc:	469e      	mov	lr, r3
 8001cce:	4770      	bx	lr

08001cd0 <_fini>:
 8001cd0:	b5f8      	push	{r3, r4, r5, r6, r7, lr}
 8001cd2:	bf00      	nop
 8001cd4:	bcf8      	pop	{r3, r4, r5, r6, r7}
 8001cd6:	bc08      	pop	{r3}
 8001cd8:	469e      	mov	lr, r3
 8001cda:	4770      	bx	lr
